{
  "_format": "hh-sol-artifact-1",
  "contractName": "HiveRegistry",
  "sourceName": "contracts/HiveRegistry.sol",
  "abi": [
    {
      "inputs": [
        {
          "internalType": "address",
          "name": "_usdcToken",
          "type": "address"
        },
        {
          "internalType": "address",
          "name": "_slashTreasury",
          "type": "address"
        }
      ],
      "stateMutability": "nonpayable",
      "type": "constructor"
    },
    {
      "inputs": [],
      "name": "ECDSAInvalidSignature",
      "type": "error"
    },
    {
      "inputs": [
        {
          "internalType": "uint256",
          "name": "length",
          "type": "uint256"
        }
      ],
      "name": "ECDSAInvalidSignatureLength",
      "type": "error"
    },
    {
      "inputs": [
        {
          "internalType": "bytes32",
          "name": "s",
          "type": "bytes32"
        }
      ],
      "name": "ECDSAInvalidSignatureS",
      "type": "error"
    },
    {
      "inputs": [],
      "name": "EnforcedPause",
      "type": "error"
    },
    {
      "inputs": [],
      "name": "ExpectedPause",
      "type": "error"
    },
    {
      "inputs": [],
      "name": "ReentrancyGuardReentrantCall",
      "type": "error"
    },
    {
      "anonymous": false,
      "inputs": [
        {
          "indexed": true,
          "internalType": "uint256",
          "name": "modelId",
          "type": "uint256"
        },
        {
          "indexed": false,
          "internalType": "string",
          "name": "name",
          "type": "string"
        }
      ],
      "name": "ModelRegistered",
      "type": "event"
    },
    {
      "anonymous": false,
      "inputs": [
        {
          "indexed": false,
          "internalType": "address",
          "name": "account",
          "type": "address"
        }
      ],
      "name": "Paused",
      "type": "event"
    },
    {
      "anonymous": false,
      "inputs": [
        {
          "indexed": true,
          "internalType": "uint256",
          "name": "providerId",
          "type": "uint256"
        },
        {
          "indexed": true,
          "internalType": "uint256",
          "name": "modelId",
          "type": "uint256"
        },
        {
          "indexed": false,
          "internalType": "address",
          "name": "wallet",
          "type": "address"
        },
        {
          "indexed": false,
          "internalType": "string",
          "name": "endpoint",
          "type": "string"
        },
        {
          "indexed": false,
          "internalType": "uint256",
          "name": "pricePerToken",
          "type": "uint256"
        }
      ],
      "name": "ProviderRegistered",
      "type": "event"
    },
    {
      "anonymous": false,
      "inputs": [
        {
          "indexed": true,
          "internalType": "uint256",
          "name": "providerId",
          "type": "uint256"
        },
        {
          "indexed": false,
          "internalType": "uint256",
          "name": "slashCount",
          "type": "uint256"
        },
        {
          "indexed": false,
          "internalType": "uint256",
          "name": "remainingStake",
          "type": "uint256"
        }
      ],
      "name": "ProviderSlashed",
      "type": "event"
    },
    {
      "anonymous": false,
      "inputs": [
        {
          "indexed": true,
          "internalType": "uint256",
          "name": "providerId",
          "type": "uint256"
        },
        {
          "indexed": false,
          "internalType": "uint256",
          "name": "amount",
          "type": "uint256"
        },
        {
          "indexed": false,
          "internalType": "uint256",
          "name": "totalStake",
          "type": "uint256"
        }
      ],
      "name": "ProviderStaked",
      "type": "event"
    },
    {
      "anonymous": false,
      "inputs": [
        {
          "indexed": true,
          "internalType": "uint256",
          "name": "taskId",
          "type": "uint256"
        }
      ],
      "name": "TaskExpired",
      "type": "event"
    },
    {
      "anonymous": false,
      "inputs": [
        {
          "indexed": true,
          "internalType": "uint256",
          "name": "taskId",
          "type": "uint256"
        },
        {
          "indexed": false,
          "internalType": "uint256",
          "name": "finalAmount",
          "type": "uint256"
        }
      ],
      "name": "TaskForceClaimed",
      "type": "event"
    },
    {
      "anonymous": false,
      "inputs": [
        {
          "indexed": true,
          "internalType": "uint256",
          "name": "taskId",
          "type": "uint256"
        },
        {
          "indexed": false,
          "internalType": "uint256",
          "name": "finalAmount",
          "type": "uint256"
        }
      ],
      "name": "TaskRejected",
      "type": "event"
    },
    {
      "anonymous": false,
      "inputs": [
        {
          "indexed": true,
          "internalType": "uint256",
          "name": "taskId",
          "type": "uint256"
        },
        {
          "indexed": true,
          "internalType": "address",
          "name": "client",
          "type": "address"
        },
        {
          "indexed": true,
          "internalType": "uint256",
          "name": "providerId",
          "type": "uint256"
        },
        {
          "indexed": false,
          "internalType": "uint256",
          "name": "maxBudget",
          "type": "uint256"
        },
        {
          "indexed": false,
          "internalType": "enum HiveRegistry.TaskMode",
          "name": "mode",
          "type": "uint8"
        }
      ],
      "name": "TaskRequested",
      "type": "event"
    },
    {
      "anonymous": false,
      "inputs": [
        {
          "indexed": true,
          "internalType": "uint256",
          "name": "taskId",
          "type": "uint256"
        },
        {
          "indexed": false,
          "internalType": "uint256",
          "name": "finalAmount",
          "type": "uint256"
        },
        {
          "indexed": false,
          "internalType": "bytes32",
          "name": "resultHash",
          "type": "bytes32"
        }
      ],
      "name": "TaskSettled",
      "type": "event"
    },
    {
      "anonymous": false,
      "inputs": [
        {
          "indexed": false,
          "internalType": "address",
          "name": "account",
          "type": "address"
        }
      ],
      "name": "Unpaused",
      "type": "event"
    },
    {
      "inputs": [],
      "name": "MAX_SLASH_COUNT",
      "outputs": [
        {
          "internalType": "uint256",
          "name": "",
          "type": "uint256"
        }
      ],
      "stateMutability": "view",
      "type": "function"
    },
    {
      "inputs": [],
      "name": "MINIMUM_STAKE",
      "outputs": [
        {
          "internalType": "uint256",
          "name": "",
          "type": "uint256"
        }
      ],
      "stateMutability": "view",
      "type": "function"
    },
    {
      "inputs": [
        {
          "internalType": "address",
          "name": "client",
          "type": "address"
        },
        {
          "internalType": "uint256",
          "name": "providerId",
          "type": "uint256"
        },
        {
          "internalType": "uint256",
          "name": "maxBudget",
          "type": "uint256"
        },
        {
          "internalType": "bytes32",
          "name": "promptHash",
          "type": "bytes32"
        },
        {
          "internalType": "enum HiveRegistry.TaskMode",
          "name": "mode",
          "type": "uint8"
        }
      ],
      "name": "createTask",
      "outputs": [
        {
          "internalType": "uint256",
          "name": "",
          "type": "uint256"
        }
      ],
      "stateMutability": "nonpayable",
      "type": "function"
    },
    {
      "inputs": [
        {
          "internalType": "uint256",
          "name": "providerId",
          "type": "uint256"
        }
      ],
      "name": "deactivateProvider",
      "outputs": [],
      "stateMutability": "nonpayable",
      "type": "function"
    },
    {
      "inputs": [
        {
          "internalType": "uint256",
          "name": "taskId",
          "type": "uint256"
        }
      ],
      "name": "expireTask",
      "outputs": [],
      "stateMutability": "nonpayable",
      "type": "function"
    },
    {
      "inputs": [
        {
          "internalType": "uint256",
          "name": "taskId",
          "type": "uint256"
        },
        {
          "internalType": "uint256",
          "name": "finalAmount",
          "type": "uint256"
        },
        {
          "internalType": "bytes32",
          "name": "resultHash",
          "type": "bytes32"
        },
        {
          "internalType": "bytes",
          "name": "signature",
          "type": "bytes"
        }
      ],
      "name": "forceClaim",
      "outputs": [],
      "stateMutability": "nonpayable",
      "type": "function"
    },
    {
      "inputs": [
        {
          "internalType": "uint256",
          "name": "modelId",
          "type": "uint256"
        }
      ],
      "name": "getActiveProviders",
      "outputs": [
        {
          "components": [
            {
              "internalType": "uint256",
              "name": "id",
              "type": "uint256"
            },
            {
              "internalType": "uint256",
              "name": "modelId",
              "type": "uint256"
            },
            {
              "internalType": "address",
              "name": "wallet",
              "type": "address"
            },
            {
              "internalType": "string",
              "name": "endpoint",
              "type": "string"
            },
            {
              "internalType": "uint256",
              "name": "pricePerToken",
              "type": "uint256"
            },
            {
              "internalType": "uint256",
              "name": "stakedAmount",
              "type": "uint256"
            },
            {
              "internalType": "uint256",
              "name": "totalTasksCompleted",
              "type": "uint256"
            },
            {
              "internalType": "uint256",
              "name": "totalTasksFailed",
              "type": "uint256"
            },
            {
              "internalType": "uint256",
              "name": "slashCount",
              "type": "uint256"
            },
            {
              "internalType": "bool",
              "name": "isActive",
              "type": "bool"
            }
          ],
          "internalType": "struct HiveRegistry.Provider[]",
          "name": "",
          "type": "tuple[]"
        }
      ],
      "stateMutability": "view",
      "type": "function"
    },
    {
      "inputs": [
        {
          "internalType": "uint256",
          "name": "",
          "type": "uint256"
        }
      ],
      "name": "modelIds",
      "outputs": [
        {
          "internalType": "uint256",
          "name": "",
          "type": "uint256"
        }
      ],
      "stateMutability": "view",
      "type": "function"
    },
    {
      "inputs": [
        {
          "internalType": "uint256",
          "name": "",
          "type": "uint256"
        },
        {
          "internalType": "uint256",
          "name": "",
          "type": "uint256"
        }
      ],
      "name": "modelProviders",
      "outputs": [
        {
          "internalType": "uint256",
          "name": "",
          "type": "uint256"
        }
      ],
      "stateMutability": "view",
      "type": "function"
    },
    {
      "inputs": [
        {
          "internalType": "uint256",
          "name": "",
          "type": "uint256"
        }
      ],
      "name": "models",
      "outputs": [
        {
          "internalType": "uint256",
          "name": "id",
          "type": "uint256"
        },
        {
          "internalType": "string",
          "name": "name",
          "type": "string"
        },
        {
          "internalType": "string",
          "name": "niche",
          "type": "string"
        },
        {
          "internalType": "uint256",
          "name": "maxPricePerToken",
          "type": "uint256"
        },
        {
          "internalType": "bool",
          "name": "isActive",
          "type": "bool"
        }
      ],
      "stateMutability": "view",
      "type": "function"
    },
    {
      "inputs": [],
      "name": "nextModelId",
      "outputs": [
        {
          "internalType": "uint256",
          "name": "",
          "type": "uint256"
        }
      ],
      "stateMutability": "view",
      "type": "function"
    },
    {
      "inputs": [],
      "name": "nextProviderId",
      "outputs": [
        {
          "internalType": "uint256",
          "name": "",
          "type": "uint256"
        }
      ],
      "stateMutability": "view",
      "type": "function"
    },
    {
      "inputs": [],
      "name": "nextTaskId",
      "outputs": [
        {
          "internalType": "uint256",
          "name": "",
          "type": "uint256"
        }
      ],
      "stateMutability": "view",
      "type": "function"
    },
    {
      "inputs": [],
      "name": "pause",
      "outputs": [],
      "stateMutability": "nonpayable",
      "type": "function"
    },
    {
      "inputs": [],
      "name": "paused",
      "outputs": [
        {
          "internalType": "bool",
          "name": "",
          "type": "bool"
        }
      ],
      "stateMutability": "view",
      "type": "function"
    },
    {
      "inputs": [],
      "name": "pauser",
      "outputs": [
        {
          "internalType": "address",
          "name": "",
          "type": "address"
        }
      ],
      "stateMutability": "view",
      "type": "function"
    },
    {
      "inputs": [],
      "name": "platformFeeBps",
      "outputs": [
        {
          "internalType": "uint256",
          "name": "",
          "type": "uint256"
        }
      ],
      "stateMutability": "view",
      "type": "function"
    },
    {
      "inputs": [
        {
          "internalType": "uint256",
          "name": "",
          "type": "uint256"
        }
      ],
      "name": "providerPendingTasks",
      "outputs": [
        {
          "internalType": "uint256",
          "name": "",
          "type": "uint256"
        }
      ],
      "stateMutability": "view",
      "type": "function"
    },
    {
      "inputs": [
        {
          "internalType": "uint256",
          "name": "",
          "type": "uint256"
        }
      ],
      "name": "providers",
      "outputs": [
        {
          "internalType": "uint256",
          "name": "id",
          "type": "uint256"
        },
        {
          "internalType": "uint256",
          "name": "modelId",
          "type": "uint256"
        },
        {
          "internalType": "address",
          "name": "wallet",
          "type": "address"
        },
        {
          "internalType": "string",
          "name": "endpoint",
          "type": "string"
        },
        {
          "internalType": "uint256",
          "name": "pricePerToken",
          "type": "uint256"
        },
        {
          "internalType": "uint256",
          "name": "stakedAmount",
          "type": "uint256"
        },
        {
          "internalType": "uint256",
          "name": "totalTasksCompleted",
          "type": "uint256"
        },
        {
          "internalType": "uint256",
          "name": "totalTasksFailed",
          "type": "uint256"
        },
        {
          "internalType": "uint256",
          "name": "slashCount",
          "type": "uint256"
        },
        {
          "internalType": "bool",
          "name": "isActive",
          "type": "bool"
        }
      ],
      "stateMutability": "view",
      "type": "function"
    },
    {
      "inputs": [
        {
          "internalType": "string",
          "name": "name",
          "type": "string"
        },
        {
          "internalType": "string",
          "name": "niche",
          "type": "string"
        },
        {
          "internalType": "uint256",
          "name": "maxPricePerToken",
          "type": "uint256"
        }
      ],
      "name": "registerModel",
      "outputs": [
        {
          "internalType": "uint256",
          "name": "",
          "type": "uint256"
        }
      ],
      "stateMutability": "nonpayable",
      "type": "function"
    },
    {
      "inputs": [
        {
          "internalType": "uint256",
          "name": "modelId",
          "type": "uint256"
        },
        {
          "internalType": "string",
          "name": "endpoint",
          "type": "string"
        },
        {
          "internalType": "uint256",
          "name": "pricePerToken",
          "type": "uint256"
        },
        {
          "internalType": "uint256",
          "name": "initialStake",
          "type": "uint256"
        }
      ],
      "name": "registerProvider",
      "outputs": [
        {
          "internalType": "uint256",
          "name": "",
          "type": "uint256"
        }
      ],
      "stateMutability": "nonpayable",
      "type": "function"
    },
    {
      "inputs": [
        {
          "internalType": "uint256",
          "name": "taskId",
          "type": "uint256"
        },
        {
          "internalType": "uint256",
          "name": "finalAmount",
          "type": "uint256"
        },
        {
          "internalType": "bytes32",
          "name": "resultHash",
          "type": "bytes32"
        },
        {
          "internalType": "bytes",
          "name": "signature",
          "type": "bytes"
        }
      ],
      "name": "rejectTask",
      "outputs": [],
      "stateMutability": "nonpayable",
      "type": "function"
    },
    {
      "inputs": [
        {
          "internalType": "uint256",
          "name": "newFeeBps",
          "type": "uint256"
        }
      ],
      "name": "setPlatformFeeBps",
      "outputs": [],
      "stateMutability": "nonpayable",
      "type": "function"
    },
    {
      "inputs": [
        {
          "internalType": "uint256",
          "name": "taskId",
          "type": "uint256"
        },
        {
          "internalType": "uint256",
          "name": "finalAmount",
          "type": "uint256"
        },
        {
          "internalType": "bytes32",
          "name": "resultHash",
          "type": "bytes32"
        },
        {
          "internalType": "bytes",
          "name": "signature",
          "type": "bytes"
        }
      ],
      "name": "settleTask",
      "outputs": [],
      "stateMutability": "nonpayable",
      "type": "function"
    },
    {
      "inputs": [],
      "name": "slashTreasury",
      "outputs": [
        {
          "internalType": "address",
          "name": "",
          "type": "address"
        }
      ],
      "stateMutability": "view",
      "type": "function"
    },
    {
      "inputs": [
        {
          "internalType": "uint256",
          "name": "providerId",
          "type": "uint256"
        },
        {
          "internalType": "uint256",
          "name": "amount",
          "type": "uint256"
        }
      ],
      "name": "stakeForProvider",
      "outputs": [],
      "stateMutability": "nonpayable",
      "type": "function"
    },
    {
      "inputs": [
        {
          "internalType": "uint256",
          "name": "",
          "type": "uint256"
        }
      ],
      "name": "tasks",
      "outputs": [
        {
          "internalType": "address",
          "name": "client",
          "type": "address"
        },
        {
          "internalType": "address",
          "name": "orchestrator",
          "type": "address"
        },
        {
          "internalType": "uint256",
          "name": "providerId",
          "type": "uint256"
        },
        {
          "internalType": "uint256",
          "name": "maxBudget",
          "type": "uint256"
        },
        {
          "internalType": "uint256",
          "name": "finalAmount",
          "type": "uint256"
        },
        {
          "internalType": "bytes32",
          "name": "promptHash",
          "type": "bytes32"
        },
        {
          "internalType": "bytes32",
          "name": "resultHash",
          "type": "bytes32"
        },
        {
          "internalType": "enum HiveRegistry.TaskMode",
          "name": "mode",
          "type": "uint8"
        },
        {
          "internalType": "enum HiveRegistry.TaskStatus",
          "name": "status",
          "type": "uint8"
        },
        {
          "internalType": "uint256",
          "name": "createdAt",
          "type": "uint256"
        },
        {
          "internalType": "uint256",
          "name": "providerDeadline",
          "type": "uint256"
        },
        {
          "internalType": "uint256",
          "name": "userDeadline",
          "type": "uint256"
        }
      ],
      "stateMutability": "view",
      "type": "function"
    },
    {
      "inputs": [
        {
          "internalType": "address",
          "name": "newPauser",
          "type": "address"
        }
      ],
      "name": "transferPauser",
      "outputs": [],
      "stateMutability": "nonpayable",
      "type": "function"
    },
    {
      "inputs": [],
      "name": "unpause",
      "outputs": [],
      "stateMutability": "nonpayable",
      "type": "function"
    },
    {
      "inputs": [
        {
          "internalType": "uint256",
          "name": "providerId",
          "type": "uint256"
        }
      ],
      "name": "unstakeFromProvider",
      "outputs": [],
      "stateMutability": "nonpayable",
      "type": "function"
    },
    {
      "inputs": [
        {
          "internalType": "uint256",
          "name": "providerId",
          "type": "uint256"
        },
        {
          "internalType": "string",
          "name": "endpoint",
          "type": "string"
        },
        {
          "internalType": "uint256",
          "name": "pricePerToken",
          "type": "uint256"
        }
      ],
      "name": "updateProviderConfig",
      "outputs": [],
      "stateMutability": "nonpayable",
      "type": "function"
    },
    {
      "inputs": [],
      "name": "usdcToken",
      "outputs": [
        {
          "internalType": "contract IERC20",
          "name": "",
          "type": "address"
        }
      ],
      "stateMutability": "view",
      "type": "function"
    },
    {
      "inputs": [
        {
          "internalType": "uint256",
          "name": "taskId",
          "type": "uint256"
        },
        {
          "internalType": "uint256",
          "name": "finalAmount",
          "type": "uint256"
        },
        {
          "internalType": "bytes32",
          "name": "resultHash",
          "type": "bytes32"
        },
        {
          "internalType": "bytes",
          "name": "signature",
          "type": "bytes"
        }
      ],
      "name": "verifySignature",
      "outputs": [
        {
          "internalType": "bool",
          "name": "",
          "type": "bool"
        }
      ],
      "stateMutability": "view",
      "type": "function"
    }
  ],
  "bytecode": "0x60c06040526101f460015534801562000016575f80fd5b5060405162003c9838038062003c9883398101604081905262000039916200015b565b60017f9b779b17422d0df92223018b32b4d1fa46e071723d6817e2486d003becc55f00556001600160a01b038216620000b95760405162461bcd60e51b815260206004820152601560248201527f496e76616c696420746f6b656e2061646472657373000000000000000000000060448201526064015b60405180910390fd5b6001600160a01b038116620001115760405162461bcd60e51b815260206004820152601860248201527f496e76616c6964207472656173757279206164647265737300000000000000006044820152606401620000b0565b6001600160a01b039182166080521660a0525f8054610100600160a81b031916336101000217905562000191565b80516001600160a01b038116811462000156575f80fd5b919050565b5f80604083850312156200016d575f80fd5b62000178836200013f565b915062000188602084016200013f565b90509250929050565b60805160a051613a7c6200021c5f395f818161046401528181610891015281816128770152612a4001525f8181610218015281816107bc015281816108c0015281816109a4015281816110b20152818161176b01528181611e1e0152818161218d015281816126dd015281816128a601528181612a6f01528181612b560152612c3a0152613a7c5ff3fe608060405234801561000f575f80fd5b50600436106101f2575f3560e01c806370df368311610114578063b44965e6116100a9578063cb8f4c4a11610079578063cb8f4c4a146104fc578063e472ae8b14610504578063ea2882211461050d578063fc9b073514610520578063fdc3d8d714610533575f80fd5b8063b44965e6146104b0578063b5571144146104c3578063c580c942146104d6578063c63c0fda146104e9575f80fd5b80638d977672116100e45780638d977672146103c7578063995806511461045f5780639fd0506d14610486578063a2d785481461049d575f80fd5b806370df36831461036d57806378bbe6fa1461038d5780638456cb59146103ac5780638720f732146103b4575f80fd5b80634421ea211161018a5780635c975abb1161015a5780635c975abb1461031957806362ecc47a14610323578063654ab4c6146103365780636a030ca914610349575f80fd5b80634421ea21146102c157806350f3fc81146102d457806351a8dbcf146102fd578063540d274814610306575f80fd5b80631ecf38d6116101c55780631ecf38d61461027a57806322dcd13e1461028d5780633179b6c6146102965780633f4ba83a146102b9575f80fd5b806308dbbb03146101f657806311eac8551461021357806317f423a81461025257806319e2a10914610267575b5f80fd5b610200620f424081565b6040519081526020015b60405180910390f35b61023a7f000000000000000000000000000000000000000000000000000000000000000081565b6040516001600160a01b03909116815260200161020a565b610265610260366004612fae565b61053c565b005b610200610275366004613075565b610a87565b610265610288366004612fae565b610aa6565b61020060015481565b6102a96102a4366004612fae565b610ce7565b604051901515815260200161020a565b610265610da1565b6102656102cf3660046130a7565b610dd9565b6102e76102e2366004613075565b610e2e565b60405161020a9a9998979695949392919061310a565b61020060055481565b610265610314366004613075565b610f12565b5f5460ff166102a9565b610265610331366004613075565b610f91565b610200610344366004613174565b61117e565b61035c610357366004613075565b6111a9565b60405161020a959493929190613194565b61038061037b366004613075565b6112e7565b60405161020a91906131d8565b61020061039b366004613075565b600a6020525f908152604090205481565b610265611613565b6102006103c2366004613301565b611649565b6104476103d5366004613075565b600960208190525f918252604090912080546001820154600283015460038401546004850154600586015460068701546007880154600889015499890154600a909901546001600160a01b039889169a98909716989597949693959294919360ff80831694610100909304169291908c565b60405161020a9c9b9a99989796959493929190613382565b61023a7f000000000000000000000000000000000000000000000000000000000000000081565b5f5461023a9061010090046001600160a01b031681565b6102656104ab366004612fae565b611a22565b6102656104be366004613075565b611cf2565b6102006104d1366004613408565b611ebe565b6102656104e4366004613075565b61206a565b6102656104f7366004613174565b6120de565b610200600581565b61020060025481565b61026561051b366004613476565b612294565b61020061052e3660046134c5565b612340565b61020060085481565b6105446127c4565b61054c6127df565b5f848152600960205260408120906007820154610100900460ff1660048111156105785761057861335a565b1461059e5760405162461bcd60e51b815260040161059590613518565b60405180910390fd5b5f600782015460ff1660018111156105b8576105b861335a565b146106055760405162461bcd60e51b815260206004820152601c60248201527f43616e6e6f742072656a656374204155544f4d41544544207461736b000000006044820152606401610595565b60018101546001600160a01b0316331480610629575080546001600160a01b031633145b6106815760405162461bcd60e51b815260206004820152602360248201527f4f6e6c79206f7263686573747261746f722f636c69656e742063616e2072656a6044820152621958dd60ea1b6064820152608401610595565b80600301548411156106a55760405162461bcd60e51b81526004016105959061353d565b6106b185858585610ce7565b6106cd5760405162461bcd60e51b815260040161059590613574565b60078101805461ff001916610200179055600481018490556006810183905560028101545f908152600a6020526040812080546001929061070f9084906135bf565b9091555050600281015461072290612802565b5f612710610732866107d06135d2565b61073c91906135e9565b90505f61271061074e876101f46135d2565b61075891906135e9565b90505f8183856003015461076c91906135bf565b61077691906135bf565b60028501545f908152600660205260409020909150831561087457600281015460405163a9059cbb60e01b81526001600160a01b039182166004820152602481018690527f00000000000000000000000000000000000000000000000000000000000000009091169063a9059cbb906044016020604051808303815f875af1158015610804573d5f803e3d5ffd5b505050506040513d601f19601f820116820180604052508101906108289190613608565b6108745760405162461bcd60e51b815260206004820152601b60248201527f436f6d7075746520666565207472616e73666572206661696c656400000000006044820152606401610595565b82156109765760405163a9059cbb60e01b81526001600160a01b037f000000000000000000000000000000000000000000000000000000000000000081166004830152602482018590527f0000000000000000000000000000000000000000000000000000000000000000169063a9059cbb906044016020604051808303815f875af1158015610906573d5f803e3d5ffd5b505050506040513d601f19601f8201168201806040525081019061092a9190613608565b6109765760405162461bcd60e51b815260206004820152601b60248201527f4469737075746520666565207472616e73666572206661696c656400000000006044820152606401610595565b8115610a2c57845460405163a9059cbb60e01b81526001600160a01b039182166004820152602481018490527f00000000000000000000000000000000000000000000000000000000000000009091169063a9059cbb906044016020604051808303815f875af11580156109ec573d5f803e3d5ffd5b505050506040513d601f19601f82011682018060405250810190610a109190613608565b610a2c5760405162461bcd60e51b815260040161059590613627565b887f275ae23cda4ee67ab6630a18099fc72de52fb12f66144c43bc89fa6464d1568e89604051610a5e91815260200190565b60405180910390a25050505050610a8160015f80516020613a2783398151915255565b50505050565b60048181548110610a96575f80fd5b5f91825260209091200154905081565b610aae6127c4565b610ab66127df565b5f848152600960205260408120906007820154610100900460ff166004811115610ae257610ae261335a565b14610aff5760405162461bcd60e51b815260040161059590613518565b8060030154841115610b235760405162461bcd60e51b81526004016105959061353d565b610b2f85858585610ce7565b610b4b5760405162461bcd60e51b815260040161059590613574565b5f600782015460ff166001811115610b6557610b6561335a565b03610bf05760018101546001600160a01b0316331480610b8e575080546001600160a01b031633145b610bf05760405162461bcd60e51b815260206004820152602d60248201527f4f6e6c79206f7263686573747261746f722f636c69656e742063616e2073657460448201526c746c652043484154207461736b60981b6064820152608401610595565b60078101805461ff001916610100179055600481018490556006810183905560028101545f908152600a60205260408120805460019290610c329084906135bf565b909155505060028101545f908152600660208190526040822001805460019290610c5d908490613657565b909155505060038101545f90610c749086906135bf565b60028301548354919250610c9491879084906001600160a01b03166129e9565b604080518681526020810186905287917f596c80d8829217ecd71bba7fdd9326afff6a6a1aacbb6d0c53c7e392469d0514910160405180910390a25050610a8160015f80516020613a2783398151915255565b5f84815260096020908152604080832060028101548452600683528184208251938401899052918301879052606083018690529183906080016040516020818303038152906040528051906020012090505f610d6f827f19457468657265756d205369676e6564204d6573736167653a0a3332000000005f908152601c91909152603c902090565b60028401549091506001600160a01b0316610d8a8288612cc9565b6001600160a01b0316149998505050505050505050565b5f5461010090046001600160a01b03163314610dcf5760405162461bcd60e51b81526004016105959061366a565b610dd7612cf3565b565b5f5461010090046001600160a01b03163314610e075760405162461bcd60e51b81526004016105959061366a565b5f80546001600160a01b0390921661010002610100600160a81b0319909216919091179055565b60066020525f90815260409020805460018201546002830154600384018054939492936001600160a01b039092169291610e679061368f565b80601f0160208091040260200160405190810160405280929190818152602001828054610e939061368f565b8015610ede5780601f10610eb557610100808354040283529160200191610ede565b820191905f5260205f20905b815481529060010190602001808311610ec157829003601f168201915b5050506004840154600585015460068601546007870154600888015460099098015496979396929550909350919060ff168a565b5f81815260066020526040902060028101546001600160a01b0316331480610f4857505f5461010090046001600160a01b031633145b610f835760405162461bcd60e51b815260206004820152600c60248201526b155b985d5d1a1bdc9a5e995960a21b6044820152606401610595565b600901805460ff1916905550565b610f996127c4565b610fa16127df565b5f818152600960205260408120906007820154610100900460ff166004811115610fcd57610fcd61335a565b14610fea5760405162461bcd60e51b815260040161059590613518565b8060090154421161103d5760405162461bcd60e51b815260206004820152601c60248201527f50726f766964657220646561646c696e65206e6f7420706173736564000000006044820152606401610595565b60078101805461ff00191661030017905560028101545f908152600a602052604081208054600192906110719084906135bf565b9091555050600281015461108490612802565b8054600382015460405163a9059cbb60e01b81526001600160a01b03928316600482015260248101919091527f00000000000000000000000000000000000000000000000000000000000000009091169063a9059cbb906044016020604051808303815f875af11580156110fa573d5f803e3d5ffd5b505050506040513d601f19601f8201168201806040525081019061111e9190613608565b61113a5760405162461bcd60e51b815260040161059590613627565b60405182907f7c2ecd5e2b7188ac57f3a370681639cb447c9cbfbbbace0c070adea6c73eaa54905f90a25061117b60015f80516020613a2783398151915255565b50565b6007602052815f5260405f208181548110611197575f80fd5b905f5260205f20015f91509150505481565b60036020525f9081526040902080546001820180549192916111ca9061368f565b80601f01602080910402602001604051908101604052809291908181526020018280546111f69061368f565b80156112415780601f1061121857610100808354040283529160200191611241565b820191905f5260205f20905b81548152906001019060200180831161122457829003601f168201915b5050505050908060020180546112569061368f565b80601f01602080910402602001604051908101604052809291908181526020018280546112829061368f565b80156112cd5780601f106112a4576101008083540402835291602001916112cd565b820191905f5260205f20905b8154815290600101906020018083116112b057829003601f168201915b50505050600383015460049093015491929160ff16905085565b5f81815260076020908152604080832080548251818502810185019093528083526060949383018282801561133957602002820191905f5260205f20905b815481526020019060010190808311611325575b505050505090505f805b825181101561139c5760065f848381518110611361576113616136c7565b60209081029190910181015182528101919091526040015f206009015460ff16156113945781611390816136db565b9250505b600101611343565b505f8167ffffffffffffffff8111156113b7576113b7612f9a565b60405190808252806020026020018201604052801561144057816020015b61142d6040518061014001604052805f81526020015f81526020015f6001600160a01b03168152602001606081526020015f81526020015f81526020015f81526020015f81526020015f81526020015f151581525090565b8152602001906001900390816113d55790505b5090505f805b84518110156116085760065f868381518110611464576114646136c7565b60209081029190910181015182528101919091526040015f206009015460ff16156116005760065f86838151811061149e5761149e6136c7565b602002602001015181526020019081526020015f20604051806101400160405290815f820154815260200160018201548152602001600282015f9054906101000a90046001600160a01b03166001600160a01b03166001600160a01b031681526020016003820180546115109061368f565b80601f016020809104026020016040519081016040528092919081815260200182805461153c9061368f565b80156115875780601f1061155e57610100808354040283529160200191611587565b820191905f5260205f20905b81548152906001019060200180831161156a57829003601f168201915b505050918352505060048201546020820152600582015460408201526006820154606082015260078201546080820152600882015460a082015260099091015460ff16151560c09091015283518490849081106115e6576115e66136c7565b602002602001018190525081806115fc906136db565b9250505b600101611446565b509095945050505050565b5f5461010090046001600160a01b031633146116415760405162461bcd60e51b81526004016105959061366a565b610dd7612d44565b5f6116526127c4565b61165a6127df565b5f8681526003602052604090206004015460ff166116ab5760405162461bcd60e51b815260206004820152600e60248201526d4d6f64656c20696e61637469766560901b6044820152606401610595565b5f86815260036020819052604090912001548311156117005760405162461bcd60e51b81526020600482015260116024820152700507269636520657863656564732063617607c1b6044820152606401610595565b620f42408210156117495760405162461bcd60e51b81526020600482015260136024820152725374616b652062656c6f77206d696e696d756d60681b6044820152606401610595565b6040516323b872dd60e01b8152336004820152306024820152604481018390527f00000000000000000000000000000000000000000000000000000000000000006001600160a01b0316906323b872dd906064016020604051808303815f875af11580156117b9573d5f803e3d5ffd5b505050506040513d601f19601f820116820180604052508101906117dd9190613608565b6117f95760405162461bcd60e51b8152600401610595906136f3565b5f423388888860055f815480929190611811906136db565b9190505560405160200161182a96959493929190613721565b60408051601f198184030181528282528051602091820120610140840183528084528382018b905233848401528251601f8a01839004830281018301909352888352935060608301919089908990819084018382808284375f9201829052509385525050506020808301889052604080840188905260608085018490526080850184905260a08501849052600160c09095018590528684526006835292819020855181559185015193820193909355918301516002830180546001600160a01b0319166001600160a01b03909216919091179055820151600382019061191090826137a7565b506080820151600482015560a0820151600582015560c0820151600682015560e08201516007808301919091556101008301516008830155610120909201516009909101805460ff19169115159190911790555f8881526020918252604080822080546001810182559083529290912090910182905551879082907f526f4f277a94b09231d2a19b5ad0935de82bb96a2e05463a4a3359b5190ead9e906119be9033908b908b908b9061388f565b60405180910390a3604080518481526020810185905282917ff3de9696cc92c479959092d3f1f34e399ad497f7d8cbbaddc43530e91a6225e9910160405180910390a29050611a1960015f80516020613a2783398151915255565b95945050505050565b611a2a6127c4565b611a326127df565b5f848152600960205260408120906007820154610100900460ff166004811115611a5e57611a5e61335a565b14611a7b5760405162461bcd60e51b815260040161059590613518565b5f600782015460ff166001811115611a9557611a9561335a565b14611ae25760405162461bcd60e51b815260206004820181905260248201527f4f6e6c792043484154207461736b73206861766520666f72636520636c61696d6044820152606401610595565b80600a01544211611b355760405162461bcd60e51b815260206004820152601860248201527f5573657220646561646c696e65206e6f742070617373656400000000000000006044820152606401610595565b8060030154841115611b595760405162461bcd60e51b81526004016105959061353d565b611b6585858585610ce7565b611b815760405162461bcd60e51b815260040161059590613574565b6002818101545f908152600660205260409020908101546001600160a01b03163314611bfb5760405162461bcd60e51b8152602060048201526024808201527f4f6e6c792070726f76696465722077616c6c65742063616e20666f72636520636044820152636c61696d60e01b6064820152608401610595565b60078201805461ff001916610400179055600482018590556006820184905560028201545f908152600a60205260408120805460019290611c3d9084906135bf565b909155505060028201545f908152600660208190526040822001805460019290611c68908490613657565b909155505060038201545f90611c7f9087906135bf565b60028401548454919250611c9f91889084906001600160a01b03166129e9565b867fb32dc5e545a2669745426c67ec8ceb7d94cc82c88d1ac33650b0526c9077e87987604051611cd191815260200190565b60405180910390a2505050610a8160015f80516020613a2783398151915255565b611cfa6127c4565b611d026127df565b5f81815260066020526040902060028101546001600160a01b03163314611d3b5760405162461bcd60e51b8152600401610595906138c4565b600981015460ff161580611d5a57505f828152600a6020526040902054155b611da65760405162461bcd60e51b815260206004820181905260248201527f43616e6e6f7420756e7374616b6520696620616374697665206f7220627573796044820152606401610595565b600581015480611ded5760405162461bcd60e51b81526020600482015260126024820152714e6f7468696e6720746f20756e7374616b6560701b6044820152606401610595565b5f6005830155600282015460405163a9059cbb60e01b81526001600160a01b039182166004820152602481018390527f00000000000000000000000000000000000000000000000000000000000000009091169063a9059cbb906044016020604051808303815f875af1158015611e66573d5f803e3d5ffd5b505050506040513d601f19601f82011682018060405250810190611e8a9190613608565b611ea65760405162461bcd60e51b8152600401610595906136f3565b505061117b60015f80516020613a2783398151915255565b5f8042338888888860025f815480929190611ed8906136db565b91905055604051602001611ef297969594939291906138f2565b60408051601f19818403018152828252805160209182012060a0840183528084528251601f8b01839004830281018301909352898352935082810191908a908a90819084018382808284375f92019190915250505090825250604080516020601f8901819004810282018101909252878152918101919088908890819084018382808284375f920182905250938552505050602080830187905260016040938401819052858352600382529290912083518155908301519091820190611fb890826137a7565b5060408201516002820190611fcd90826137a7565b50606082015160038201556080909101516004918201805460ff191691151591909117905580546001810182555f919091527f8a35acfbc15ff81a39ae7d344fd709f28e8600b4aa8c65c6b64bfe7fe36bd19b0181905560405181907f0cd2818d3e63397d2c5e8721c1379a859301b4487868589e3738d0ccc9769c2e90612058908a908a9061393d565b60405180910390a29695505050505050565b5f5461010090046001600160a01b031633146120985760405162461bcd60e51b81526004016105959061366a565b6107d08111156120d95760405162461bcd60e51b815260206004820152600c60248201526b08ccaca40e8dede40d0d2ced60a31b6044820152606401610595565b600155565b6120e66127c4565b6120ee6127df565b5f81116121325760405162461bcd60e51b81526020600482015260126024820152710416d6f756e74206d757374206265203e20360741b6044820152606401610595565b5f82815260066020526040902060028101546001600160a01b0316331461216b5760405162461bcd60e51b8152600401610595906138c4565b6040516323b872dd60e01b8152336004820152306024820152604481018390527f00000000000000000000000000000000000000000000000000000000000000006001600160a01b0316906323b872dd906064016020604051808303815f875af11580156121db573d5f803e3d5ffd5b505050506040513d601f19601f820116820180604052508101906121ff9190613608565b61221b5760405162461bcd60e51b8152600401610595906136f3565b81816005015f82825461222e9190613657565b9091555050600581015460405184917ff3de9696cc92c479959092d3f1f34e399ad497f7d8cbbaddc43530e91a6225e99161227191868252602082015260400190565b60405180910390a25061229060015f80516020613a2783398151915255565b5050565b5f84815260066020526040902060028101546001600160a01b031633146122cd5760405162461bcd60e51b8152600401610595906138c4565b60018101545f90815260036020819052604090912001548211156123275760405162461bcd60e51b81526020600482015260116024820152700507269636520657863656564732063617607c1b6044820152606401610595565b60038101612336848683613958565b5060040155505050565b5f6123496127c4565b6123516127df565b6001600160a01b0386166123985760405162461bcd60e51b815260206004820152600e60248201526d125b9d985b1a590818db1a595b9d60921b6044820152606401610595565b5f84116123dd5760405162461bcd60e51b8152602060048201526013602482015272109d5919d95d080f880c081c995c5d5a5c9959606a1b6044820152606401610595565b5f858152600660205260409020600981015460ff166124325760405162461bcd60e51b815260206004820152601160248201527050726f766964657220696e61637469766560781b6044820152606401610595565b620f4240816005015410156124815760405162461bcd60e51b8152602060048201526015602482015274141c9bdd9a59195c881d5b99195c8b5cdd185ad959605a1b6044820152606401610595565b600880545f914291339184612495836136db565b919050556040516020016124ce9392919092835260609190911b6bffffffffffffffffffffffff19166020830152603482015260540190565b60408051601f19818403018152919052805160209091012090505f6124f542610708613657565b90505f8086600181111561250b5761250b61335a565b14612516575f612523565b6125238262015180613657565b90506040518061018001604052808b6001600160a01b03168152602001336001600160a01b031681526020018a81526020018981526020015f81526020018881526020015f801b81526020018760018111156125815761258161335a565b81526020015f815242602080830191909152604080830186905260609283018590525f87815260098352819020845181546001600160a01b039182166001600160a01b0319918216178355938601516001808401805492909316919095161790559084015160028201559183015160038301556080830151600483015560a0830151600583015560c0830151600683015560e08301516007830180549192909160ff19169083818111156126375761263761335a565b0217905550610100828101516007830180549192909161ff001916908360048111156126655761266561335a565b02179055506101208201516008820155610140820151600982015561016090910151600a918201555f8a8152602091909152604081208054600192906126ac908490613657565b90915550506040516323b872dd60e01b81526001600160a01b038b81166004830152306024830152604482018a90527f000000000000000000000000000000000000000000000000000000000000000016906323b872dd906064016020604051808303815f875af1158015612723573d5f803e3d5ffd5b505050506040513d601f19601f820116820180604052508101906127479190613608565b6127635760405162461bcd60e51b8152600401610595906136f3565b888a6001600160a01b0316847fa4e088bd53f1a93ee40057b5712e06ba25a502ef94d3cdb958ef1581088309788b8a6040516127a0929190613a12565b60405180910390a4509092505050611a1960015f80516020613a2783398151915255565b6127cc612d80565b60025f80516020613a2783398151915255565b5f5460ff1615610dd75760405163d93c066560e01b815260040160405180910390fd5b5f8181526006602052604081206007810180549192600192612825908490613657565b909155505060058101546207a12090811115612842575060058101545b80156129545780826005015f82825461285b91906135bf565b909155505060405163a9059cbb60e01b81526001600160a01b037f000000000000000000000000000000000000000000000000000000000000000081166004830152602482018390527f0000000000000000000000000000000000000000000000000000000000000000169063a9059cbb906044016020604051808303815f875af11580156128ec573d5f803e3d5ffd5b505050506040513d601f19601f820116820180604052508101906129109190613608565b6129545760405162461bcd60e51b815260206004820152601560248201527414db185cda081d1c985b9cd9995c8819985a5b1959605a1b6044820152606401610595565b6001826008015f8282546129689190613657565b90915550506008820154600583015460405185927f2a972d3739156f3b9c26f9124f039d07bb12905f2063b349d0aac60f247d86b9926129b092918252602082015260400190565b60405180910390a2600582600801541015806129d25750620f42408260050154105b156129e45760098201805460ff191690555b505050565b5f84815260066020526040812060015490919061271090612a0a90876135d2565b612a1491906135e9565b90505f612a2182876135bf565b90508115612b255760405163a9059cbb60e01b81526001600160a01b037f000000000000000000000000000000000000000000000000000000000000000081166004830152602482018490527f0000000000000000000000000000000000000000000000000000000000000000169063a9059cbb906044016020604051808303815f875af1158015612ab5573d5f803e3d5ffd5b505050506040513d601f19601f82011682018060405250810190612ad99190613608565b612b255760405162461bcd60e51b815260206004820152601c60248201527f506c6174666f726d20666565207472616e73666572206661696c6564000000006044820152606401610595565b8015612c0e57600283015460405163a9059cbb60e01b81526001600160a01b039182166004820152602481018390527f00000000000000000000000000000000000000000000000000000000000000009091169063a9059cbb906044016020604051808303815f875af1158015612b9e573d5f803e3d5ffd5b505050506040513d601f19601f82011682018060405250810190612bc29190613608565b612c0e5760405162461bcd60e51b815260206004820152601860248201527f50726f7669646572207472616e73666572206661696c656400000000000000006044820152606401610595565b8415612cc05760405163a9059cbb60e01b81526001600160a01b038581166004830152602482018790527f0000000000000000000000000000000000000000000000000000000000000000169063a9059cbb906044016020604051808303815f875af1158015612c80573d5f803e3d5ffd5b505050506040513d601f19601f82011682018060405250810190612ca49190613608565b612cc05760405162461bcd60e51b815260040161059590613627565b50505050505050565b5f805f80612cd78686612daf565b925092509250612ce78282612df8565b50909150505b92915050565b612cfb612eb0565b5f805460ff191690557f5db9ee0a495bf2e6ff9c91a7834c1ba4fdd244a5e8aa4e537bd38aeae4b073aa335b6040516001600160a01b03909116815260200160405180910390a1565b612d4c6127df565b5f805460ff191660011790557f62e78cea01bee320cd4e420270b5ea74000d11b0c9f74754ebdbfc544b05a258612d273390565b5f80516020613a2783398151915254600203610dd757604051633ee5aeb560e01b815260040160405180910390fd5b5f805f8351604103612de6576020840151604085015160608601515f1a612dd888828585612ed2565b955095509550505050612df1565b505081515f91506002905b9250925092565b5f826003811115612e0b57612e0b61335a565b03612e14575050565b6001826003811115612e2857612e2861335a565b03612e465760405163f645eedf60e01b815260040160405180910390fd5b6002826003811115612e5a57612e5a61335a565b03612e7b5760405163fce698f760e01b815260048101829052602401610595565b6003826003811115612e8f57612e8f61335a565b03612290576040516335e2f38360e21b815260048101829052602401610595565b5f5460ff16610dd757604051638dfc202b60e01b815260040160405180910390fd5b5f80807f7fffffffffffffffffffffffffffffff5d576e7357a4501ddfe92f46681b20a0841115612f0b57505f91506003905082612f90565b604080515f808252602082018084528a905260ff891692820192909252606081018790526080810186905260019060a0016020604051602081039080840390855afa158015612f5c573d5f803e3d5ffd5b5050604051601f1901519150506001600160a01b038116612f8757505f925060019150829050612f90565b92505f91508190505b9450945094915050565b634e487b7160e01b5f52604160045260245ffd5b5f805f8060808587031215612fc1575f80fd5b843593506020850135925060408501359150606085013567ffffffffffffffff80821115612fed575f80fd5b818701915087601f830112613000575f80fd5b81358181111561301257613012612f9a565b604051601f8201601f19908116603f0116810190838211818310171561303a5761303a612f9a565b816040528281528a6020848701011115613052575f80fd5b826020860160208301375f60208483010152809550505050505092959194509250565b5f60208284031215613085575f80fd5b5035919050565b80356001600160a01b03811681146130a2575f80fd5b919050565b5f602082840312156130b7575f80fd5b6130c08261308c565b9392505050565b5f81518084525f5b818110156130eb576020818501810151868301820152016130cf565b505f602082860101526020601f19601f83011685010191505092915050565b8a8152602081018a90526001600160a01b0389166040820152610140606082018190525f9061313b8382018b6130c7565b6080840199909952505060a081019590955260c085019390935260e0840191909152610100830152151561012090910152949350505050565b5f8060408385031215613185575f80fd5b50508035926020909101359150565b85815260a060208201525f6131ac60a08301876130c7565b82810360408401526131be81876130c7565b606084019590955250509015156080909101529392505050565b5f60208083018184528085518083526040925060408601915060408160051b8701018488015f5b838110156132ae57888303603f190185528151805184528781015188850152868101516001600160a01b038116888601526101409050606080830151828288015261324c838801826130c7565b6080858101519089015260a0808601519089015260c0808601519089015260e08086015190890152610100808601519089015261012094850151801515868a015294909350915061329a9050565b5095880195935050908601906001016131ff565b509098975050505050505050565b5f8083601f8401126132cc575f80fd5b50813567ffffffffffffffff8111156132e3575f80fd5b6020830191508360208285010111156132fa575f80fd5b9250929050565b5f805f805f60808688031215613315575f80fd5b85359450602086013567ffffffffffffffff811115613332575f80fd5b61333e888289016132bc565b9699909850959660408101359660609091013595509350505050565b634e487b7160e01b5f52602160045260245ffd5b6002811061337e5761337e61335a565b9052565b6001600160a01b038d811682528c166020820152604081018b9052606081018a90526080810189905260a0810188905260c0810187905261018081016133cb60e083018861336e565b600586106133db576133db61335a565b856101008301528461012083015283610140830152826101608301529d9c50505050505050505050505050565b5f805f805f6060868803121561341c575f80fd5b853567ffffffffffffffff80821115613433575f80fd5b61343f89838a016132bc565b90975095506020880135915080821115613457575f80fd5b50613464888289016132bc565b96999598509660400135949350505050565b5f805f8060608587031215613489575f80fd5b84359350602085013567ffffffffffffffff8111156134a6575f80fd5b6134b2878288016132bc565b9598909750949560400135949350505050565b5f805f805f60a086880312156134d9575f80fd5b6134e28661308c565b945060208601359350604086013592506060860135915060808601356002811061350a575f80fd5b809150509295509295909350565b6020808252600b908201526a4e6f742070656e64696e6760a81b604082015260600190565b6020808252601b908201527f46696e616c20616d6f756e742065786365656473206275646765740000000000604082015260600190565b6020808252601a908201527f496e76616c69642070726f7669646572207369676e6174757265000000000000604082015260600190565b634e487b7160e01b5f52601160045260245ffd5b81810381811115612ced57612ced6135ab565b8082028115828204841417612ced57612ced6135ab565b5f8261360357634e487b7160e01b5f52601260045260245ffd5b500490565b5f60208284031215613618575f80fd5b815180151581146130c0575f80fd5b6020808252601690820152751499599d5b99081d1c985b9cd9995c8819985a5b195960521b604082015260600190565b80820180821115612ced57612ced6135ab565b6020808252600b908201526a27b7363c903830bab9b2b960a91b604082015260600190565b600181811c908216806136a357607f821691505b6020821081036136c157634e487b7160e01b5f52602260045260245ffd5b50919050565b634e487b7160e01b5f52603260045260245ffd5b5f600182016136ec576136ec6135ab565b5060010190565b6020808252601490820152731554d110c81d1c985b9cd9995c8819985a5b195960621b604082015260600190565b8681526bffffffffffffffffffffffff198660601b166020820152846034820152828460548301376054920191820152607401949350505050565b601f8211156129e457805f5260205f20601f840160051c810160208510156137815750805b601f840160051c820191505b818110156137a0575f815560010161378d565b5050505050565b815167ffffffffffffffff8111156137c1576137c1612f9a565b6137d5816137cf845461368f565b8461375c565b602080601f831160018114613808575f84156137f15750858301515b5f19600386901b1c1916600185901b17855561385f565b5f85815260208120601f198616915b8281101561383657888601518255948401946001909101908401613817565b508582101561385357878501515f19600388901b60f8161c191681555b505060018460011b0185555b505050505050565b81835281816020850137505f828201602090810191909152601f909101601f19169091010190565b6001600160a01b03851681526060602082018190525f906138b39083018587613867565b905082604083015295945050505050565b60208082526014908201527313db9b1e481c1c9bdd9a59195c881dd85b1b195d60621b604082015260600190565b8781526bffffffffffffffffffffffff198760601b166020820152848660348301375f858201603481015f815285878237506034940193840192909252505060540195945050505050565b602081525f613950602083018486613867565b949350505050565b67ffffffffffffffff83111561397057613970612f9a565b6139848361397e835461368f565b8361375c565b5f601f8411600181146139b5575f851561399e5750838201355b5f19600387901b1c1916600186901b1783556137a0565b5f83815260208120601f198716915b828110156139e457868501358255602094850194600190920191016139c4565b5086821015613a00575f1960f88860031b161c19848701351681555b505060018560011b0183555050505050565b828152604081016130c0602083018461336e56fe9b779b17422d0df92223018b32b4d1fa46e071723d6817e2486d003becc55f00a26469706673582212200743e0746d6cad2cd4b59757d96c08781e4c79d72f909512b888e68c8290809564736f6c63430008180033",
  "linkReferences": {},
  "deployedLinkReferences": {}
}