{
  "_format": "hh-sol-artifact-1",
  "contractName": "HiveRegistry",
  "sourceName": "contracts/HiveRegistry.sol",
  "abi": [
    {
      "inputs": [
        {
          "internalType": "address",
          "name": "_usdcToken",
          "type": "address"
        },
        {
          "internalType": "address",
          "name": "_slashTreasury",
          "type": "address"
        }
      ],
      "stateMutability": "nonpayable",
      "type": "constructor"
    },
    {
      "inputs": [],
      "name": "ECDSAInvalidSignature",
      "type": "error"
    },
    {
      "inputs": [
        {
          "internalType": "uint256",
          "name": "length",
          "type": "uint256"
        }
      ],
      "name": "ECDSAInvalidSignatureLength",
      "type": "error"
    },
    {
      "inputs": [
        {
          "internalType": "bytes32",
          "name": "s",
          "type": "bytes32"
        }
      ],
      "name": "ECDSAInvalidSignatureS",
      "type": "error"
    },
    {
      "inputs": [],
      "name": "EnforcedPause",
      "type": "error"
    },
    {
      "inputs": [],
      "name": "ExpectedPause",
      "type": "error"
    },
    {
      "inputs": [],
      "name": "ReentrancyGuardReentrantCall",
      "type": "error"
    },
    {
      "anonymous": false,
      "inputs": [
        {
          "indexed": true,
          "internalType": "uint256",
          "name": "modelId",
          "type": "uint256"
        },
        {
          "indexed": false,
          "internalType": "string",
          "name": "name",
          "type": "string"
        }
      ],
      "name": "ModelRegistered",
      "type": "event"
    },
    {
      "anonymous": false,
      "inputs": [
        {
          "indexed": false,
          "internalType": "address",
          "name": "account",
          "type": "address"
        }
      ],
      "name": "Paused",
      "type": "event"
    },
    {
      "anonymous": false,
      "inputs": [
        {
          "indexed": true,
          "internalType": "uint256",
          "name": "providerId",
          "type": "uint256"
        },
        {
          "indexed": true,
          "internalType": "uint256",
          "name": "modelId",
          "type": "uint256"
        },
        {
          "indexed": false,
          "internalType": "address",
          "name": "wallet",
          "type": "address"
        },
        {
          "indexed": false,
          "internalType": "string",
          "name": "endpoint",
          "type": "string"
        },
        {
          "indexed": false,
          "internalType": "uint256",
          "name": "pricePerToken",
          "type": "uint256"
        }
      ],
      "name": "ProviderRegistered",
      "type": "event"
    },
    {
      "anonymous": false,
      "inputs": [
        {
          "indexed": true,
          "internalType": "uint256",
          "name": "providerId",
          "type": "uint256"
        },
        {
          "indexed": false,
          "internalType": "uint256",
          "name": "slashCount",
          "type": "uint256"
        },
        {
          "indexed": false,
          "internalType": "uint256",
          "name": "remainingStake",
          "type": "uint256"
        }
      ],
      "name": "ProviderSlashed",
      "type": "event"
    },
    {
      "anonymous": false,
      "inputs": [
        {
          "indexed": true,
          "internalType": "uint256",
          "name": "providerId",
          "type": "uint256"
        },
        {
          "indexed": false,
          "internalType": "uint256",
          "name": "amount",
          "type": "uint256"
        },
        {
          "indexed": false,
          "internalType": "uint256",
          "name": "totalStake",
          "type": "uint256"
        }
      ],
      "name": "ProviderStaked",
      "type": "event"
    },
    {
      "anonymous": false,
      "inputs": [
        {
          "indexed": true,
          "internalType": "uint256",
          "name": "taskId",
          "type": "uint256"
        }
      ],
      "name": "TaskExpired",
      "type": "event"
    },
    {
      "anonymous": false,
      "inputs": [
        {
          "indexed": true,
          "internalType": "uint256",
          "name": "taskId",
          "type": "uint256"
        },
        {
          "indexed": false,
          "internalType": "uint256",
          "name": "finalAmount",
          "type": "uint256"
        }
      ],
      "name": "TaskForceClaimed",
      "type": "event"
    },
    {
      "anonymous": false,
      "inputs": [
        {
          "indexed": true,
          "internalType": "uint256",
          "name": "taskId",
          "type": "uint256"
        },
        {
          "indexed": false,
          "internalType": "uint256",
          "name": "finalAmount",
          "type": "uint256"
        }
      ],
      "name": "TaskRejected",
      "type": "event"
    },
    {
      "anonymous": false,
      "inputs": [
        {
          "indexed": true,
          "internalType": "uint256",
          "name": "taskId",
          "type": "uint256"
        },
        {
          "indexed": true,
          "internalType": "address",
          "name": "client",
          "type": "address"
        },
        {
          "indexed": true,
          "internalType": "uint256",
          "name": "providerId",
          "type": "uint256"
        },
        {
          "indexed": false,
          "internalType": "uint256",
          "name": "maxBudget",
          "type": "uint256"
        },
        {
          "indexed": false,
          "internalType": "enum HiveRegistry.TaskMode",
          "name": "mode",
          "type": "uint8"
        }
      ],
      "name": "TaskRequested",
      "type": "event"
    },
    {
      "anonymous": false,
      "inputs": [
        {
          "indexed": true,
          "internalType": "uint256",
          "name": "taskId",
          "type": "uint256"
        },
        {
          "indexed": false,
          "internalType": "uint256",
          "name": "finalAmount",
          "type": "uint256"
        },
        {
          "indexed": false,
          "internalType": "bytes32",
          "name": "resultHash",
          "type": "bytes32"
        }
      ],
      "name": "TaskSettled",
      "type": "event"
    },
    {
      "anonymous": false,
      "inputs": [
        {
          "indexed": false,
          "internalType": "address",
          "name": "account",
          "type": "address"
        }
      ],
      "name": "Unpaused",
      "type": "event"
    },
    {
      "inputs": [],
      "name": "MAX_SLASH_COUNT",
      "outputs": [
        {
          "internalType": "uint256",
          "name": "",
          "type": "uint256"
        }
      ],
      "stateMutability": "view",
      "type": "function"
    },
    {
      "inputs": [],
      "name": "MINIMUM_STAKE",
      "outputs": [
        {
          "internalType": "uint256",
          "name": "",
          "type": "uint256"
        }
      ],
      "stateMutability": "view",
      "type": "function"
    },
    {
      "inputs": [
        {
          "internalType": "address",
          "name": "client",
          "type": "address"
        },
        {
          "internalType": "uint256",
          "name": "providerId",
          "type": "uint256"
        },
        {
          "internalType": "uint256",
          "name": "maxBudget",
          "type": "uint256"
        },
        {
          "internalType": "bytes32",
          "name": "promptHash",
          "type": "bytes32"
        },
        {
          "internalType": "enum HiveRegistry.TaskMode",
          "name": "mode",
          "type": "uint8"
        }
      ],
      "name": "createTask",
      "outputs": [
        {
          "internalType": "uint256",
          "name": "",
          "type": "uint256"
        }
      ],
      "stateMutability": "nonpayable",
      "type": "function"
    },
    {
      "inputs": [
        {
          "internalType": "uint256",
          "name": "providerId",
          "type": "uint256"
        }
      ],
      "name": "deactivateProvider",
      "outputs": [],
      "stateMutability": "nonpayable",
      "type": "function"
    },
    {
      "inputs": [
        {
          "internalType": "uint256",
          "name": "taskId",
          "type": "uint256"
        }
      ],
      "name": "expireTask",
      "outputs": [],
      "stateMutability": "nonpayable",
      "type": "function"
    },
    {
      "inputs": [
        {
          "internalType": "uint256",
          "name": "taskId",
          "type": "uint256"
        },
        {
          "internalType": "uint256",
          "name": "finalAmount",
          "type": "uint256"
        },
        {
          "internalType": "bytes32",
          "name": "resultHash",
          "type": "bytes32"
        },
        {
          "internalType": "bytes",
          "name": "signature",
          "type": "bytes"
        }
      ],
      "name": "forceClaim",
      "outputs": [],
      "stateMutability": "nonpayable",
      "type": "function"
    },
    {
      "inputs": [
        {
          "internalType": "uint256",
          "name": "modelId",
          "type": "uint256"
        }
      ],
      "name": "getActiveProviders",
      "outputs": [
        {
          "components": [
            {
              "internalType": "uint256",
              "name": "id",
              "type": "uint256"
            },
            {
              "internalType": "uint256",
              "name": "modelId",
              "type": "uint256"
            },
            {
              "internalType": "address",
              "name": "wallet",
              "type": "address"
            },
            {
              "internalType": "string",
              "name": "endpoint",
              "type": "string"
            },
            {
              "internalType": "uint256",
              "name": "pricePerToken",
              "type": "uint256"
            },
            {
              "internalType": "uint256",
              "name": "stakedAmount",
              "type": "uint256"
            },
            {
              "internalType": "uint256",
              "name": "totalTasksCompleted",
              "type": "uint256"
            },
            {
              "internalType": "uint256",
              "name": "totalTasksFailed",
              "type": "uint256"
            },
            {
              "internalType": "uint256",
              "name": "slashCount",
              "type": "uint256"
            },
            {
              "internalType": "bool",
              "name": "isActive",
              "type": "bool"
            }
          ],
          "internalType": "struct HiveRegistry.Provider[]",
          "name": "",
          "type": "tuple[]"
        }
      ],
      "stateMutability": "view",
      "type": "function"
    },
    {
      "inputs": [
        {
          "internalType": "uint256",
          "name": "",
          "type": "uint256"
        },
        {
          "internalType": "uint256",
          "name": "",
          "type": "uint256"
        }
      ],
      "name": "modelProviders",
      "outputs": [
        {
          "internalType": "uint256",
          "name": "",
          "type": "uint256"
        }
      ],
      "stateMutability": "view",
      "type": "function"
    },
    {
      "inputs": [
        {
          "internalType": "uint256",
          "name": "",
          "type": "uint256"
        }
      ],
      "name": "models",
      "outputs": [
        {
          "internalType": "uint256",
          "name": "id",
          "type": "uint256"
        },
        {
          "internalType": "string",
          "name": "name",
          "type": "string"
        },
        {
          "internalType": "string",
          "name": "niche",
          "type": "string"
        },
        {
          "internalType": "uint256",
          "name": "maxPricePerToken",
          "type": "uint256"
        },
        {
          "internalType": "bool",
          "name": "isActive",
          "type": "bool"
        }
      ],
      "stateMutability": "view",
      "type": "function"
    },
    {
      "inputs": [],
      "name": "nextModelId",
      "outputs": [
        {
          "internalType": "uint256",
          "name": "",
          "type": "uint256"
        }
      ],
      "stateMutability": "view",
      "type": "function"
    },
    {
      "inputs": [],
      "name": "nextProviderId",
      "outputs": [
        {
          "internalType": "uint256",
          "name": "",
          "type": "uint256"
        }
      ],
      "stateMutability": "view",
      "type": "function"
    },
    {
      "inputs": [],
      "name": "nextTaskId",
      "outputs": [
        {
          "internalType": "uint256",
          "name": "",
          "type": "uint256"
        }
      ],
      "stateMutability": "view",
      "type": "function"
    },
    {
      "inputs": [],
      "name": "pause",
      "outputs": [],
      "stateMutability": "nonpayable",
      "type": "function"
    },
    {
      "inputs": [],
      "name": "paused",
      "outputs": [
        {
          "internalType": "bool",
          "name": "",
          "type": "bool"
        }
      ],
      "stateMutability": "view",
      "type": "function"
    },
    {
      "inputs": [],
      "name": "pauser",
      "outputs": [
        {
          "internalType": "address",
          "name": "",
          "type": "address"
        }
      ],
      "stateMutability": "view",
      "type": "function"
    },
    {
      "inputs": [],
      "name": "platformFeeBps",
      "outputs": [
        {
          "internalType": "uint256",
          "name": "",
          "type": "uint256"
        }
      ],
      "stateMutability": "view",
      "type": "function"
    },
    {
      "inputs": [
        {
          "internalType": "uint256",
          "name": "",
          "type": "uint256"
        }
      ],
      "name": "providerPendingTasks",
      "outputs": [
        {
          "internalType": "uint256",
          "name": "",
          "type": "uint256"
        }
      ],
      "stateMutability": "view",
      "type": "function"
    },
    {
      "inputs": [
        {
          "internalType": "uint256",
          "name": "",
          "type": "uint256"
        }
      ],
      "name": "providers",
      "outputs": [
        {
          "internalType": "uint256",
          "name": "id",
          "type": "uint256"
        },
        {
          "internalType": "uint256",
          "name": "modelId",
          "type": "uint256"
        },
        {
          "internalType": "address",
          "name": "wallet",
          "type": "address"
        },
        {
          "internalType": "string",
          "name": "endpoint",
          "type": "string"
        },
        {
          "internalType": "uint256",
          "name": "pricePerToken",
          "type": "uint256"
        },
        {
          "internalType": "uint256",
          "name": "stakedAmount",
          "type": "uint256"
        },
        {
          "internalType": "uint256",
          "name": "totalTasksCompleted",
          "type": "uint256"
        },
        {
          "internalType": "uint256",
          "name": "totalTasksFailed",
          "type": "uint256"
        },
        {
          "internalType": "uint256",
          "name": "slashCount",
          "type": "uint256"
        },
        {
          "internalType": "bool",
          "name": "isActive",
          "type": "bool"
        }
      ],
      "stateMutability": "view",
      "type": "function"
    },
    {
      "inputs": [
        {
          "internalType": "string",
          "name": "name",
          "type": "string"
        },
        {
          "internalType": "string",
          "name": "niche",
          "type": "string"
        },
        {
          "internalType": "uint256",
          "name": "maxPricePerToken",
          "type": "uint256"
        }
      ],
      "name": "registerModel",
      "outputs": [
        {
          "internalType": "uint256",
          "name": "",
          "type": "uint256"
        }
      ],
      "stateMutability": "nonpayable",
      "type": "function"
    },
    {
      "inputs": [
        {
          "internalType": "uint256",
          "name": "modelId",
          "type": "uint256"
        },
        {
          "internalType": "string",
          "name": "endpoint",
          "type": "string"
        },
        {
          "internalType": "uint256",
          "name": "pricePerToken",
          "type": "uint256"
        },
        {
          "internalType": "uint256",
          "name": "initialStake",
          "type": "uint256"
        }
      ],
      "name": "registerProvider",
      "outputs": [
        {
          "internalType": "uint256",
          "name": "",
          "type": "uint256"
        }
      ],
      "stateMutability": "nonpayable",
      "type": "function"
    },
    {
      "inputs": [
        {
          "internalType": "uint256",
          "name": "taskId",
          "type": "uint256"
        },
        {
          "internalType": "uint256",
          "name": "finalAmount",
          "type": "uint256"
        },
        {
          "internalType": "bytes32",
          "name": "resultHash",
          "type": "bytes32"
        },
        {
          "internalType": "bytes",
          "name": "signature",
          "type": "bytes"
        }
      ],
      "name": "rejectTask",
      "outputs": [],
      "stateMutability": "nonpayable",
      "type": "function"
    },
    {
      "inputs": [
        {
          "internalType": "uint256",
          "name": "newFeeBps",
          "type": "uint256"
        }
      ],
      "name": "setPlatformFeeBps",
      "outputs": [],
      "stateMutability": "nonpayable",
      "type": "function"
    },
    {
      "inputs": [
        {
          "internalType": "uint256",
          "name": "taskId",
          "type": "uint256"
        },
        {
          "internalType": "uint256",
          "name": "finalAmount",
          "type": "uint256"
        },
        {
          "internalType": "bytes32",
          "name": "resultHash",
          "type": "bytes32"
        },
        {
          "internalType": "bytes",
          "name": "signature",
          "type": "bytes"
        }
      ],
      "name": "settleTask",
      "outputs": [],
      "stateMutability": "nonpayable",
      "type": "function"
    },
    {
      "inputs": [],
      "name": "slashTreasury",
      "outputs": [
        {
          "internalType": "address",
          "name": "",
          "type": "address"
        }
      ],
      "stateMutability": "view",
      "type": "function"
    },
    {
      "inputs": [
        {
          "internalType": "uint256",
          "name": "providerId",
          "type": "uint256"
        },
        {
          "internalType": "uint256",
          "name": "amount",
          "type": "uint256"
        }
      ],
      "name": "stakeForProvider",
      "outputs": [],
      "stateMutability": "nonpayable",
      "type": "function"
    },
    {
      "inputs": [
        {
          "internalType": "uint256",
          "name": "",
          "type": "uint256"
        }
      ],
      "name": "tasks",
      "outputs": [
        {
          "internalType": "address",
          "name": "client",
          "type": "address"
        },
        {
          "internalType": "address",
          "name": "orchestrator",
          "type": "address"
        },
        {
          "internalType": "uint256",
          "name": "providerId",
          "type": "uint256"
        },
        {
          "internalType": "uint256",
          "name": "maxBudget",
          "type": "uint256"
        },
        {
          "internalType": "uint256",
          "name": "finalAmount",
          "type": "uint256"
        },
        {
          "internalType": "bytes32",
          "name": "promptHash",
          "type": "bytes32"
        },
        {
          "internalType": "bytes32",
          "name": "resultHash",
          "type": "bytes32"
        },
        {
          "internalType": "enum HiveRegistry.TaskMode",
          "name": "mode",
          "type": "uint8"
        },
        {
          "internalType": "enum HiveRegistry.TaskStatus",
          "name": "status",
          "type": "uint8"
        },
        {
          "internalType": "uint256",
          "name": "createdAt",
          "type": "uint256"
        },
        {
          "internalType": "uint256",
          "name": "providerDeadline",
          "type": "uint256"
        },
        {
          "internalType": "uint256",
          "name": "userDeadline",
          "type": "uint256"
        }
      ],
      "stateMutability": "view",
      "type": "function"
    },
    {
      "inputs": [
        {
          "internalType": "address",
          "name": "newPauser",
          "type": "address"
        }
      ],
      "name": "transferPauser",
      "outputs": [],
      "stateMutability": "nonpayable",
      "type": "function"
    },
    {
      "inputs": [],
      "name": "unpause",
      "outputs": [],
      "stateMutability": "nonpayable",
      "type": "function"
    },
    {
      "inputs": [
        {
          "internalType": "uint256",
          "name": "providerId",
          "type": "uint256"
        }
      ],
      "name": "unstakeFromProvider",
      "outputs": [],
      "stateMutability": "nonpayable",
      "type": "function"
    },
    {
      "inputs": [
        {
          "internalType": "uint256",
          "name": "providerId",
          "type": "uint256"
        },
        {
          "internalType": "string",
          "name": "endpoint",
          "type": "string"
        },
        {
          "internalType": "uint256",
          "name": "pricePerToken",
          "type": "uint256"
        }
      ],
      "name": "updateProviderConfig",
      "outputs": [],
      "stateMutability": "nonpayable",
      "type": "function"
    },
    {
      "inputs": [],
      "name": "usdcToken",
      "outputs": [
        {
          "internalType": "contract IERC20",
          "name": "",
          "type": "address"
        }
      ],
      "stateMutability": "view",
      "type": "function"
    },
    {
      "inputs": [
        {
          "internalType": "uint256",
          "name": "taskId",
          "type": "uint256"
        },
        {
          "internalType": "uint256",
          "name": "finalAmount",
          "type": "uint256"
        },
        {
          "internalType": "bytes32",
          "name": "resultHash",
          "type": "bytes32"
        },
        {
          "internalType": "bytes",
          "name": "signature",
          "type": "bytes"
        }
      ],
      "name": "verifySignature",
      "outputs": [
        {
          "internalType": "bool",
          "name": "",
          "type": "bool"
        }
      ],
      "stateMutability": "view",
      "type": "function"
    }
  ],
  "bytecode": "0x60c06040526101f460015534801562000016575f80fd5b5060405162003b0638038062003b0683398101604081905262000039916200015b565b60017f9b779b17422d0df92223018b32b4d1fa46e071723d6817e2486d003becc55f00556001600160a01b038216620000b95760405162461bcd60e51b815260206004820152601560248201527f496e76616c696420746f6b656e2061646472657373000000000000000000000060448201526064015b60405180910390fd5b6001600160a01b038116620001115760405162461bcd60e51b815260206004820152601860248201527f496e76616c6964207472656173757279206164647265737300000000000000006044820152606401620000b0565b6001600160a01b039182166080521660a0525f8054610100600160a81b031916336101000217905562000191565b80516001600160a01b038116811462000156575f80fd5b919050565b5f80604083850312156200016d575f80fd5b62000178836200013f565b915062000188602084016200013f565b90509250929050565b60805160a0516138ea6200021c5f395f8181610444015281816108710152818161276b015261293401525f818161020d0152818161079c015281816108a001528181610984015281816110730152818161172c01528181611dbd015281816120cf015281816125d10152818161279a0152818161296301528181612a4a0152612b2e01526138ea5ff3fe608060405234801561000f575f80fd5b50600436106101e7575f3560e01c806378bbe6fa11610109578063b55711441161009e578063e472ae8b1161006e578063e472ae8b146104e4578063ea288221146104ed578063fc9b073514610500578063fdc3d8d714610513575f80fd5b8063b5571144146104a3578063c580c942146104b6578063c63c0fda146104c9578063cb8f4c4a146104dc575f80fd5b806399580651116100d9578063995806511461043f5780639fd0506d14610466578063a2d785481461047d578063b44965e614610490575f80fd5b806378bbe6fa1461036f5780638456cb591461038e5780638720f732146103965780638d977672146103a9575f80fd5b806350f3fc811161017f57806362ecc47a1161014f57806362ecc47a14610305578063654ab4c6146103185780636a030ca91461032b57806370df36831461034f575f80fd5b806350f3fc81146102b657806351a8dbcf146102df578063540d2748146102e85780635c975abb146102fb575f80fd5b806322dcd13e116101ba57806322dcd13e1461026f5780633179b6c6146102785780633f4ba83a1461029b5780634421ea21146102a3575f80fd5b806308dbbb03146101eb57806311eac8551461020857806317f423a8146102475780631ecf38d61461025c575b5f80fd5b6101f5620f424081565b6040519081526020015b60405180910390f35b61022f7f000000000000000000000000000000000000000000000000000000000000000081565b6040516001600160a01b0390911681526020016101ff565b61025a610255366004612ea2565b61051c565b005b61025a61026a366004612ea2565b610a67565b6101f560015481565b61028b610286366004612ea2565b610ca8565b60405190151581526020016101ff565b61025a610d62565b61025a6102b1366004612f84565b610d9a565b6102c96102c4366004612fa4565b610def565b6040516101ff9a99989796959493929190612ffe565b6101f560045481565b61025a6102f6366004612fa4565b610ed3565b5f5460ff1661028b565b61025a610313366004612fa4565b610f52565b6101f5610326366004613068565b61113f565b61033e610339366004612fa4565b61116a565b6040516101ff959493929190613088565b61036261035d366004612fa4565b6112a8565b6040516101ff91906130cc565b6101f561037d366004612fa4565b60096020525f908152604090205481565b61025a6115d4565b6101f56103a43660046131f5565b61160a565b6104276103b7366004612fa4565b600860208190525f918252604090912080546001820154600283015460038401546004850154600586015460068701546007880154988801546009890154600a909901546001600160a01b039889169a97909816989597949693959294919360ff8082169461010090920416928c565b6040516101ff9c9b9a99989796959493929190613276565b61022f7f000000000000000000000000000000000000000000000000000000000000000081565b5f5461022f9061010090046001600160a01b031681565b61025a61048b366004612ea2565b6119c1565b61025a61049e366004612fa4565b611c91565b6101f56104b13660046132fc565b611e5d565b61025a6104c4366004612fa4565b611fac565b61025a6104d7366004613068565b612020565b6101f5600581565b6101f560025481565b61025a6104fb36600461336a565b6121d6565b6101f561050e3660046133b9565b612282565b6101f560075481565b6105246126b8565b61052c6126d3565b5f848152600860205260408120906007820154610100900460ff1660048111156105585761055861324e565b1461057e5760405162461bcd60e51b81526004016105759061340c565b60405180910390fd5b5f600782015460ff1660018111156105985761059861324e565b146105e55760405162461bcd60e51b815260206004820152601c60248201527f43616e6e6f742072656a656374204155544f4d41544544207461736b000000006044820152606401610575565b60018101546001600160a01b0316331480610609575080546001600160a01b031633145b6106615760405162461bcd60e51b815260206004820152602360248201527f4f6e6c79206f7263686573747261746f722f636c69656e742063616e2072656a6044820152621958dd60ea1b6064820152608401610575565b80600301548411156106855760405162461bcd60e51b815260040161057590613431565b61069185858585610ca8565b6106ad5760405162461bcd60e51b815260040161057590613468565b60078101805461ff001916610200179055600481018490556006810183905560028101545f9081526009602052604081208054600192906106ef9084906134b3565b90915550506002810154610702906126f6565b5f612710610712866107d06134c6565b61071c91906134dd565b90505f61271061072e876101f46134c6565b61073891906134dd565b90505f8183856003015461074c91906134b3565b61075691906134b3565b60028501545f908152600560205260409020909150831561085457600281015460405163a9059cbb60e01b81526001600160a01b039182166004820152602481018690527f00000000000000000000000000000000000000000000000000000000000000009091169063a9059cbb906044016020604051808303815f875af11580156107e4573d5f803e3d5ffd5b505050506040513d601f19601f8201168201806040525081019061080891906134fc565b6108545760405162461bcd60e51b815260206004820152601b60248201527f436f6d7075746520666565207472616e73666572206661696c656400000000006044820152606401610575565b82156109565760405163a9059cbb60e01b81526001600160a01b037f000000000000000000000000000000000000000000000000000000000000000081166004830152602482018590527f0000000000000000000000000000000000000000000000000000000000000000169063a9059cbb906044016020604051808303815f875af11580156108e6573d5f803e3d5ffd5b505050506040513d601f19601f8201168201806040525081019061090a91906134fc565b6109565760405162461bcd60e51b815260206004820152601b60248201527f4469737075746520666565207472616e73666572206661696c656400000000006044820152606401610575565b8115610a0c57845460405163a9059cbb60e01b81526001600160a01b039182166004820152602481018490527f00000000000000000000000000000000000000000000000000000000000000009091169063a9059cbb906044016020604051808303815f875af11580156109cc573d5f803e3d5ffd5b505050506040513d601f19601f820116820180604052508101906109f091906134fc565b610a0c5760405162461bcd60e51b81526004016105759061351b565b887f275ae23cda4ee67ab6630a18099fc72de52fb12f66144c43bc89fa6464d1568e89604051610a3e91815260200190565b60405180910390a25050505050610a6160015f8051602061389583398151915255565b50505050565b610a6f6126b8565b610a776126d3565b5f848152600860205260408120906007820154610100900460ff166004811115610aa357610aa361324e565b14610ac05760405162461bcd60e51b81526004016105759061340c565b8060030154841115610ae45760405162461bcd60e51b815260040161057590613431565b610af085858585610ca8565b610b0c5760405162461bcd60e51b815260040161057590613468565b5f600782015460ff166001811115610b2657610b2661324e565b03610bb15760018101546001600160a01b0316331480610b4f575080546001600160a01b031633145b610bb15760405162461bcd60e51b815260206004820152602d60248201527f4f6e6c79206f7263686573747261746f722f636c69656e742063616e2073657460448201526c746c652043484154207461736b60981b6064820152608401610575565b60078101805461ff001916610100179055600481018490556006810183905560028101545f908152600960205260408120805460019290610bf39084906134b3565b909155505060028101545f908152600560205260408120600601805460019290610c1e90849061354b565b909155505060038101545f90610c359086906134b3565b60028301548354919250610c5591879084906001600160a01b03166128dd565b604080518681526020810186905287917f596c80d8829217ecd71bba7fdd9326afff6a6a1aacbb6d0c53c7e392469d0514910160405180910390a25050610a6160015f8051602061389583398151915255565b5f84815260086020908152604080832060028101548452600583528184208251938401899052918301879052606083018690529183906080016040516020818303038152906040528051906020012090505f610d30827f19457468657265756d205369676e6564204d6573736167653a0a3332000000005f908152601c91909152603c902090565b60028401549091506001600160a01b0316610d4b8288612bbd565b6001600160a01b0316149998505050505050505050565b5f5461010090046001600160a01b03163314610d905760405162461bcd60e51b81526004016105759061355e565b610d98612be7565b565b5f5461010090046001600160a01b03163314610dc85760405162461bcd60e51b81526004016105759061355e565b5f80546001600160a01b0390921661010002610100600160a81b0319909216919091179055565b60056020525f90815260409020805460018201546002830154600384018054939492936001600160a01b039092169291610e2890613583565b80601f0160208091040260200160405190810160405280929190818152602001828054610e5490613583565b8015610e9f5780601f10610e7657610100808354040283529160200191610e9f565b820191905f5260205f20905b815481529060010190602001808311610e8257829003601f168201915b5050506004840154600585015460068601546007870154600888015460099098015496979396929550909350919060ff168a565b5f81815260056020526040902060028101546001600160a01b0316331480610f0957505f5461010090046001600160a01b031633145b610f445760405162461bcd60e51b815260206004820152600c60248201526b155b985d5d1a1bdc9a5e995960a21b6044820152606401610575565b600901805460ff1916905550565b610f5a6126b8565b610f626126d3565b5f818152600860205260408120906007820154610100900460ff166004811115610f8e57610f8e61324e565b14610fab5760405162461bcd60e51b81526004016105759061340c565b80600901544211610ffe5760405162461bcd60e51b815260206004820152601c60248201527f50726f766964657220646561646c696e65206e6f7420706173736564000000006044820152606401610575565b60078101805461ff00191661030017905560028101545f9081526009602052604081208054600192906110329084906134b3565b90915550506002810154611045906126f6565b8054600382015460405163a9059cbb60e01b81526001600160a01b03928316600482015260248101919091527f00000000000000000000000000000000000000000000000000000000000000009091169063a9059cbb906044016020604051808303815f875af11580156110bb573d5f803e3d5ffd5b505050506040513d601f19601f820116820180604052508101906110df91906134fc565b6110fb5760405162461bcd60e51b81526004016105759061351b565b60405182907f7c2ecd5e2b7188ac57f3a370681639cb447c9cbfbbbace0c070adea6c73eaa54905f90a25061113c60015f8051602061389583398151915255565b50565b6006602052815f5260405f208181548110611158575f80fd5b905f5260205f20015f91509150505481565b60036020525f90815260409020805460018201805491929161118b90613583565b80601f01602080910402602001604051908101604052809291908181526020018280546111b790613583565b80156112025780601f106111d957610100808354040283529160200191611202565b820191905f5260205f20905b8154815290600101906020018083116111e557829003601f168201915b50505050509080600201805461121790613583565b80601f016020809104026020016040519081016040528092919081815260200182805461124390613583565b801561128e5780601f106112655761010080835404028352916020019161128e565b820191905f5260205f20905b81548152906001019060200180831161127157829003601f168201915b50505050600383015460049093015491929160ff16905085565b5f8181526006602090815260408083208054825181850281018501909352808352606094938301828280156112fa57602002820191905f5260205f20905b8154815260200190600101908083116112e6575b505050505090505f805b825181101561135d5760055f848381518110611322576113226135bb565b60209081029190910181015182528101919091526040015f206009015460ff16156113555781611351816135cf565b9250505b600101611304565b505f8167ffffffffffffffff81111561137857611378612e8e565b60405190808252806020026020018201604052801561140157816020015b6113ee6040518061014001604052805f81526020015f81526020015f6001600160a01b03168152602001606081526020015f81526020015f81526020015f81526020015f81526020015f81526020015f151581525090565b8152602001906001900390816113965790505b5090505f805b84518110156115c95760055f868381518110611425576114256135bb565b60209081029190910181015182528101919091526040015f206009015460ff16156115c15760055f86838151811061145f5761145f6135bb565b602002602001015181526020019081526020015f20604051806101400160405290815f820154815260200160018201548152602001600282015f9054906101000a90046001600160a01b03166001600160a01b03166001600160a01b031681526020016003820180546114d190613583565b80601f01602080910402602001604051908101604052809291908181526020018280546114fd90613583565b80156115485780601f1061151f57610100808354040283529160200191611548565b820191905f5260205f20905b81548152906001019060200180831161152b57829003601f168201915b505050918352505060048201546020820152600582015460408201526006820154606082015260078201546080820152600882015460a082015260099091015460ff16151560c09091015283518490849081106115a7576115a76135bb565b602002602001018190525081806115bd906135cf565b9250505b600101611407565b509095945050505050565b5f5461010090046001600160a01b031633146116025760405162461bcd60e51b81526004016105759061355e565b610d98612c38565b5f6116136126b8565b61161b6126d3565b5f8681526003602052604090206004015460ff1661166c5760405162461bcd60e51b815260206004820152600e60248201526d4d6f64656c20696e61637469766560901b6044820152606401610575565b5f86815260036020819052604090912001548311156116c15760405162461bcd60e51b81526020600482015260116024820152700507269636520657863656564732063617607c1b6044820152606401610575565b620f424082101561170a5760405162461bcd60e51b81526020600482015260136024820152725374616b652062656c6f77206d696e696d756d60681b6044820152606401610575565b6040516323b872dd60e01b8152336004820152306024820152604481018390527f00000000000000000000000000000000000000000000000000000000000000006001600160a01b0316906323b872dd906064016020604051808303815f875af115801561177a573d5f803e3d5ffd5b505050506040513d601f19601f8201168201806040525081019061179e91906134fc565b6117ba5760405162461bcd60e51b8152600401610575906135e7565b600480545f91826117ca836135cf565b919050559050604051806101400160405280828152602001888152602001336001600160a01b0316815260200187878080601f0160208091040260200160405190810160405280939291908181526020018383808284375f9201829052509385525050506020808301889052604080840188905260608085018490526080850184905260a08501849052600160c09095018590528684526005835292819020855181559185015193820193909355918301516002830180546001600160a01b0319166001600160a01b0390921691909117905582015160038201906118af9082613660565b506080820151600482015560a0820151600582015560c082015160068083019190915560e083015160078301556101008301516008830155610120909201516009909101805460ff19169115159190911790555f8881526020918252604080822080546001810182559083529290912090910182905551879082907f526f4f277a94b09231d2a19b5ad0935de82bb96a2e05463a4a3359b5190ead9e9061195d9033908b908b908b90613748565b60405180910390a3604080518481526020810185905282917ff3de9696cc92c479959092d3f1f34e399ad497f7d8cbbaddc43530e91a6225e9910160405180910390a290506119b860015f8051602061389583398151915255565b95945050505050565b6119c96126b8565b6119d16126d3565b5f848152600860205260408120906007820154610100900460ff1660048111156119fd576119fd61324e565b14611a1a5760405162461bcd60e51b81526004016105759061340c565b5f600782015460ff166001811115611a3457611a3461324e565b14611a815760405162461bcd60e51b815260206004820181905260248201527f4f6e6c792043484154207461736b73206861766520666f72636520636c61696d6044820152606401610575565b80600a01544211611ad45760405162461bcd60e51b815260206004820152601860248201527f5573657220646561646c696e65206e6f742070617373656400000000000000006044820152606401610575565b8060030154841115611af85760405162461bcd60e51b815260040161057590613431565b611b0485858585610ca8565b611b205760405162461bcd60e51b815260040161057590613468565b6002818101545f908152600560205260409020908101546001600160a01b03163314611b9a5760405162461bcd60e51b8152602060048201526024808201527f4f6e6c792070726f76696465722077616c6c65742063616e20666f72636520636044820152636c61696d60e01b6064820152608401610575565b60078201805461ff001916610400179055600482018590556006820184905560028201545f908152600960205260408120805460019290611bdc9084906134b3565b909155505060028201545f908152600560205260408120600601805460019290611c0790849061354b565b909155505060038201545f90611c1e9087906134b3565b60028401548454919250611c3e91889084906001600160a01b03166128dd565b867fb32dc5e545a2669745426c67ec8ceb7d94cc82c88d1ac33650b0526c9077e87987604051611c7091815260200190565b60405180910390a2505050610a6160015f8051602061389583398151915255565b611c996126b8565b611ca16126d3565b5f81815260056020526040902060028101546001600160a01b03163314611cda5760405162461bcd60e51b81526004016105759061377d565b600981015460ff161580611cf957505f82815260096020526040902054155b611d455760405162461bcd60e51b815260206004820181905260248201527f43616e6e6f7420756e7374616b6520696620616374697665206f7220627573796044820152606401610575565b600581015480611d8c5760405162461bcd60e51b81526020600482015260126024820152714e6f7468696e6720746f20756e7374616b6560701b6044820152606401610575565b5f6005830155600282015460405163a9059cbb60e01b81526001600160a01b039182166004820152602481018390527f00000000000000000000000000000000000000000000000000000000000000009091169063a9059cbb906044016020604051808303815f875af1158015611e05573d5f803e3d5ffd5b505050506040513d601f19601f82011682018060405250810190611e2991906134fc565b611e455760405162461bcd60e51b8152600401610575906135e7565b505061113c60015f8051602061389583398151915255565b600280545f9182919082611e70836135cf565b9190505590506040518060a0016040528082815260200188888080601f0160208091040260200160405190810160405280939291908181526020018383808284375f92019190915250505090825250604080516020601f8901819004810282018101909252878152918101919088908890819084018382808284375f920182905250938552505050602080830187905260016040938401819052858352600382529290912083518155908301519091820190611f2c9082613660565b5060408201516002820190611f419082613660565b50606082015160038201556080909101516004909101805460ff191691151591909117905560405181907f0cd2818d3e63397d2c5e8721c1379a859301b4487868589e3738d0ccc9769c2e90611f9a908a908a906137ab565b60405180910390a29695505050505050565b5f5461010090046001600160a01b03163314611fda5760405162461bcd60e51b81526004016105759061355e565b6107d081111561201b5760405162461bcd60e51b815260206004820152600c60248201526b08ccaca40e8dede40d0d2ced60a31b6044820152606401610575565b600155565b6120286126b8565b6120306126d3565b5f81116120745760405162461bcd60e51b81526020600482015260126024820152710416d6f756e74206d757374206265203e20360741b6044820152606401610575565b5f82815260056020526040902060028101546001600160a01b031633146120ad5760405162461bcd60e51b81526004016105759061377d565b6040516323b872dd60e01b8152336004820152306024820152604481018390527f00000000000000000000000000000000000000000000000000000000000000006001600160a01b0316906323b872dd906064016020604051808303815f875af115801561211d573d5f803e3d5ffd5b505050506040513d601f19601f8201168201806040525081019061214191906134fc565b61215d5760405162461bcd60e51b8152600401610575906135e7565b81816005015f828254612170919061354b565b9091555050600581015460405184917ff3de9696cc92c479959092d3f1f34e399ad497f7d8cbbaddc43530e91a6225e9916121b391868252602082015260400190565b60405180910390a2506121d260015f8051602061389583398151915255565b5050565b5f84815260056020526040902060028101546001600160a01b0316331461220f5760405162461bcd60e51b81526004016105759061377d565b60018101545f90815260036020819052604090912001548211156122695760405162461bcd60e51b81526020600482015260116024820152700507269636520657863656564732063617607c1b6044820152606401610575565b600381016122788486836137c6565b5060040155505050565b5f61228b6126b8565b6122936126d3565b6001600160a01b0386166122da5760405162461bcd60e51b815260206004820152600e60248201526d125b9d985b1a590818db1a595b9d60921b6044820152606401610575565b5f841161231f5760405162461bcd60e51b8152602060048201526013602482015272109d5919d95d080f880c081c995c5d5a5c9959606a1b6044820152606401610575565b5f858152600560205260409020600981015460ff166123745760405162461bcd60e51b815260206004820152601160248201527050726f766964657220696e61637469766560781b6044820152606401610575565b620f4240816005015410156123c35760405162461bcd60e51b8152602060048201526015602482015274141c9bdd9a59195c881d5b99195c8b5cdd185ad959605a1b6044820152606401610575565b600780545f91826123d3836135cf565b9091555090505f6123e64261070861354b565b90505f808660018111156123fc576123fc61324e565b14612407575f612414565b612414826201518061354b565b90506040518061018001604052808b6001600160a01b03168152602001336001600160a01b031681526020018a81526020018981526020015f81526020018881526020015f801b81526020018760018111156124725761247261324e565b81526020015f815242602080830191909152604080830186905260609283018590525f87815260088352819020845181546001600160a01b039182166001600160a01b0319918216178355938601516001808401805492909316919095161790559084015160028201559183015160038301556080830151600483015560a0830151600583015560c0830151600683015560e08301516007830180549192909160ff19169083818111156125285761252861324e565b0217905550610100828101516007830180549192909161ff001916908360048111156125565761255661324e565b02179055506101208201518160080155610140820151816009015561016082015181600a0155905050600160095f8b81526020019081526020015f205f8282546125a0919061354b565b90915550506040516323b872dd60e01b81526001600160a01b038b81166004830152306024830152604482018a90527f000000000000000000000000000000000000000000000000000000000000000016906323b872dd906064016020604051808303815f875af1158015612617573d5f803e3d5ffd5b505050506040513d601f19601f8201168201806040525081019061263b91906134fc565b6126575760405162461bcd60e51b8152600401610575906135e7565b888a6001600160a01b0316847fa4e088bd53f1a93ee40057b5712e06ba25a502ef94d3cdb958ef1581088309788b8a604051612694929190613880565b60405180910390a45090925050506119b860015f8051602061389583398151915255565b6126c0612c74565b60025f8051602061389583398151915255565b5f5460ff1615610d985760405163d93c066560e01b815260040160405180910390fd5b5f818152600560205260408120600781018054919260019261271990849061354b565b909155505060058101546207a12090811115612736575060058101545b80156128485780826005015f82825461274f91906134b3565b909155505060405163a9059cbb60e01b81526001600160a01b037f000000000000000000000000000000000000000000000000000000000000000081166004830152602482018390527f0000000000000000000000000000000000000000000000000000000000000000169063a9059cbb906044016020604051808303815f875af11580156127e0573d5f803e3d5ffd5b505050506040513d601f19601f8201168201806040525081019061280491906134fc565b6128485760405162461bcd60e51b815260206004820152601560248201527414db185cda081d1c985b9cd9995c8819985a5b1959605a1b6044820152606401610575565b6001826008015f82825461285c919061354b565b90915550506008820154600583015460405185927f2a972d3739156f3b9c26f9124f039d07bb12905f2063b349d0aac60f247d86b9926128a492918252602082015260400190565b60405180910390a2600582600801541015806128c65750620f42408260050154105b156128d85760098201805460ff191690555b505050565b5f848152600560205260408120600154909190612710906128fe90876134c6565b61290891906134dd565b90505f61291582876134b3565b90508115612a195760405163a9059cbb60e01b81526001600160a01b037f000000000000000000000000000000000000000000000000000000000000000081166004830152602482018490527f0000000000000000000000000000000000000000000000000000000000000000169063a9059cbb906044016020604051808303815f875af11580156129a9573d5f803e3d5ffd5b505050506040513d601f19601f820116820180604052508101906129cd91906134fc565b612a195760405162461bcd60e51b815260206004820152601c60248201527f506c6174666f726d20666565207472616e73666572206661696c6564000000006044820152606401610575565b8015612b0257600283015460405163a9059cbb60e01b81526001600160a01b039182166004820152602481018390527f00000000000000000000000000000000000000000000000000000000000000009091169063a9059cbb906044016020604051808303815f875af1158015612a92573d5f803e3d5ffd5b505050506040513d601f19601f82011682018060405250810190612ab691906134fc565b612b025760405162461bcd60e51b815260206004820152601860248201527f50726f7669646572207472616e73666572206661696c656400000000000000006044820152606401610575565b8415612bb45760405163a9059cbb60e01b81526001600160a01b038581166004830152602482018790527f0000000000000000000000000000000000000000000000000000000000000000169063a9059cbb906044016020604051808303815f875af1158015612b74573d5f803e3d5ffd5b505050506040513d601f19601f82011682018060405250810190612b9891906134fc565b612bb45760405162461bcd60e51b81526004016105759061351b565b50505050505050565b5f805f80612bcb8686612ca3565b925092509250612bdb8282612cec565b50909150505b92915050565b612bef612da4565b5f805460ff191690557f5db9ee0a495bf2e6ff9c91a7834c1ba4fdd244a5e8aa4e537bd38aeae4b073aa335b6040516001600160a01b03909116815260200160405180910390a1565b612c406126d3565b5f805460ff191660011790557f62e78cea01bee320cd4e420270b5ea74000d11b0c9f74754ebdbfc544b05a258612c1b3390565b5f8051602061389583398151915254600203610d9857604051633ee5aeb560e01b815260040160405180910390fd5b5f805f8351604103612cda576020840151604085015160608601515f1a612ccc88828585612dc6565b955095509550505050612ce5565b505081515f91506002905b9250925092565b5f826003811115612cff57612cff61324e565b03612d08575050565b6001826003811115612d1c57612d1c61324e565b03612d3a5760405163f645eedf60e01b815260040160405180910390fd5b6002826003811115612d4e57612d4e61324e565b03612d6f5760405163fce698f760e01b815260048101829052602401610575565b6003826003811115612d8357612d8361324e565b036121d2576040516335e2f38360e21b815260048101829052602401610575565b5f5460ff16610d9857604051638dfc202b60e01b815260040160405180910390fd5b5f80807f7fffffffffffffffffffffffffffffff5d576e7357a4501ddfe92f46681b20a0841115612dff57505f91506003905082612e84565b604080515f808252602082018084528a905260ff891692820192909252606081018790526080810186905260019060a0016020604051602081039080840390855afa158015612e50573d5f803e3d5ffd5b5050604051601f1901519150506001600160a01b038116612e7b57505f925060019150829050612e84565b92505f91508190505b9450945094915050565b634e487b7160e01b5f52604160045260245ffd5b5f805f8060808587031215612eb5575f80fd5b843593506020850135925060408501359150606085013567ffffffffffffffff80821115612ee1575f80fd5b818701915087601f830112612ef4575f80fd5b813581811115612f0657612f06612e8e565b604051601f8201601f19908116603f01168101908382118183101715612f2e57612f2e612e8e565b816040528281528a6020848701011115612f46575f80fd5b826020860160208301375f60208483010152809550505050505092959194509250565b80356001600160a01b0381168114612f7f575f80fd5b919050565b5f60208284031215612f94575f80fd5b612f9d82612f69565b9392505050565b5f60208284031215612fb4575f80fd5b5035919050565b5f81518084525f5b81811015612fdf57602081850181015186830182015201612fc3565b505f602082860101526020601f19601f83011685010191505092915050565b8a8152602081018a90526001600160a01b0389166040820152610140606082018190525f9061302f8382018b612fbb565b6080840199909952505060a081019590955260c085019390935260e0840191909152610100830152151561012090910152949350505050565b5f8060408385031215613079575f80fd5b50508035926020909101359150565b85815260a060208201525f6130a060a0830187612fbb565b82810360408401526130b28187612fbb565b606084019590955250509015156080909101529392505050565b5f60208083018184528085518083526040925060408601915060408160051b8701018488015f5b838110156131a257888303603f190185528151805184528781015188850152868101516001600160a01b038116888601526101409050606080830151828288015261314083880182612fbb565b6080858101519089015260a0808601519089015260c0808601519089015260e08086015190890152610100808601519089015261012094850151801515868a015294909350915061318e9050565b5095880195935050908601906001016130f3565b509098975050505050505050565b5f8083601f8401126131c0575f80fd5b50813567ffffffffffffffff8111156131d7575f80fd5b6020830191508360208285010111156131ee575f80fd5b9250929050565b5f805f805f60808688031215613209575f80fd5b85359450602086013567ffffffffffffffff811115613226575f80fd5b613232888289016131b0565b9699909850959660408101359660609091013595509350505050565b634e487b7160e01b5f52602160045260245ffd5b600281106132725761327261324e565b9052565b6001600160a01b038d811682528c166020820152604081018b9052606081018a90526080810189905260a0810188905260c0810187905261018081016132bf60e0830188613262565b600586106132cf576132cf61324e565b856101008301528461012083015283610140830152826101608301529d9c50505050505050505050505050565b5f805f805f60608688031215613310575f80fd5b853567ffffffffffffffff80821115613327575f80fd5b61333389838a016131b0565b9097509550602088013591508082111561334b575f80fd5b50613358888289016131b0565b96999598509660400135949350505050565b5f805f806060858703121561337d575f80fd5b84359350602085013567ffffffffffffffff81111561339a575f80fd5b6133a6878288016131b0565b9598909750949560400135949350505050565b5f805f805f60a086880312156133cd575f80fd5b6133d686612f69565b94506020860135935060408601359250606086013591506080860135600281106133fe575f80fd5b809150509295509295909350565b6020808252600b908201526a4e6f742070656e64696e6760a81b604082015260600190565b6020808252601b908201527f46696e616c20616d6f756e742065786365656473206275646765740000000000604082015260600190565b6020808252601a908201527f496e76616c69642070726f7669646572207369676e6174757265000000000000604082015260600190565b634e487b7160e01b5f52601160045260245ffd5b81810381811115612be157612be161349f565b8082028115828204841417612be157612be161349f565b5f826134f757634e487b7160e01b5f52601260045260245ffd5b500490565b5f6020828403121561350c575f80fd5b81518015158114612f9d575f80fd5b6020808252601690820152751499599d5b99081d1c985b9cd9995c8819985a5b195960521b604082015260600190565b80820180821115612be157612be161349f565b6020808252600b908201526a27b7363c903830bab9b2b960a91b604082015260600190565b600181811c9082168061359757607f821691505b6020821081036135b557634e487b7160e01b5f52602260045260245ffd5b50919050565b634e487b7160e01b5f52603260045260245ffd5b5f600182016135e0576135e061349f565b5060010190565b6020808252601490820152731554d110c81d1c985b9cd9995c8819985a5b195960621b604082015260600190565b601f8211156128d857805f5260205f20601f840160051c8101602085101561363a5750805b601f840160051c820191505b81811015613659575f8155600101613646565b5050505050565b815167ffffffffffffffff81111561367a5761367a612e8e565b61368e816136888454613583565b84613615565b602080601f8311600181146136c1575f84156136aa5750858301515b5f19600386901b1c1916600185901b178555613718565b5f85815260208120601f198616915b828110156136ef578886015182559484019460019091019084016136d0565b508582101561370c57878501515f19600388901b60f8161c191681555b505060018460011b0185555b505050505050565b81835281816020850137505f828201602090810191909152601f909101601f19169091010190565b6001600160a01b03851681526060602082018190525f9061376c9083018587613720565b905082604083015295945050505050565b60208082526014908201527313db9b1e481c1c9bdd9a59195c881dd85b1b195d60621b604082015260600190565b602081525f6137be602083018486613720565b949350505050565b67ffffffffffffffff8311156137de576137de612e8e565b6137f2836137ec8354613583565b83613615565b5f601f841160018114613823575f851561380c5750838201355b5f19600387901b1c1916600186901b178355613659565b5f83815260208120601f198716915b828110156138525786850135825560209485019460019092019101613832565b508682101561386e575f1960f88860031b161c19848701351681555b505060018560011b0183555050505050565b82815260408101612f9d602083018461326256fe9b779b17422d0df92223018b32b4d1fa46e071723d6817e2486d003becc55f00a264697066735822122057651b7bfe51712bdb6c508d1f30eebeb7fe79ccc428a6936a934664c54cc3fa64736f6c63430008180033",
  "linkReferences": {},
  "deployedLinkReferences": {}
}