{
  "_format": "hh-sol-artifact-1",
  "contractName": "HiveRegistry",
  "sourceName": "contracts/HiveRegistry.sol",
  "abi": [
    {
      "inputs": [
        {
          "internalType": "address",
          "name": "_usdcToken",
          "type": "address"
        },
        {
          "internalType": "address",
          "name": "_slashTreasury",
          "type": "address"
        }
      ],
      "stateMutability": "nonpayable",
      "type": "constructor"
    },
    {
      "inputs": [],
      "name": "EnforcedPause",
      "type": "error"
    },
    {
      "inputs": [],
      "name": "ExpectedPause",
      "type": "error"
    },
    {
      "inputs": [],
      "name": "ReentrancyGuardReentrantCall",
      "type": "error"
    },
    {
      "anonymous": false,
      "inputs": [
        {
          "indexed": true,
          "internalType": "uint256",
          "name": "modelId",
          "type": "uint256"
        },
        {
          "indexed": false,
          "internalType": "string",
          "name": "reason",
          "type": "string"
        }
      ],
      "name": "ModelDeactivated",
      "type": "event"
    },
    {
      "anonymous": false,
      "inputs": [
        {
          "indexed": true,
          "internalType": "uint256",
          "name": "modelId",
          "type": "uint256"
        },
        {
          "indexed": false,
          "internalType": "string",
          "name": "name",
          "type": "string"
        },
        {
          "indexed": true,
          "internalType": "string",
          "name": "niche",
          "type": "string"
        },
        {
          "indexed": false,
          "internalType": "uint256",
          "name": "pricePerQuery",
          "type": "uint256"
        },
        {
          "indexed": false,
          "internalType": "address",
          "name": "wallet",
          "type": "address"
        }
      ],
      "name": "ModelRegistered",
      "type": "event"
    },
    {
      "anonymous": false,
      "inputs": [
        {
          "indexed": true,
          "internalType": "uint256",
          "name": "modelId",
          "type": "uint256"
        },
        {
          "indexed": false,
          "internalType": "uint256",
          "name": "newSlashCount",
          "type": "uint256"
        },
        {
          "indexed": false,
          "internalType": "uint256",
          "name": "remainingStake",
          "type": "uint256"
        }
      ],
      "name": "ModelSlashed",
      "type": "event"
    },
    {
      "anonymous": false,
      "inputs": [
        {
          "indexed": true,
          "internalType": "uint256",
          "name": "modelId",
          "type": "uint256"
        },
        {
          "indexed": false,
          "internalType": "uint256",
          "name": "amount",
          "type": "uint256"
        },
        {
          "indexed": false,
          "internalType": "uint256",
          "name": "totalStake",
          "type": "uint256"
        }
      ],
      "name": "ModelStaked",
      "type": "event"
    },
    {
      "anonymous": false,
      "inputs": [
        {
          "indexed": true,
          "internalType": "uint256",
          "name": "modelId",
          "type": "uint256"
        },
        {
          "indexed": false,
          "internalType": "uint256",
          "name": "amount",
          "type": "uint256"
        }
      ],
      "name": "ModelUnstaked",
      "type": "event"
    },
    {
      "anonymous": false,
      "inputs": [
        {
          "indexed": true,
          "internalType": "uint256",
          "name": "modelId",
          "type": "uint256"
        },
        {
          "indexed": false,
          "internalType": "string",
          "name": "name",
          "type": "string"
        },
        {
          "indexed": false,
          "internalType": "uint256",
          "name": "pricePerQuery",
          "type": "uint256"
        }
      ],
      "name": "ModelUpdated",
      "type": "event"
    },
    {
      "anonymous": false,
      "inputs": [
        {
          "indexed": false,
          "internalType": "address",
          "name": "account",
          "type": "address"
        }
      ],
      "name": "Paused",
      "type": "event"
    },
    {
      "anonymous": false,
      "inputs": [
        {
          "indexed": true,
          "internalType": "address",
          "name": "oldPauser",
          "type": "address"
        },
        {
          "indexed": true,
          "internalType": "address",
          "name": "newPauser",
          "type": "address"
        }
      ],
      "name": "PauserTransferred",
      "type": "event"
    },
    {
      "anonymous": false,
      "inputs": [
        {
          "indexed": true,
          "internalType": "uint256",
          "name": "taskId",
          "type": "uint256"
        },
        {
          "indexed": false,
          "internalType": "bytes32",
          "name": "resultHash",
          "type": "bytes32"
        }
      ],
      "name": "TaskApproved",
      "type": "event"
    },
    {
      "anonymous": false,
      "inputs": [
        {
          "indexed": true,
          "internalType": "uint256",
          "name": "taskId",
          "type": "uint256"
        }
      ],
      "name": "TaskRejected",
      "type": "event"
    },
    {
      "anonymous": false,
      "inputs": [
        {
          "indexed": true,
          "internalType": "uint256",
          "name": "taskId",
          "type": "uint256"
        },
        {
          "indexed": true,
          "internalType": "address",
          "name": "client",
          "type": "address"
        },
        {
          "indexed": true,
          "internalType": "address",
          "name": "orchestrator",
          "type": "address"
        },
        {
          "indexed": false,
          "internalType": "address",
          "name": "specialist",
          "type": "address"
        },
        {
          "indexed": false,
          "internalType": "uint256",
          "name": "amount",
          "type": "uint256"
        },
        {
          "indexed": false,
          "internalType": "bytes32",
          "name": "promptHash",
          "type": "bytes32"
        }
      ],
      "name": "TaskRequested",
      "type": "event"
    },
    {
      "anonymous": false,
      "inputs": [
        {
          "indexed": true,
          "internalType": "uint256",
          "name": "taskId",
          "type": "uint256"
        }
      ],
      "name": "TaskTimedOut",
      "type": "event"
    },
    {
      "anonymous": false,
      "inputs": [
        {
          "indexed": false,
          "internalType": "address",
          "name": "account",
          "type": "address"
        }
      ],
      "name": "Unpaused",
      "type": "event"
    },
    {
      "inputs": [],
      "name": "MAX_SLASH_COUNT",
      "outputs": [
        {
          "internalType": "uint256",
          "name": "",
          "type": "uint256"
        }
      ],
      "stateMutability": "view",
      "type": "function"
    },
    {
      "inputs": [],
      "name": "MINIMUM_STAKE",
      "outputs": [
        {
          "internalType": "uint256",
          "name": "",
          "type": "uint256"
        }
      ],
      "stateMutability": "view",
      "type": "function"
    },
    {
      "inputs": [],
      "name": "SLASH_AMOUNT",
      "outputs": [
        {
          "internalType": "uint256",
          "name": "",
          "type": "uint256"
        }
      ],
      "stateMutability": "view",
      "type": "function"
    },
    {
      "inputs": [
        {
          "internalType": "uint256",
          "name": "taskId",
          "type": "uint256"
        },
        {
          "internalType": "bytes32",
          "name": "resultHash",
          "type": "bytes32"
        }
      ],
      "name": "approveTask",
      "outputs": [],
      "stateMutability": "nonpayable",
      "type": "function"
    },
    {
      "inputs": [
        {
          "internalType": "uint256",
          "name": "taskId",
          "type": "uint256"
        }
      ],
      "name": "claimTimeout",
      "outputs": [],
      "stateMutability": "nonpayable",
      "type": "function"
    },
    {
      "inputs": [
        {
          "internalType": "string",
          "name": "niche",
          "type": "string"
        }
      ],
      "name": "getModelsByNiche",
      "outputs": [
        {
          "components": [
            {
              "internalType": "uint256",
              "name": "id",
              "type": "uint256"
            },
            {
              "internalType": "string",
              "name": "name",
              "type": "string"
            },
            {
              "internalType": "string",
              "name": "niche",
              "type": "string"
            },
            {
              "internalType": "uint256",
              "name": "pricePerQuery",
              "type": "uint256"
            },
            {
              "internalType": "address",
              "name": "wallet",
              "type": "address"
            },
            {
              "internalType": "bool",
              "name": "isActive",
              "type": "bool"
            },
            {
              "internalType": "uint256",
              "name": "stakedAmount",
              "type": "uint256"
            },
            {
              "internalType": "uint256",
              "name": "totalTasksCompleted",
              "type": "uint256"
            },
            {
              "internalType": "uint256",
              "name": "totalTasksFailed",
              "type": "uint256"
            },
            {
              "internalType": "uint256",
              "name": "slashCount",
              "type": "uint256"
            }
          ],
          "internalType": "struct HiveRegistry.Model[]",
          "name": "",
          "type": "tuple[]"
        }
      ],
      "stateMutability": "view",
      "type": "function"
    },
    {
      "inputs": [],
      "name": "getRegisteredNiches",
      "outputs": [
        {
          "internalType": "string[]",
          "name": "",
          "type": "string[]"
        }
      ],
      "stateMutability": "view",
      "type": "function"
    },
    {
      "inputs": [
        {
          "internalType": "uint256",
          "name": "",
          "type": "uint256"
        }
      ],
      "name": "modelPendingTasks",
      "outputs": [
        {
          "internalType": "uint256",
          "name": "",
          "type": "uint256"
        }
      ],
      "stateMutability": "view",
      "type": "function"
    },
    {
      "inputs": [
        {
          "internalType": "uint256",
          "name": "",
          "type": "uint256"
        }
      ],
      "name": "models",
      "outputs": [
        {
          "internalType": "uint256",
          "name": "id",
          "type": "uint256"
        },
        {
          "internalType": "string",
          "name": "name",
          "type": "string"
        },
        {
          "internalType": "string",
          "name": "niche",
          "type": "string"
        },
        {
          "internalType": "uint256",
          "name": "pricePerQuery",
          "type": "uint256"
        },
        {
          "internalType": "address",
          "name": "wallet",
          "type": "address"
        },
        {
          "internalType": "bool",
          "name": "isActive",
          "type": "bool"
        },
        {
          "internalType": "uint256",
          "name": "stakedAmount",
          "type": "uint256"
        },
        {
          "internalType": "uint256",
          "name": "totalTasksCompleted",
          "type": "uint256"
        },
        {
          "internalType": "uint256",
          "name": "totalTasksFailed",
          "type": "uint256"
        },
        {
          "internalType": "uint256",
          "name": "slashCount",
          "type": "uint256"
        }
      ],
      "stateMutability": "view",
      "type": "function"
    },
    {
      "inputs": [],
      "name": "nextModelId",
      "outputs": [
        {
          "internalType": "uint256",
          "name": "",
          "type": "uint256"
        }
      ],
      "stateMutability": "view",
      "type": "function"
    },
    {
      "inputs": [],
      "name": "nextTaskId",
      "outputs": [
        {
          "internalType": "uint256",
          "name": "",
          "type": "uint256"
        }
      ],
      "stateMutability": "view",
      "type": "function"
    },
    {
      "inputs": [],
      "name": "pause",
      "outputs": [],
      "stateMutability": "nonpayable",
      "type": "function"
    },
    {
      "inputs": [],
      "name": "paused",
      "outputs": [
        {
          "internalType": "bool",
          "name": "",
          "type": "bool"
        }
      ],
      "stateMutability": "view",
      "type": "function"
    },
    {
      "inputs": [],
      "name": "pauser",
      "outputs": [
        {
          "internalType": "address",
          "name": "",
          "type": "address"
        }
      ],
      "stateMutability": "view",
      "type": "function"
    },
    {
      "inputs": [
        {
          "internalType": "string",
          "name": "name",
          "type": "string"
        },
        {
          "internalType": "string",
          "name": "niche",
          "type": "string"
        },
        {
          "internalType": "uint256",
          "name": "pricePerQuery",
          "type": "uint256"
        },
        {
          "internalType": "address",
          "name": "wallet",
          "type": "address"
        }
      ],
      "name": "registerModel",
      "outputs": [
        {
          "internalType": "uint256",
          "name": "",
          "type": "uint256"
        }
      ],
      "stateMutability": "nonpayable",
      "type": "function"
    },
    {
      "inputs": [
        {
          "internalType": "uint256",
          "name": "",
          "type": "uint256"
        }
      ],
      "name": "registeredNiches",
      "outputs": [
        {
          "internalType": "string",
          "name": "",
          "type": "string"
        }
      ],
      "stateMutability": "view",
      "type": "function"
    },
    {
      "inputs": [
        {
          "internalType": "uint256",
          "name": "taskId",
          "type": "uint256"
        }
      ],
      "name": "rejectTask",
      "outputs": [],
      "stateMutability": "nonpayable",
      "type": "function"
    },
    {
      "inputs": [
        {
          "internalType": "address",
          "name": "client",
          "type": "address"
        },
        {
          "internalType": "address",
          "name": "specialist",
          "type": "address"
        },
        {
          "internalType": "uint256",
          "name": "modelId",
          "type": "uint256"
        },
        {
          "internalType": "uint256",
          "name": "amount",
          "type": "uint256"
        },
        {
          "internalType": "bytes32",
          "name": "promptHash",
          "type": "bytes32"
        }
      ],
      "name": "requestTask",
      "outputs": [
        {
          "internalType": "uint256",
          "name": "",
          "type": "uint256"
        }
      ],
      "stateMutability": "nonpayable",
      "type": "function"
    },
    {
      "inputs": [],
      "name": "slashTreasury",
      "outputs": [
        {
          "internalType": "address",
          "name": "",
          "type": "address"
        }
      ],
      "stateMutability": "view",
      "type": "function"
    },
    {
      "inputs": [
        {
          "internalType": "uint256",
          "name": "modelId",
          "type": "uint256"
        },
        {
          "internalType": "uint256",
          "name": "amount",
          "type": "uint256"
        }
      ],
      "name": "stakeForModel",
      "outputs": [],
      "stateMutability": "nonpayable",
      "type": "function"
    },
    {
      "inputs": [
        {
          "internalType": "uint256",
          "name": "",
          "type": "uint256"
        }
      ],
      "name": "tasks",
      "outputs": [
        {
          "internalType": "address",
          "name": "client",
          "type": "address"
        },
        {
          "internalType": "address",
          "name": "orchestrator",
          "type": "address"
        },
        {
          "internalType": "address",
          "name": "specialist",
          "type": "address"
        },
        {
          "internalType": "uint256",
          "name": "modelId",
          "type": "uint256"
        },
        {
          "internalType": "uint256",
          "name": "amount",
          "type": "uint256"
        },
        {
          "internalType": "bytes32",
          "name": "promptHash",
          "type": "bytes32"
        },
        {
          "internalType": "bytes32",
          "name": "resultHash",
          "type": "bytes32"
        },
        {
          "internalType": "uint256",
          "name": "createdAt",
          "type": "uint256"
        },
        {
          "internalType": "enum HiveRegistry.Status",
          "name": "status",
          "type": "uint8"
        }
      ],
      "stateMutability": "view",
      "type": "function"
    },
    {
      "inputs": [
        {
          "internalType": "address",
          "name": "newPauser",
          "type": "address"
        }
      ],
      "name": "transferPauser",
      "outputs": [],
      "stateMutability": "nonpayable",
      "type": "function"
    },
    {
      "inputs": [],
      "name": "unpause",
      "outputs": [],
      "stateMutability": "nonpayable",
      "type": "function"
    },
    {
      "inputs": [
        {
          "internalType": "uint256",
          "name": "modelId",
          "type": "uint256"
        }
      ],
      "name": "unstakeFromModel",
      "outputs": [],
      "stateMutability": "nonpayable",
      "type": "function"
    },
    {
      "inputs": [
        {
          "internalType": "uint256",
          "name": "modelId",
          "type": "uint256"
        },
        {
          "internalType": "string",
          "name": "name",
          "type": "string"
        },
        {
          "internalType": "uint256",
          "name": "pricePerQuery",
          "type": "uint256"
        }
      ],
      "name": "updateModel",
      "outputs": [],
      "stateMutability": "nonpayable",
      "type": "function"
    },
    {
      "inputs": [],
      "name": "usdcToken",
      "outputs": [
        {
          "internalType": "contract IERC20",
          "name": "",
          "type": "address"
        }
      ],
      "stateMutability": "view",
      "type": "function"
    }
  ],
  "bytecode": "0x60c06040523480156200001157600080fd5b5060405162002f7538038062002f75833981016040819052620000349162000158565b60017f9b779b17422d0df92223018b32b4d1fa46e071723d6817e2486d003becc55f00556001600160a01b038216620000b45760405162461bcd60e51b815260206004820152601560248201527f496e76616c696420746f6b656e2061646472657373000000000000000000000060448201526064015b60405180910390fd5b6001600160a01b0381166200010c5760405162461bcd60e51b815260206004820152601860248201527f496e76616c6964207472656173757279206164647265737300000000000000006044820152606401620000ab565b6001600160a01b039182166080521660a05260008054610100600160a81b031916336101000217905562000190565b80516001600160a01b03811681146200015357600080fd5b919050565b600080604083850312156200016c57600080fd5b62000177836200013b565b915062000187602084016200013b565b90509250929050565b60805160a051612d87620001ee6000396000818161038e01526121d70152600081816101b501528181610d8e0152818161112c0152818161134b015281816115ed01528181611dfb01528181611fe601526122060152612d876000f3fe608060405234801561001057600080fd5b506004361061018e5760003560e01c806386e773f1116100de578063b41d388611610097578063cb8f4c4a11610071578063cb8f4c4a14610416578063dc8be90d1461041e578063e472ae8b14610431578063fdc3d8d71461043a57600080fd5b8063b41d3886146103db578063b6ab0eba146103f0578063bd9349091461040357600080fd5b806386e773f1146102e357806388835226146102f65780638d9776721461030957806399580651146103895780639fd0506d146103b0578063aaf11e37146103c857600080fd5b80633f4ba83a1161014b5780636a030ca9116101255780636a030ca91461027f5780637d81b40b146102a85780638456cb59146102bb57806384754e5c146102c357600080fd5b80633f4ba83a1461024e5780634421ea21146102565780635c975abb1461026957600080fd5b806308dbbb031461019357806311eac855146101b057806317994869146101ef5780632ffb14801461020f5780633104ece71461022f5780633772060614610244575b600080fd5b61019d620f424081565b6040519081526020015b60405180910390f35b6101d77f000000000000000000000000000000000000000000000000000000000000000081565b6040516001600160a01b0390911681526020016101a7565b6102026101fd366004612511565b610443565b6040516101a79190612599565b61019d61021d366004612686565b60066020526000908152604090205481565b61024261023d36600461269f565b61082d565b005b61019d6207a12081565b610242610990565b61024261026436600461270e565b6109f9565b60005460ff1660405190151581526020016101a7565b61029261028d366004612686565b610b07565b6040516101a79a99989796959493929190612730565b6102426102b6366004612686565b610c77565b610242610e9c565b6102d66102d1366004612686565b610efb565b6040516101a791906127a2565b6102426102f1366004612686565b610fa7565b6102426103043660046127b5565b6111fa565b610374610317366004612686565b60026020819052600091825260409091208054600182015492820154600383015460048401546005850154600686015460078701546008909701546001600160a01b03968716988716979590961695939492939192909160ff1689565b6040516101a7999897969594939291906127ed565b6101d77f000000000000000000000000000000000000000000000000000000000000000081565b6000546101d79061010090046001600160a01b031681565b6102426103d6366004612686565b611467565b6103e36116c9565b6040516101a79190612864565b61019d6103fe3660046128c6565b6117a2565b61019d61041136600461294e565b611b5b565b61019d600581565b61024261042c3660046127b5565b611ef8565b61019d60035481565b61019d60015481565b606060006005848460405161045992919061299b565b90815260408051918290036020908101832080548083028501830190935282845291908301828280156104ab57602002820191906000526020600020905b815481526020019060010190808311610497575b505050505090506000805b825181101561052157600460008483815181106104d5576104d56129ab565b6020026020010151815260200190815260200160002060040160149054906101000a900460ff161561050f578161050b816129d7565b9250505b80610519816129d7565b9150506104b6565b5060008167ffffffffffffffff81111561053d5761053d6129f0565b6040519080825280602002602001820160405280156105cf57816020015b6105bc6040518061014001604052806000815260200160608152602001606081526020016000815260200160006001600160a01b03168152602001600015158152602001600081526020016000815260200160008152602001600081525090565b81526020019060019003908161055b5790505b5090506000805b845181101561081f57600460008683815181106105f5576105f56129ab565b6020026020010151815260200190815260200160002060040160149054906101000a900460ff161561080d5760046000868381518110610637576106376129ab565b60200260200101518152602001908152602001600020604051806101400160405290816000820154815260200160018201805461067390612a06565b80601f016020809104026020016040519081016040528092919081815260200182805461069f90612a06565b80156106ec5780601f106106c1576101008083540402835291602001916106ec565b820191906000526020600020905b8154815290600101906020018083116106cf57829003601f168201915b5050505050815260200160028201805461070590612a06565b80601f016020809104026020016040519081016040528092919081815260200182805461073190612a06565b801561077e5780601f106107535761010080835404028352916020019161077e565b820191906000526020600020905b81548152906001019060200180831161076157829003601f168201915b50505091835250506003820154602082015260048201546001600160a01b0381166040830152600160a01b900460ff161515606082015260058201546080820152600682015460a0820152600782015460c082015260089091015460e09091015283518490849081106107f3576107f36129ab565b60200260200101819052508180610809906129d7565b9250505b80610817816129d7565b9150506105d6565b509093505050505b92915050565b6000848152600460208190526040909120908101546001600160a01b0316331461089e5760405162461bcd60e51b815260206004820152601c60248201527f4f6e6c79206d6f64656c2077616c6c65742063616e207570646174650000000060448201526064015b60405180910390fd5b6004810154600160a01b900460ff166108f05760405162461bcd60e51b8152602060048201526014602482015273135bd9195b081a5cc819195858dd1a5d985d195960621b6044820152606401610895565b826109345760405162461bcd60e51b81526020600482015260146024820152734e616d652063616e6e6f7420626520656d70747960601b6044820152606401610895565b60018101610943848683612a8e565b50818160030181905550847f455f5080ea871516dbe991ffb2aac99192d5576c203a72f70d9d058738cb191585858560405161098193929190612b78565b60405180910390a25050505050565b60005461010090046001600160a01b031633146109ef5760405162461bcd60e51b815260206004820152601760248201527f4f6e6c79207061757365722063616e20756e70617573650000000000000000006044820152606401610895565b6109f76120ce565b565b60005461010090046001600160a01b03163314610a585760405162461bcd60e51b815260206004820152601860248201527f4f6e6c79207061757365722063616e207472616e7366657200000000000000006044820152606401610895565b6001600160a01b038116610aae5760405162461bcd60e51b815260206004820152601e60248201527f4e65772070617573657220697320746865207a65726f206164647265737300006044820152606401610895565b600080546001600160a01b03838116610100818102610100600160a81b0319851617855560405193049190911692909183917f51c4874e0f23f262e04a38c51751336dde72126d67f53eb672aaff02996b3ef691a35050565b60046020526000908152604090208054600182018054919291610b2990612a06565b80601f0160208091040260200160405190810160405280929190818152602001828054610b5590612a06565b8015610ba25780601f10610b7757610100808354040283529160200191610ba2565b820191906000526020600020905b815481529060010190602001808311610b8557829003601f168201915b505050505090806002018054610bb790612a06565b80601f0160208091040260200160405190810160405280929190818152602001828054610be390612a06565b8015610c305780601f10610c0557610100808354040283529160200191610c30565b820191906000526020600020905b815481529060010190602001808311610c1357829003601f168201915b5050505060038301546004840154600585015460068601546007870154600890970154959693956001600160a01b0384169550600160a01b90930460ff169391929091908a565b610c7f612120565b610c8761213c565b600081815260026020526040812090600882015460ff166003811115610caf57610caf6127d7565b14610ccc5760405162461bcd60e51b815260040161089590612b9c565b60018101546001600160a01b03163314610d285760405162461bcd60e51b815260206004820152601c60248201527f4f6e6c79206f7263686573747261746f722063616e2072656a656374000000006044820152606401610895565b60088101805460ff1916600217905560038101546000908152600660205260408120805460019290610d5b908490612bc6565b9091555050805460048083015460405163a9059cbb60e01b81526001600160a01b039384169281019290925260248201527f00000000000000000000000000000000000000000000000000000000000000009091169063a9059cbb906044016020604051808303816000875af1158015610dd9573d6000803e3d6000fd5b505050506040513d601f19601f82011682018060405250810190610dfd9190612bd9565b610e495760405162461bcd60e51b815260206004820152601c60248201527f5553444320726566756e6420746f20636c69656e74206661696c6564000000006044820152606401610895565b610e568160030154612160565b60405182907faaef6e71f9f214da5be1264a046941f4723a23100084c172759fc5d3239b015290600090a250610e996001600080516020612d3283398151915255565b50565b60005461010090046001600160a01b03163314610ef35760405162461bcd60e51b81526020600482015260156024820152744f6e6c79207061757365722063616e20706175736560581b6044820152606401610895565b6109f7612438565b60078181548110610f0b57600080fd5b906000526020600020016000915090508054610f2690612a06565b80601f0160208091040260200160405190810160405280929190818152602001828054610f5290612a06565b8015610f9f5780601f10610f7457610100808354040283529160200191610f9f565b820191906000526020600020905b815481529060010190602001808311610f8257829003601f168201915b505050505081565b610faf612120565b610fb761213c565b600081815260026020526040812090600882015460ff166003811115610fdf57610fdf6127d7565b14610ffc5760405162461bcd60e51b815260040161089590612b9c565b60028101546001600160a01b031633146110625760405162461bcd60e51b815260206004820152602160248201527f4f6e6c79207370656369616c6973742063616e20636c61696d2074696d656f756044820152601d60fa1b6064820152608401610895565b60078101546110739061012c612bfb565b4210156110c25760405162461bcd60e51b815260206004820152601d60248201527f54696d656f757420706572696f6420686173206e6f74207061737365640000006044820152606401610895565b60088101805460ff1916600390811790915581015460009081526006602052604081208054600192906110f6908490612bc6565b9091555050600281015460048083015460405163a9059cbb60e01b81526001600160a01b039384169281019290925260248201527f00000000000000000000000000000000000000000000000000000000000000009091169063a9059cbb906044016020604051808303816000875af1158015611177573d6000803e3d6000fd5b505050506040513d601f19601f8201168201806040525081019061119b9190612bd9565b6111b75760405162461bcd60e51b815260040161089590612c0e565b60405182907f2eef61ff67694ac782384c553f921e33f41b74e44dfaa0d72c349e4512ab7fb190600090a250610e996001600080516020612d3283398151915255565b611202612120565b61120a61213c565b600082815260026020526040812090600882015460ff166003811115611232576112326127d7565b1461124f5760405162461bcd60e51b815260040161089590612b9c565b60018101546001600160a01b031633146112ab5760405162461bcd60e51b815260206004820152601d60248201527f4f6e6c79206f7263686573747261746f722063616e20617070726f76650000006044820152606401610895565b60088101805460ff191660019081179091556006808301849055600383015460009081526020919091526040812080549091906112e9908490612bc6565b909155505060038101546000908152600460205260408120600601805460019290611315908490612bfb565b9091555050600281015460048083015460405163a9059cbb60e01b81526001600160a01b039384169281019290925260248201527f00000000000000000000000000000000000000000000000000000000000000009091169063a9059cbb906044016020604051808303816000875af1158015611396573d6000803e3d6000fd5b505050506040513d601f19601f820116820180604052508101906113ba9190612bd9565b6114115760405162461bcd60e51b815260206004820152602260248201527f55534443207472616e7366657220746f207370656369616c697374206661696c604482015261195960f21b6064820152608401610895565b827fcf09c74326bb8c3fc8e043812cb657121c257ff38bbf97912ad3ee37bc2fc97d8360405161144391815260200190565b60405180910390a2506114636001600080516020612d3283398151915255565b5050565b61146f612120565b61147761213c565b6000818152600460208190526040909120908101546001600160a01b031633146114e35760405162461bcd60e51b815260206004820152601d60248201527f4f6e6c79206d6f64656c2077616c6c65742063616e20756e7374616b650000006044820152606401610895565b6004810154600160a01b900460ff16158061150a5750600082815260066020526040902054155b6115715760405162461bcd60e51b815260206004820152603260248201527f43616e6e6f7420756e7374616b6520776974682061637469766520737461747560448201527173206f722070656e64696e67207461736b7360701b6064820152608401610895565b6005810154806115b85760405162461bcd60e51b81526020600482015260126024820152714e6f7468696e6720746f20756e7374616b6560701b6044820152606401610895565b6000600583015560048083015460405163a9059cbb60e01b81526001600160a01b0391821692810192909252602482018390527f0000000000000000000000000000000000000000000000000000000000000000169063a9059cbb906044016020604051808303816000875af1158015611636573d6000803e3d6000fd5b505050506040513d601f19601f8201168201806040525081019061165a9190612bd9565b6116765760405162461bcd60e51b815260040161089590612c0e565b827fbdf1dbed1d19b9cf58df76b65a8f19f53aeeaefb7037a6d3a07fee152d26ca15826040516116a891815260200190565b60405180910390a25050610e996001600080516020612d3283398151915255565b60606007805480602002602001604051908101604052809291908181526020016000905b8282101561179957838290600052602060002001805461170c90612a06565b80601f016020809104026020016040519081016040528092919081815260200182805461173890612a06565b80156117855780601f1061175a57610100808354040283529160200191611785565b820191906000526020600020905b81548152906001019060200180831161176857829003601f168201915b5050505050815260200190600101906116ed565b50505050905090565b60006117ac612120565b6117b461213c565b6001600160a01b0382166118035760405162461bcd60e51b8152602060048201526016602482015275496e76616c69642077616c6c6574206164647265737360501b6044820152606401610895565b856118475760405162461bcd60e51b81526020600482015260146024820152734e616d652063616e6e6f7420626520656d70747960601b6044820152606401610895565b8361188c5760405162461bcd60e51b81526020600482015260156024820152744e696368652063616e6e6f7420626520656d70747960581b6044820152606401610895565b600380546000918261189d836129d7565b91905055905060405180610140016040528082815260200189898080601f016020809104026020016040519081016040528093929190818152602001838380828437600092019190915250505090825250604080516020601f8a0181900481028201810190925288815291810191908990899081908401838280828437600092018290525093855250505060208083018890526001600160a01b0387166040808501919091526001606085018190526080850184905260a0850184905260c0850184905260e0909401839052858352600482529091208351815590830151909182019061198a9082612c3c565b506040820151600282019061199f9082612c3c565b5060608201516003820155608082015160048201805460a08501511515600160a01b026001600160a81b03199091166001600160a01b039093169290921791909117905560c082015160058083019190915560e08301516006830155610100830151600783015561012090920151600890910155604051611a23908890889061299b565b90815260405190819003602090810182208054600181018255600091825291902001829055600890611a58908890889061299b565b9081526040519081900360200190205460ff16611ae257600160088787604051611a8392919061299b565b908152604051908190036020019020805491151560ff19909216919091179055600780546001810182556000919091527fa66cc928b5edb82af9bd49922954155ab7b0942694bea4ce44661d9a8736c68801611ae0868883612a8e565b505b8585604051611af292919061299b565b6040518091039020817fd7de979b856f247a61f32895f690171394eefc7225c09cdec1f1ff4461a3b63e8a8a8888604051611b309493929190612cfc565b60405180910390a39050611b516001600080516020612d3283398151915255565b9695505050505050565b6000611b65612120565b611b6d61213c565b6001600160a01b038616611bbc5760405162461bcd60e51b8152602060048201526016602482015275496e76616c696420636c69656e74206164647265737360501b6044820152606401610895565b6001600160a01b038516611c125760405162461bcd60e51b815260206004820152601a60248201527f496e76616c6964207370656369616c69737420616464726573730000000000006044820152606401610895565b60008311611c625760405162461bcd60e51b815260206004820181905260248201527f416d6f756e74206d7573742062652067726561746572207468616e207a65726f6044820152606401610895565b6001805460009182611c73836129d7565b919050559050604051806101200160405280886001600160a01b03168152602001336001600160a01b03168152602001876001600160a01b031681526020018681526020018581526020018481526020016000801b815260200142815260200160006003811115611ce657611ce66127d7565b9052600082815260026020818152604092839020845181546001600160a01b03199081166001600160a01b039283161783559286015160018084018054861692841692909217909155948601519382018054909316931692909217905560608301516003808301919091556080840151600483015560a0840151600583015560c0840151600683015560e0840151600783015561010084015160088301805493949193909260ff1990911691908490811115611da457611da46127d7565b021790555050506000858152600660205260408120805460019290611dca908490612bfb565b90915550506040516323b872dd60e01b81526001600160a01b038881166004830152306024830152604482018690527f000000000000000000000000000000000000000000000000000000000000000016906323b872dd906064016020604051808303816000875af1158015611e44573d6000803e3d6000fd5b505050506040513d601f19601f82011682018060405250810190611e689190612bd9565b611e845760405162461bcd60e51b815260040161089590612c0e565b604080516001600160a01b03888116825260208201879052918101859052339189169083907f5d7e87521b9eed528a177e6bc4ee9b239714ae9fbafc3d6d3d0fce89d463aa409060600160405180910390a49050611eef6001600080516020612d3283398151915255565b95945050505050565b611f00612120565b611f0861213c565b60008111611f585760405162461bcd60e51b815260206004820181905260248201527f416d6f756e74206d7573742062652067726561746572207468616e207a65726f6044820152606401610895565b6000828152600460208190526040909120908101546001600160a01b03163314611fc45760405162461bcd60e51b815260206004820152601b60248201527f4f6e6c79206d6f64656c2077616c6c65742063616e207374616b6500000000006044820152606401610895565b6040516323b872dd60e01b8152336004820152306024820152604481018390527f00000000000000000000000000000000000000000000000000000000000000006001600160a01b0316906323b872dd906064016020604051808303816000875af1158015612037573d6000803e3d6000fd5b505050506040513d601f19601f8201168201806040525081019061205b9190612bd9565b6120775760405162461bcd60e51b815260040161089590612c0e565b8181600501600082825461208b9190612bfb565b9091555050600581015460405184917f0bf2641b520420928f4096dc2af8fc5e92d2472a2ba91c0dfd10c447c0be5d5f9161144391868252602082015260400190565b6120d6612475565b6000805460ff191690557f5db9ee0a495bf2e6ff9c91a7834c1ba4fdd244a5e8aa4e537bd38aeae4b073aa335b6040516001600160a01b03909116815260200160405180910390a1565b612128612498565b6002600080516020612d3283398151915255565b60005460ff16156109f75760405163d93c066560e01b815260040160405180910390fd5b60008181526004602052604081206007810180549192600192612184908490612bfb565b909155505060058101546207a120908111156121a1575060058101545b80156122b757808260050160008282546121bb9190612bc6565b909155505060405163a9059cbb60e01b81526001600160a01b037f000000000000000000000000000000000000000000000000000000000000000081166004830152602482018390527f0000000000000000000000000000000000000000000000000000000000000000169063a9059cbb906044016020604051808303816000875af115801561224f573d6000803e3d6000fd5b505050506040513d601f19601f820116820180604052508101906122739190612bd9565b6122b75760405162461bcd60e51b815260206004820152601560248201527414db185cda081d1c985b9cd9995c8819985a5b1959605a1b6044820152606401610895565b60018260080160008282546122cc9190612bfb565b90915550506008820154600583015460405185927f03d18d207a91a995d97f949c05e8a518c6fd4982c5246cac54df861a9a3df2c69261231492918252602082015260400190565b60405180910390a260058260080154106123a65760048201805460ff60a01b1916905560405183907fbe40b0c85c2027080eec3c74b875d0a88c6d66a202420aaac978848c3d9d81cd906123999060208082526017908201527f4d617820736c61736820636f756e742072656163686564000000000000000000604082015260600190565b60405180910390a2505050565b620f424082600501541080156123c757506004820154600160a01b900460ff165b156124335760048201805460ff60a01b1916905560405183907fbe40b0c85c2027080eec3c74b875d0a88c6d66a202420aaac978848c3d9d81cd90612399906020808252601390820152725374616b652062656c6f77206d696e696d756d60681b604082015260600190565b505050565b61244061213c565b6000805460ff191660011790557f62e78cea01bee320cd4e420270b5ea74000d11b0c9f74754ebdbfc544b05a2586121033390565b60005460ff166109f757604051638dfc202b60e01b815260040160405180910390fd5b600080516020612d32833981519152546002036109f757604051633ee5aeb560e01b815260040160405180910390fd5b60008083601f8401126124da57600080fd5b50813567ffffffffffffffff8111156124f257600080fd5b60208301915083602082850101111561250a57600080fd5b9250929050565b6000806020838503121561252457600080fd5b823567ffffffffffffffff81111561253b57600080fd5b612547858286016124c8565b90969095509350505050565b6000815180845260005b818110156125795760208185018101518683018201520161255d565b506000602082860101526020601f19601f83011685010191505092915050565b60006020808301818452808551808352604092508286019150828160051b87010184880160005b8381101561267857603f1989840301855281516101408151855288820151818a8701526125ef82870182612553565b91505087820151858203898701526126078282612553565b915050606080830151818701525060808083015161262f828801826001600160a01b03169052565b505060a08281015115159086015260c0808301519086015260e08083015190860152610100808301519086015261012091820151919094015293860193908601906001016125c0565b509098975050505050505050565b60006020828403121561269857600080fd5b5035919050565b600080600080606085870312156126b557600080fd5b84359350602085013567ffffffffffffffff8111156126d357600080fd5b6126df878288016124c8565b9598909750949560400135949350505050565b80356001600160a01b038116811461270957600080fd5b919050565b60006020828403121561272057600080fd5b612729826126f2565b9392505050565b60006101408c835280602084015261274a8184018d612553565b9050828103604084015261275e818c612553565b606084019a909a5250506001600160a01b0396909616608087015293151560a086015260c085019290925260e0840152610100830152610120909101529392505050565b6020815260006127296020830184612553565b600080604083850312156127c857600080fd5b50508035926020909101359150565b634e487b7160e01b600052602160045260246000fd5b6001600160a01b038a81168252898116602083015288166040820152606081018790526080810186905260a0810185905260c0810184905260e0810183905261012081016004831061284f57634e487b7160e01b600052602160045260246000fd5b826101008301529a9950505050505050505050565b6000602080830181845280855180835260408601915060408160051b870101925083870160005b828110156128b957603f198886030184526128a7858351612553565b9450928501929085019060010161288b565b5092979650505050505050565b600080600080600080608087890312156128df57600080fd5b863567ffffffffffffffff808211156128f757600080fd5b6129038a838b016124c8565b9098509650602089013591508082111561291c57600080fd5b5061292989828a016124c8565b90955093505060408701359150612942606088016126f2565b90509295509295509295565b600080600080600060a0868803121561296657600080fd5b61296f866126f2565b945061297d602087016126f2565b94979496505050506040830135926060810135926080909101359150565b8183823760009101908152919050565b634e487b7160e01b600052603260045260246000fd5b634e487b7160e01b600052601160045260246000fd5b6000600182016129e9576129e96129c1565b5060010190565b634e487b7160e01b600052604160045260246000fd5b600181811c90821680612a1a57607f821691505b602082108103612a3a57634e487b7160e01b600052602260045260246000fd5b50919050565b601f82111561243357600081815260208120601f850160051c81016020861015612a675750805b601f850160051c820191505b81811015612a8657828155600101612a73565b505050505050565b67ffffffffffffffff831115612aa657612aa66129f0565b612aba83612ab48354612a06565b83612a40565b6000601f841160018114612aee5760008515612ad65750838201355b600019600387901b1c1916600186901b178355612b48565b600083815260209020601f19861690835b82811015612b1f5786850135825560209485019460019092019101612aff565b5086821015612b3c5760001960f88860031b161c19848701351681555b505060018560011b0183555b5050505050565b81835281816020850137506000828201602090810191909152601f909101601f19169091010190565b604081526000612b8c604083018587612b4f565b9050826020830152949350505050565b60208082526010908201526f5461736b206e6f742070656e64696e6760801b604082015260600190565b81810381811115610827576108276129c1565b600060208284031215612beb57600080fd5b8151801515811461272957600080fd5b80820180821115610827576108276129c1565b6020808252601490820152731554d110c81d1c985b9cd9995c8819985a5b195960621b604082015260600190565b815167ffffffffffffffff811115612c5657612c566129f0565b612c6a81612c648454612a06565b84612a40565b602080601f831160018114612c9f5760008415612c875750858301515b600019600386901b1c1916600185901b178555612a86565b600085815260208120601f198616915b82811015612cce57888601518255948401946001909101908401612caf565b5085821015612cec5787850151600019600388901b60f8161c191681555b5050505050600190811b01905550565b606081526000612d10606083018688612b4f565b6020830194909452506001600160a01b03919091166040909101529291505056fe9b779b17422d0df92223018b32b4d1fa46e071723d6817e2486d003becc55f00a264697066735822122025f7e39736cdf6033e64c1a94b3c957d996c4325f166b33837a08fb6797d99dd64736f6c63430008140033",
  "linkReferences": {},
  "deployedLinkReferences": {}
}