{
  "_format": "hh-sol-artifact-1",
  "contractName": "MockUSDC",
  "sourceName": "contracts/MockUSDC.sol",
  "abi": [
    {
      "inputs": [],
      "stateMutability": "nonpayable",
      "type": "constructor"
    },
    {
      "inputs": [
        {
          "internalType": "address",
          "name": "spender",
          "type": "address"
        },
        {
          "internalType": "uint256",
          "name": "allowance",
          "type": "uint256"
        },
        {
          "internalType": "uint256",
          "name": "needed",
          "type": "uint256"
        }
      ],
      "name": "ERC20InsufficientAllowance",
      "type": "error"
    },
    {
      "inputs": [
        {
          "internalType": "address",
          "name": "sender",
          "type": "address"
        },
        {
          "internalType": "uint256",
          "name": "balance",
          "type": "uint256"
        },
        {
          "internalType": "uint256",
          "name": "needed",
          "type": "uint256"
        }
      ],
      "name": "ERC20InsufficientBalance",
      "type": "error"
    },
    {
      "inputs": [
        {
          "internalType": "address",
          "name": "approver",
          "type": "address"
        }
      ],
      "name": "ERC20InvalidApprover",
      "type": "error"
    },
    {
      "inputs": [
        {
          "internalType": "address",
          "name": "receiver",
          "type": "address"
        }
      ],
      "name": "ERC20InvalidReceiver",
      "type": "error"
    },
    {
      "inputs": [
        {
          "internalType": "address",
          "name": "sender",
          "type": "address"
        }
      ],
      "name": "ERC20InvalidSender",
      "type": "error"
    },
    {
      "inputs": [
        {
          "internalType": "address",
          "name": "spender",
          "type": "address"
        }
      ],
      "name": "ERC20InvalidSpender",
      "type": "error"
    },
    {
      "inputs": [
        {
          "internalType": "address",
          "name": "owner",
          "type": "address"
        }
      ],
      "name": "OwnableInvalidOwner",
      "type": "error"
    },
    {
      "inputs": [
        {
          "internalType": "address",
          "name": "account",
          "type": "address"
        }
      ],
      "name": "OwnableUnauthorizedAccount",
      "type": "error"
    },
    {
      "anonymous": false,
      "inputs": [
        {
          "indexed": true,
          "internalType": "address",
          "name": "owner",
          "type": "address"
        },
        {
          "indexed": true,
          "internalType": "address",
          "name": "spender",
          "type": "address"
        },
        {
          "indexed": false,
          "internalType": "uint256",
          "name": "value",
          "type": "uint256"
        }
      ],
      "name": "Approval",
      "type": "event"
    },
    {
      "anonymous": false,
      "inputs": [
        {
          "indexed": true,
          "internalType": "address",
          "name": "previousOwner",
          "type": "address"
        },
        {
          "indexed": true,
          "internalType": "address",
          "name": "newOwner",
          "type": "address"
        }
      ],
      "name": "OwnershipTransferred",
      "type": "event"
    },
    {
      "anonymous": false,
      "inputs": [
        {
          "indexed": true,
          "internalType": "address",
          "name": "from",
          "type": "address"
        },
        {
          "indexed": true,
          "internalType": "address",
          "name": "to",
          "type": "address"
        },
        {
          "indexed": false,
          "internalType": "uint256",
          "name": "value",
          "type": "uint256"
        }
      ],
      "name": "Transfer",
      "type": "event"
    },
    {
      "inputs": [],
      "name": "FAUCET_AMOUNT",
      "outputs": [
        {
          "internalType": "uint256",
          "name": "",
          "type": "uint256"
        }
      ],
      "stateMutability": "view",
      "type": "function"
    },
    {
      "inputs": [],
      "name": "FAUCET_COOLDOWN",
      "outputs": [
        {
          "internalType": "uint256",
          "name": "",
          "type": "uint256"
        }
      ],
      "stateMutability": "view",
      "type": "function"
    },
    {
      "inputs": [
        {
          "internalType": "address",
          "name": "owner",
          "type": "address"
        },
        {
          "internalType": "address",
          "name": "spender",
          "type": "address"
        }
      ],
      "name": "allowance",
      "outputs": [
        {
          "internalType": "uint256",
          "name": "",
          "type": "uint256"
        }
      ],
      "stateMutability": "view",
      "type": "function"
    },
    {
      "inputs": [
        {
          "internalType": "address",
          "name": "spender",
          "type": "address"
        },
        {
          "internalType": "uint256",
          "name": "value",
          "type": "uint256"
        }
      ],
      "name": "approve",
      "outputs": [
        {
          "internalType": "bool",
          "name": "",
          "type": "bool"
        }
      ],
      "stateMutability": "nonpayable",
      "type": "function"
    },
    {
      "inputs": [
        {
          "internalType": "address",
          "name": "account",
          "type": "address"
        }
      ],
      "name": "balanceOf",
      "outputs": [
        {
          "internalType": "uint256",
          "name": "",
          "type": "uint256"
        }
      ],
      "stateMutability": "view",
      "type": "function"
    },
    {
      "inputs": [],
      "name": "decimals",
      "outputs": [
        {
          "internalType": "uint8",
          "name": "",
          "type": "uint8"
        }
      ],
      "stateMutability": "view",
      "type": "function"
    },
    {
      "inputs": [],
      "name": "faucet",
      "outputs": [],
      "stateMutability": "nonpayable",
      "type": "function"
    },
    {
      "inputs": [
        {
          "internalType": "address",
          "name": "",
          "type": "address"
        }
      ],
      "name": "lastFaucetTime",
      "outputs": [
        {
          "internalType": "uint256",
          "name": "",
          "type": "uint256"
        }
      ],
      "stateMutability": "view",
      "type": "function"
    },
    {
      "inputs": [
        {
          "internalType": "address",
          "name": "to",
          "type": "address"
        },
        {
          "internalType": "uint256",
          "name": "amount",
          "type": "uint256"
        }
      ],
      "name": "mint",
      "outputs": [],
      "stateMutability": "nonpayable",
      "type": "function"
    },
    {
      "inputs": [],
      "name": "name",
      "outputs": [
        {
          "internalType": "string",
          "name": "",
          "type": "string"
        }
      ],
      "stateMutability": "view",
      "type": "function"
    },
    {
      "inputs": [],
      "name": "owner",
      "outputs": [
        {
          "internalType": "address",
          "name": "",
          "type": "address"
        }
      ],
      "stateMutability": "view",
      "type": "function"
    },
    {
      "inputs": [],
      "name": "renounceOwnership",
      "outputs": [],
      "stateMutability": "nonpayable",
      "type": "function"
    },
    {
      "inputs": [],
      "name": "symbol",
      "outputs": [
        {
          "internalType": "string",
          "name": "",
          "type": "string"
        }
      ],
      "stateMutability": "view",
      "type": "function"
    },
    {
      "inputs": [],
      "name": "totalSupply",
      "outputs": [
        {
          "internalType": "uint256",
          "name": "",
          "type": "uint256"
        }
      ],
      "stateMutability": "view",
      "type": "function"
    },
    {
      "inputs": [
        {
          "internalType": "address",
          "name": "to",
          "type": "address"
        },
        {
          "internalType": "uint256",
          "name": "value",
          "type": "uint256"
        }
      ],
      "name": "transfer",
      "outputs": [
        {
          "internalType": "bool",
          "name": "",
          "type": "bool"
        }
      ],
      "stateMutability": "nonpayable",
      "type": "function"
    },
    {
      "inputs": [
        {
          "internalType": "address",
          "name": "from",
          "type": "address"
        },
        {
          "internalType": "address",
          "name": "to",
          "type": "address"
        },
        {
          "internalType": "uint256",
          "name": "value",
          "type": "uint256"
        }
      ],
      "name": "transferFrom",
      "outputs": [
        {
          "internalType": "bool",
          "name": "",
          "type": "bool"
        }
      ],
      "stateMutability": "nonpayable",
      "type": "function"
    },
    {
      "inputs": [
        {
          "internalType": "address",
          "name": "newOwner",
          "type": "address"
        }
      ],
      "name": "transferOwnership",
      "outputs": [],
      "stateMutability": "nonpayable",
      "type": "function"
    }
  ],
  "bytecode": "0x608060405234801562000010575f80fd5b5033604051806040016040528060098152602001684d6f636b205553444360b81b815250604051806040016040528060048152602001635553444360e01b815250816003908162000062919062000320565b50600462000071828262000320565b5050506001600160a01b038116620000a357604051631e4fbdf760e01b81525f60048201526024015b60405180910390fd5b620000ae81620000c6565b50620000c03364e8d4a5100062000117565b62000412565b600580546001600160a01b038381166001600160a01b0319831681179093556040519116919082907f8be0079c531659141344cd1fd0a4f28419497f9722a3daafe3b4186f6b6457e0905f90a35050565b6001600160a01b038216620001425760405163ec442f0560e01b81525f60048201526024016200009a565b6200014f5f838362000153565b5050565b6001600160a01b03831662000181578060025f828254620001759190620003ec565b90915550620001f39050565b6001600160a01b0383165f9081526020819052604090205481811015620001d55760405163391434e360e21b81526001600160a01b038516600482015260248101829052604481018390526064016200009a565b6001600160a01b0384165f9081526020819052604090209082900390555b6001600160a01b03821662000211576002805482900390556200022f565b6001600160a01b0382165f9081526020819052604090208054820190555b816001600160a01b0316836001600160a01b03167fddf252ad1be2c89b69c2b068fc378daa952ba7f163c4a11628f55a4df523b3ef836040516200027591815260200190565b60405180910390a3505050565b634e487b7160e01b5f52604160045260245ffd5b600181811c90821680620002ab57607f821691505b602082108103620002ca57634e487b7160e01b5f52602260045260245ffd5b50919050565b601f8211156200031b57805f5260205f20601f840160051c81016020851015620002f75750805b601f840160051c820191505b8181101562000318575f815560010162000303565b50505b505050565b81516001600160401b038111156200033c576200033c62000282565b62000354816200034d845462000296565b84620002d0565b602080601f8311600181146200038a575f8415620003725750858301515b5f19600386901b1c1916600185901b178555620003e4565b5f85815260208120601f198616915b82811015620003ba5788860151825594840194600190910190840162000399565b5085821015620003d857878501515f19600388901b60f8161c191681555b505060018460011b0185555b505050505050565b808201808211156200040c57634e487b7160e01b5f52601160045260245ffd5b92915050565b61099380620004205f395ff3fe608060405234801561000f575f80fd5b5060043610610106575f3560e01c8063766976401161009e57806395d89b411161006e57806395d89b4114610213578063a9059cbb1461021b578063dd62ed3e1461022e578063de5f72fd14610266578063f2fde38b1461026e575f80fd5b806376697640146101c45780637bc1f6cc146101cf5780637d1d5d19146101ee5780638da5cb5b146101f8575f80fd5b8063313ce567116100d9578063313ce5671461017057806340c10f191461017f57806370a0823114610194578063715018a6146101bc575f80fd5b806306fdde031461010a578063095ea7b31461012857806318160ddd1461014b57806323b872dd1461015d575b5f80fd5b610112610281565b60405161011f91906107ed565b60405180910390f35b61013b610136366004610854565b610311565b604051901515815260200161011f565b6002545b60405190815260200161011f565b61013b61016b36600461087c565b61032a565b6040516006815260200161011f565b61019261018d366004610854565b61034d565b005b61014f6101a23660046108b5565b6001600160a01b03165f9081526020819052604090205490565b610192610363565b61014f6305f5e10081565b61014f6101dd3660046108b5565b60066020525f908152604090205481565b61014f6201518081565b6005546040516001600160a01b03909116815260200161011f565b610112610376565b61013b610229366004610854565b610385565b61014f61023c3660046108d5565b6001600160a01b039182165f90815260016020908152604080832093909416825291909152205490565b610192610392565b61019261027c3660046108b5565b61041b565b60606003805461029090610906565b80601f01602080910402602001604051908101604052809291908181526020018280546102bc90610906565b80156103075780601f106102de57610100808354040283529160200191610307565b820191905f5260205f20905b8154815290600101906020018083116102ea57829003601f168201915b5050505050905090565b5f3361031e818585610458565b60019150505b92915050565b5f3361033785828561046a565b6103428585856104e6565b506001949350505050565b610355610543565b61035f8282610570565b5050565b61036b610543565b6103745f6105a4565b565b60606004805461029090610906565b5f3361031e8185856104e6565b335f908152600660205260409020546103af90620151809061093e565b4210156103fc5760405162461bcd60e51b815260206004820152601660248201527546617563657420636f6f6c646f776e2061637469766560501b60448201526064015b60405180910390fd5b335f818152600660205260409020429055610374906305f5e100610570565b610423610543565b6001600160a01b03811661044c57604051631e4fbdf760e01b81525f60048201526024016103f3565b610455816105a4565b50565b61046583838360016105f5565b505050565b6001600160a01b038381165f908152600160209081526040808320938616835292905220545f198110156104e057818110156104d257604051637dc7a0d960e11b81526001600160a01b038416600482015260248101829052604481018390526064016103f3565b6104e084848484035f6105f5565b50505050565b6001600160a01b03831661050f57604051634b637e8f60e11b81525f60048201526024016103f3565b6001600160a01b0382166105385760405163ec442f0560e01b81525f60048201526024016103f3565b6104658383836106c7565b6005546001600160a01b031633146103745760405163118cdaa760e01b81523360048201526024016103f3565b6001600160a01b0382166105995760405163ec442f0560e01b81525f60048201526024016103f3565b61035f5f83836106c7565b600580546001600160a01b038381166001600160a01b0319831681179093556040519116919082907f8be0079c531659141344cd1fd0a4f28419497f9722a3daafe3b4186f6b6457e0905f90a35050565b6001600160a01b03841661061e5760405163e602df0560e01b81525f60048201526024016103f3565b6001600160a01b03831661064757604051634a1406b160e11b81525f60048201526024016103f3565b6001600160a01b038085165f90815260016020908152604080832093871683529290522082905580156104e057826001600160a01b0316846001600160a01b03167f8c5be1e5ebec7d5bd14f71427d1e84f3dd0314c0f7b2291e5b200ac8c7c3b925846040516106b991815260200190565b60405180910390a350505050565b6001600160a01b0383166106f1578060025f8282546106e6919061093e565b909155506107619050565b6001600160a01b0383165f90815260208190526040902054818110156107435760405163391434e360e21b81526001600160a01b038516600482015260248101829052604481018390526064016103f3565b6001600160a01b0384165f9081526020819052604090209082900390555b6001600160a01b03821661077d5760028054829003905561079b565b6001600160a01b0382165f9081526020819052604090208054820190555b816001600160a01b0316836001600160a01b03167fddf252ad1be2c89b69c2b068fc378daa952ba7f163c4a11628f55a4df523b3ef836040516107e091815260200190565b60405180910390a3505050565b5f602080835283518060208501525f5b81811015610819578581018301518582016040015282016107fd565b505f604082860101526040601f19601f8301168501019250505092915050565b80356001600160a01b038116811461084f575f80fd5b919050565b5f8060408385031215610865575f80fd5b61086e83610839565b946020939093013593505050565b5f805f6060848603121561088e575f80fd5b61089784610839565b92506108a560208501610839565b9150604084013590509250925092565b5f602082840312156108c5575f80fd5b6108ce82610839565b9392505050565b5f80604083850312156108e6575f80fd5b6108ef83610839565b91506108fd60208401610839565b90509250929050565b600181811c9082168061091a57607f821691505b60208210810361093857634e487b7160e01b5f52602260045260245ffd5b50919050565b8082018082111561032457634e487b7160e01b5f52601160045260245ffdfea2646970667358221220f4baa80e1e8e39677d68e71672e1ac712a12c27c89ea02db64e2c1f3d80c986b64736f6c63430008180033",
  "linkReferences": {},
  "deployedLinkReferences": {}
}