{
  "_format": "hh-sol-artifact-1",
  "contractName": "MockUSDC",
  "sourceName": "contracts/MockUSDC.sol",
  "abi": [
    {
      "inputs": [],
      "stateMutability": "nonpayable",
      "type": "constructor"
    },
    {
      "inputs": [
        {
          "internalType": "address",
          "name": "spender",
          "type": "address"
        },
        {
          "internalType": "uint256",
          "name": "allowance",
          "type": "uint256"
        },
        {
          "internalType": "uint256",
          "name": "needed",
          "type": "uint256"
        }
      ],
      "name": "ERC20InsufficientAllowance",
      "type": "error"
    },
    {
      "inputs": [
        {
          "internalType": "address",
          "name": "sender",
          "type": "address"
        },
        {
          "internalType": "uint256",
          "name": "balance",
          "type": "uint256"
        },
        {
          "internalType": "uint256",
          "name": "needed",
          "type": "uint256"
        }
      ],
      "name": "ERC20InsufficientBalance",
      "type": "error"
    },
    {
      "inputs": [
        {
          "internalType": "address",
          "name": "approver",
          "type": "address"
        }
      ],
      "name": "ERC20InvalidApprover",
      "type": "error"
    },
    {
      "inputs": [
        {
          "internalType": "address",
          "name": "receiver",
          "type": "address"
        }
      ],
      "name": "ERC20InvalidReceiver",
      "type": "error"
    },
    {
      "inputs": [
        {
          "internalType": "address",
          "name": "sender",
          "type": "address"
        }
      ],
      "name": "ERC20InvalidSender",
      "type": "error"
    },
    {
      "inputs": [
        {
          "internalType": "address",
          "name": "spender",
          "type": "address"
        }
      ],
      "name": "ERC20InvalidSpender",
      "type": "error"
    },
    {
      "inputs": [
        {
          "internalType": "address",
          "name": "owner",
          "type": "address"
        }
      ],
      "name": "OwnableInvalidOwner",
      "type": "error"
    },
    {
      "inputs": [
        {
          "internalType": "address",
          "name": "account",
          "type": "address"
        }
      ],
      "name": "OwnableUnauthorizedAccount",
      "type": "error"
    },
    {
      "anonymous": false,
      "inputs": [
        {
          "indexed": true,
          "internalType": "address",
          "name": "owner",
          "type": "address"
        },
        {
          "indexed": true,
          "internalType": "address",
          "name": "spender",
          "type": "address"
        },
        {
          "indexed": false,
          "internalType": "uint256",
          "name": "value",
          "type": "uint256"
        }
      ],
      "name": "Approval",
      "type": "event"
    },
    {
      "anonymous": false,
      "inputs": [
        {
          "indexed": true,
          "internalType": "address",
          "name": "previousOwner",
          "type": "address"
        },
        {
          "indexed": true,
          "internalType": "address",
          "name": "newOwner",
          "type": "address"
        }
      ],
      "name": "OwnershipTransferred",
      "type": "event"
    },
    {
      "anonymous": false,
      "inputs": [
        {
          "indexed": true,
          "internalType": "address",
          "name": "from",
          "type": "address"
        },
        {
          "indexed": true,
          "internalType": "address",
          "name": "to",
          "type": "address"
        },
        {
          "indexed": false,
          "internalType": "uint256",
          "name": "value",
          "type": "uint256"
        }
      ],
      "name": "Transfer",
      "type": "event"
    },
    {
      "inputs": [],
      "name": "FAUCET_AMOUNT",
      "outputs": [
        {
          "internalType": "uint256",
          "name": "",
          "type": "uint256"
        }
      ],
      "stateMutability": "view",
      "type": "function"
    },
    {
      "inputs": [],
      "name": "FAUCET_COOLDOWN",
      "outputs": [
        {
          "internalType": "uint256",
          "name": "",
          "type": "uint256"
        }
      ],
      "stateMutability": "view",
      "type": "function"
    },
    {
      "inputs": [
        {
          "internalType": "address",
          "name": "owner",
          "type": "address"
        },
        {
          "internalType": "address",
          "name": "spender",
          "type": "address"
        }
      ],
      "name": "allowance",
      "outputs": [
        {
          "internalType": "uint256",
          "name": "",
          "type": "uint256"
        }
      ],
      "stateMutability": "view",
      "type": "function"
    },
    {
      "inputs": [
        {
          "internalType": "address",
          "name": "spender",
          "type": "address"
        },
        {
          "internalType": "uint256",
          "name": "value",
          "type": "uint256"
        }
      ],
      "name": "approve",
      "outputs": [
        {
          "internalType": "bool",
          "name": "",
          "type": "bool"
        }
      ],
      "stateMutability": "nonpayable",
      "type": "function"
    },
    {
      "inputs": [
        {
          "internalType": "address",
          "name": "account",
          "type": "address"
        }
      ],
      "name": "balanceOf",
      "outputs": [
        {
          "internalType": "uint256",
          "name": "",
          "type": "uint256"
        }
      ],
      "stateMutability": "view",
      "type": "function"
    },
    {
      "inputs": [],
      "name": "decimals",
      "outputs": [
        {
          "internalType": "uint8",
          "name": "",
          "type": "uint8"
        }
      ],
      "stateMutability": "view",
      "type": "function"
    },
    {
      "inputs": [],
      "name": "faucet",
      "outputs": [],
      "stateMutability": "nonpayable",
      "type": "function"
    },
    {
      "inputs": [
        {
          "internalType": "address",
          "name": "",
          "type": "address"
        }
      ],
      "name": "lastFaucetTime",
      "outputs": [
        {
          "internalType": "uint256",
          "name": "",
          "type": "uint256"
        }
      ],
      "stateMutability": "view",
      "type": "function"
    },
    {
      "inputs": [
        {
          "internalType": "address",
          "name": "to",
          "type": "address"
        },
        {
          "internalType": "uint256",
          "name": "amount",
          "type": "uint256"
        }
      ],
      "name": "mint",
      "outputs": [],
      "stateMutability": "nonpayable",
      "type": "function"
    },
    {
      "inputs": [],
      "name": "name",
      "outputs": [
        {
          "internalType": "string",
          "name": "",
          "type": "string"
        }
      ],
      "stateMutability": "view",
      "type": "function"
    },
    {
      "inputs": [],
      "name": "owner",
      "outputs": [
        {
          "internalType": "address",
          "name": "",
          "type": "address"
        }
      ],
      "stateMutability": "view",
      "type": "function"
    },
    {
      "inputs": [],
      "name": "renounceOwnership",
      "outputs": [],
      "stateMutability": "nonpayable",
      "type": "function"
    },
    {
      "inputs": [],
      "name": "symbol",
      "outputs": [
        {
          "internalType": "string",
          "name": "",
          "type": "string"
        }
      ],
      "stateMutability": "view",
      "type": "function"
    },
    {
      "inputs": [],
      "name": "totalSupply",
      "outputs": [
        {
          "internalType": "uint256",
          "name": "",
          "type": "uint256"
        }
      ],
      "stateMutability": "view",
      "type": "function"
    },
    {
      "inputs": [
        {
          "internalType": "address",
          "name": "to",
          "type": "address"
        },
        {
          "internalType": "uint256",
          "name": "value",
          "type": "uint256"
        }
      ],
      "name": "transfer",
      "outputs": [
        {
          "internalType": "bool",
          "name": "",
          "type": "bool"
        }
      ],
      "stateMutability": "nonpayable",
      "type": "function"
    },
    {
      "inputs": [
        {
          "internalType": "address",
          "name": "from",
          "type": "address"
        },
        {
          "internalType": "address",
          "name": "to",
          "type": "address"
        },
        {
          "internalType": "uint256",
          "name": "value",
          "type": "uint256"
        }
      ],
      "name": "transferFrom",
      "outputs": [
        {
          "internalType": "bool",
          "name": "",
          "type": "bool"
        }
      ],
      "stateMutability": "nonpayable",
      "type": "function"
    },
    {
      "inputs": [
        {
          "internalType": "address",
          "name": "newOwner",
          "type": "address"
        }
      ],
      "name": "transferOwnership",
      "outputs": [],
      "stateMutability": "nonpayable",
      "type": "function"
    }
  ],
  "bytecode": "0x60806040523480156200001157600080fd5b5033604051806040016040528060098152602001684d6f636b205553444360b81b815250604051806040016040528060048152602001635553444360e01b815250816003908162000063919062000330565b50600462000072828262000330565b5050506001600160a01b038116620000a557604051631e4fbdf760e01b8152600060048201526024015b60405180910390fd5b620000b081620000c8565b50620000c23364e8d4a510006200011a565b62000424565b600580546001600160a01b038381166001600160a01b0319831681179093556040519116919082907f8be0079c531659141344cd1fd0a4f28419497f9722a3daafe3b4186f6b6457e090600090a35050565b6001600160a01b038216620001465760405163ec442f0560e01b8152600060048201526024016200009c565b620001546000838362000158565b5050565b6001600160a01b038316620001875780600260008282546200017b9190620003fc565b90915550620001fb9050565b6001600160a01b03831660009081526020819052604090205481811015620001dc5760405163391434e360e21b81526001600160a01b038516600482015260248101829052604481018390526064016200009c565b6001600160a01b03841660009081526020819052604090209082900390555b6001600160a01b038216620002195760028054829003905562000238565b6001600160a01b03821660009081526020819052604090208054820190555b816001600160a01b0316836001600160a01b03167fddf252ad1be2c89b69c2b068fc378daa952ba7f163c4a11628f55a4df523b3ef836040516200027e91815260200190565b60405180910390a3505050565b634e487b7160e01b600052604160045260246000fd5b600181811c90821680620002b657607f821691505b602082108103620002d757634e487b7160e01b600052602260045260246000fd5b50919050565b601f8211156200032b57600081815260208120601f850160051c81016020861015620003065750805b601f850160051c820191505b81811015620003275782815560010162000312565b5050505b505050565b81516001600160401b038111156200034c576200034c6200028b565b62000364816200035d8454620002a1565b84620002dd565b602080601f8311600181146200039c5760008415620003835750858301515b600019600386901b1c1916600185901b17855562000327565b600085815260208120601f198616915b82811015620003cd57888601518255948401946001909101908401620003ac565b5085821015620003ec5787850151600019600388901b60f8161c191681555b5050505050600190811b01905550565b808201808211156200041e57634e487b7160e01b600052601160045260246000fd5b92915050565b6109c480620004346000396000f3fe608060405234801561001057600080fd5b506004361061010b5760003560e01c806376697640116100a257806395d89b411161007157806395d89b411461021b578063a9059cbb14610223578063dd62ed3e14610236578063de5f72fd1461026f578063f2fde38b1461027757600080fd5b806376697640146101cb5780637bc1f6cc146101d65780637d1d5d19146101f65780638da5cb5b1461020057600080fd5b8063313ce567116100de578063313ce5671461017657806340c10f191461018557806370a082311461019a578063715018a6146101c357600080fd5b806306fdde0314610110578063095ea7b31461012e57806318160ddd1461015157806323b872dd14610163575b600080fd5b61011861028a565b604051610125919061080e565b60405180910390f35b61014161013c366004610878565b61031c565b6040519015158152602001610125565b6002545b604051908152602001610125565b6101416101713660046108a2565b610336565b60405160068152602001610125565b610198610193366004610878565b61035a565b005b6101556101a83660046108de565b6001600160a01b031660009081526020819052604090205490565b610198610370565b6101556305f5e10081565b6101556101e43660046108de565b60066020526000908152604090205481565b6101556201518081565b6005546040516001600160a01b039091168152602001610125565b610118610384565b610141610231366004610878565b610393565b610155610244366004610900565b6001600160a01b03918216600090815260016020908152604080832093909416825291909152205490565b6101986103a1565b6101986102853660046108de565b61042c565b60606003805461029990610933565b80601f01602080910402602001604051908101604052809291908181526020018280546102c590610933565b80156103125780601f106102e757610100808354040283529160200191610312565b820191906000526020600020905b8154815290600101906020018083116102f557829003601f168201915b5050505050905090565b60003361032a81858561046a565b60019150505b92915050565b60003361034485828561047c565b61034f8585856104fb565b506001949350505050565b61036261055a565b61036c8282610587565b5050565b61037861055a565b61038260006105bd565b565b60606004805461029990610933565b60003361032a8185856104fb565b336000908152600660205260409020546103bf90620151809061096d565b42101561040c5760405162461bcd60e51b815260206004820152601660248201527546617563657420636f6f6c646f776e2061637469766560501b60448201526064015b60405180910390fd5b336000818152600660205260409020429055610382906305f5e100610587565b61043461055a565b6001600160a01b03811661045e57604051631e4fbdf760e01b815260006004820152602401610403565b610467816105bd565b50565b610477838383600161060f565b505050565b6001600160a01b038381166000908152600160209081526040808320938616835292905220546000198110156104f557818110156104e657604051637dc7a0d960e11b81526001600160a01b03841660048201526024810182905260448101839052606401610403565b6104f58484848403600061060f565b50505050565b6001600160a01b03831661052557604051634b637e8f60e11b815260006004820152602401610403565b6001600160a01b03821661054f5760405163ec442f0560e01b815260006004820152602401610403565b6104778383836106e4565b6005546001600160a01b031633146103825760405163118cdaa760e01b8152336004820152602401610403565b6001600160a01b0382166105b15760405163ec442f0560e01b815260006004820152602401610403565b61036c600083836106e4565b600580546001600160a01b038381166001600160a01b0319831681179093556040519116919082907f8be0079c531659141344cd1fd0a4f28419497f9722a3daafe3b4186f6b6457e090600090a35050565b6001600160a01b0384166106395760405163e602df0560e01b815260006004820152602401610403565b6001600160a01b03831661066357604051634a1406b160e11b815260006004820152602401610403565b6001600160a01b03808516600090815260016020908152604080832093871683529290522082905580156104f557826001600160a01b0316846001600160a01b03167f8c5be1e5ebec7d5bd14f71427d1e84f3dd0314c0f7b2291e5b200ac8c7c3b925846040516106d691815260200190565b60405180910390a350505050565b6001600160a01b03831661070f578060026000828254610704919061096d565b909155506107819050565b6001600160a01b038316600090815260208190526040902054818110156107625760405163391434e360e21b81526001600160a01b03851660048201526024810182905260448101839052606401610403565b6001600160a01b03841660009081526020819052604090209082900390555b6001600160a01b03821661079d576002805482900390556107bc565b6001600160a01b03821660009081526020819052604090208054820190555b816001600160a01b0316836001600160a01b03167fddf252ad1be2c89b69c2b068fc378daa952ba7f163c4a11628f55a4df523b3ef8360405161080191815260200190565b60405180910390a3505050565b600060208083528351808285015260005b8181101561083b5785810183015185820160400152820161081f565b506000604082860101526040601f19601f8301168501019250505092915050565b80356001600160a01b038116811461087357600080fd5b919050565b6000806040838503121561088b57600080fd5b6108948361085c565b946020939093013593505050565b6000806000606084860312156108b757600080fd5b6108c08461085c565b92506108ce6020850161085c565b9150604084013590509250925092565b6000602082840312156108f057600080fd5b6108f98261085c565b9392505050565b6000806040838503121561091357600080fd5b61091c8361085c565b915061092a6020840161085c565b90509250929050565b600181811c9082168061094757607f821691505b60208210810361096757634e487b7160e01b600052602260045260246000fd5b50919050565b8082018082111561033057634e487b7160e01b600052601160045260246000fdfea264697066735822122098d75af6bc03029173e89f35188d127ca4917a0a548fe7c4e79293f52ac56c2464736f6c63430008140033",
  "linkReferences": {},
  "deployedLinkReferences": {}
}