{
  "_format": "hh-sol-artifact-1",
  "contractName": "HiveRegistry",
  "sourceName": "contracts/HiveRegistry.sol",
  "abi": [
    {
      "inputs": [
        {
          "internalType": "address",
          "name": "_usdcToken",
          "type": "address"
        },
        {
          "internalType": "address",
          "name": "_slashTreasury",
          "type": "address"
        }
      ],
      "stateMutability": "nonpayable",
      "type": "constructor"
    },
    {
      "inputs": [],
      "name": "ECDSAInvalidSignature",
      "type": "error"
    },
    {
      "inputs": [
        {
          "internalType": "uint256",
          "name": "length",
          "type": "uint256"
        }
      ],
      "name": "ECDSAInvalidSignatureLength",
      "type": "error"
    },
    {
      "inputs": [
        {
          "internalType": "bytes32",
          "name": "s",
          "type": "bytes32"
        }
      ],
      "name": "ECDSAInvalidSignatureS",
      "type": "error"
    },
    {
      "inputs": [],
      "name": "EnforcedPause",
      "type": "error"
    },
    {
      "inputs": [],
      "name": "ExpectedPause",
      "type": "error"
    },
    {
      "inputs": [],
      "name": "ReentrancyGuardReentrantCall",
      "type": "error"
    },
    {
      "anonymous": false,
      "inputs": [
        {
          "indexed": true,
          "internalType": "uint256",
          "name": "modelId",
          "type": "uint256"
        },
        {
          "indexed": false,
          "internalType": "string",
          "name": "name",
          "type": "string"
        },
        {
          "indexed": false,
          "internalType": "address",
          "name": "creatorWallet",
          "type": "address"
        },
        {
          "indexed": false,
          "internalType": "uint256",
          "name": "royaltyBps",
          "type": "uint256"
        }
      ],
      "name": "ModelRegistered",
      "type": "event"
    },
    {
      "anonymous": false,
      "inputs": [
        {
          "indexed": false,
          "internalType": "address",
          "name": "account",
          "type": "address"
        }
      ],
      "name": "Paused",
      "type": "event"
    },
    {
      "anonymous": false,
      "inputs": [
        {
          "indexed": true,
          "internalType": "uint256",
          "name": "providerId",
          "type": "uint256"
        },
        {
          "indexed": true,
          "internalType": "uint256",
          "name": "modelId",
          "type": "uint256"
        },
        {
          "indexed": false,
          "internalType": "address",
          "name": "wallet",
          "type": "address"
        },
        {
          "indexed": false,
          "internalType": "string",
          "name": "endpoint",
          "type": "string"
        },
        {
          "indexed": false,
          "internalType": "uint256",
          "name": "pricePerToken",
          "type": "uint256"
        }
      ],
      "name": "ProviderRegistered",
      "type": "event"
    },
    {
      "anonymous": false,
      "inputs": [
        {
          "indexed": true,
          "internalType": "uint256",
          "name": "providerId",
          "type": "uint256"
        },
        {
          "indexed": false,
          "internalType": "uint256",
          "name": "slashCount",
          "type": "uint256"
        },
        {
          "indexed": false,
          "internalType": "uint256",
          "name": "remainingStake",
          "type": "uint256"
        }
      ],
      "name": "ProviderSlashed",
      "type": "event"
    },
    {
      "anonymous": false,
      "inputs": [
        {
          "indexed": true,
          "internalType": "uint256",
          "name": "providerId",
          "type": "uint256"
        },
        {
          "indexed": false,
          "internalType": "uint256",
          "name": "amount",
          "type": "uint256"
        },
        {
          "indexed": false,
          "internalType": "uint256",
          "name": "totalStake",
          "type": "uint256"
        }
      ],
      "name": "ProviderStaked",
      "type": "event"
    },
    {
      "anonymous": false,
      "inputs": [
        {
          "indexed": true,
          "internalType": "uint256",
          "name": "taskId",
          "type": "uint256"
        }
      ],
      "name": "TaskExpired",
      "type": "event"
    },
    {
      "anonymous": false,
      "inputs": [
        {
          "indexed": true,
          "internalType": "uint256",
          "name": "taskId",
          "type": "uint256"
        },
        {
          "indexed": false,
          "internalType": "uint256",
          "name": "finalAmount",
          "type": "uint256"
        }
      ],
      "name": "TaskForceClaimed",
      "type": "event"
    },
    {
      "anonymous": false,
      "inputs": [
        {
          "indexed": true,
          "internalType": "uint256",
          "name": "taskId",
          "type": "uint256"
        },
        {
          "indexed": false,
          "internalType": "uint256",
          "name": "finalAmount",
          "type": "uint256"
        }
      ],
      "name": "TaskRejected",
      "type": "event"
    },
    {
      "anonymous": false,
      "inputs": [
        {
          "indexed": true,
          "internalType": "uint256",
          "name": "taskId",
          "type": "uint256"
        },
        {
          "indexed": true,
          "internalType": "address",
          "name": "client",
          "type": "address"
        },
        {
          "indexed": true,
          "internalType": "uint256",
          "name": "providerId",
          "type": "uint256"
        },
        {
          "indexed": false,
          "internalType": "uint256",
          "name": "maxBudget",
          "type": "uint256"
        },
        {
          "indexed": false,
          "internalType": "enum HiveRegistry.TaskMode",
          "name": "mode",
          "type": "uint8"
        }
      ],
      "name": "TaskRequested",
      "type": "event"
    },
    {
      "anonymous": false,
      "inputs": [
        {
          "indexed": true,
          "internalType": "uint256",
          "name": "taskId",
          "type": "uint256"
        },
        {
          "indexed": false,
          "internalType": "uint256",
          "name": "finalAmount",
          "type": "uint256"
        },
        {
          "indexed": false,
          "internalType": "bytes32",
          "name": "resultHash",
          "type": "bytes32"
        }
      ],
      "name": "TaskSettled",
      "type": "event"
    },
    {
      "anonymous": false,
      "inputs": [
        {
          "indexed": false,
          "internalType": "address",
          "name": "account",
          "type": "address"
        }
      ],
      "name": "Unpaused",
      "type": "event"
    },
    {
      "inputs": [],
      "name": "MAX_SLASH_COUNT",
      "outputs": [
        {
          "internalType": "uint256",
          "name": "",
          "type": "uint256"
        }
      ],
      "stateMutability": "view",
      "type": "function"
    },
    {
      "inputs": [],
      "name": "MINIMUM_STAKE",
      "outputs": [
        {
          "internalType": "uint256",
          "name": "",
          "type": "uint256"
        }
      ],
      "stateMutability": "view",
      "type": "function"
    },
    {
      "inputs": [
        {
          "internalType": "address",
          "name": "client",
          "type": "address"
        },
        {
          "internalType": "uint256",
          "name": "providerId",
          "type": "uint256"
        },
        {
          "internalType": "uint256",
          "name": "maxBudget",
          "type": "uint256"
        },
        {
          "internalType": "bytes32",
          "name": "promptHash",
          "type": "bytes32"
        },
        {
          "internalType": "enum HiveRegistry.TaskMode",
          "name": "mode",
          "type": "uint8"
        }
      ],
      "name": "createTask",
      "outputs": [
        {
          "internalType": "uint256",
          "name": "",
          "type": "uint256"
        }
      ],
      "stateMutability": "nonpayable",
      "type": "function"
    },
    {
      "inputs": [
        {
          "internalType": "uint256",
          "name": "providerId",
          "type": "uint256"
        }
      ],
      "name": "deactivateProvider",
      "outputs": [],
      "stateMutability": "nonpayable",
      "type": "function"
    },
    {
      "inputs": [
        {
          "internalType": "uint256",
          "name": "taskId",
          "type": "uint256"
        }
      ],
      "name": "expireTask",
      "outputs": [],
      "stateMutability": "nonpayable",
      "type": "function"
    },
    {
      "inputs": [
        {
          "internalType": "uint256",
          "name": "taskId",
          "type": "uint256"
        },
        {
          "internalType": "uint256",
          "name": "finalAmount",
          "type": "uint256"
        },
        {
          "internalType": "bytes32",
          "name": "resultHash",
          "type": "bytes32"
        },
        {
          "internalType": "bytes",
          "name": "signature",
          "type": "bytes"
        }
      ],
      "name": "forceClaim",
      "outputs": [],
      "stateMutability": "nonpayable",
      "type": "function"
    },
    {
      "inputs": [
        {
          "internalType": "uint256",
          "name": "modelId",
          "type": "uint256"
        }
      ],
      "name": "getActiveProviders",
      "outputs": [
        {
          "components": [
            {
              "internalType": "uint256",
              "name": "id",
              "type": "uint256"
            },
            {
              "internalType": "uint256",
              "name": "modelId",
              "type": "uint256"
            },
            {
              "internalType": "address",
              "name": "wallet",
              "type": "address"
            },
            {
              "internalType": "string",
              "name": "endpoint",
              "type": "string"
            },
            {
              "internalType": "uint256",
              "name": "pricePerToken",
              "type": "uint256"
            },
            {
              "internalType": "uint256",
              "name": "stakedAmount",
              "type": "uint256"
            },
            {
              "internalType": "uint256",
              "name": "totalTasksCompleted",
              "type": "uint256"
            },
            {
              "internalType": "uint256",
              "name": "totalTasksFailed",
              "type": "uint256"
            },
            {
              "internalType": "uint256",
              "name": "slashCount",
              "type": "uint256"
            },
            {
              "internalType": "bool",
              "name": "isActive",
              "type": "bool"
            }
          ],
          "internalType": "struct HiveRegistry.Provider[]",
          "name": "",
          "type": "tuple[]"
        }
      ],
      "stateMutability": "view",
      "type": "function"
    },
    {
      "inputs": [
        {
          "internalType": "uint256",
          "name": "",
          "type": "uint256"
        },
        {
          "internalType": "uint256",
          "name": "",
          "type": "uint256"
        }
      ],
      "name": "modelProviders",
      "outputs": [
        {
          "internalType": "uint256",
          "name": "",
          "type": "uint256"
        }
      ],
      "stateMutability": "view",
      "type": "function"
    },
    {
      "inputs": [
        {
          "internalType": "uint256",
          "name": "",
          "type": "uint256"
        }
      ],
      "name": "models",
      "outputs": [
        {
          "internalType": "uint256",
          "name": "id",
          "type": "uint256"
        },
        {
          "internalType": "string",
          "name": "name",
          "type": "string"
        },
        {
          "internalType": "string",
          "name": "niche",
          "type": "string"
        },
        {
          "internalType": "address",
          "name": "creatorWallet",
          "type": "address"
        },
        {
          "internalType": "uint256",
          "name": "royaltyBps",
          "type": "uint256"
        },
        {
          "internalType": "uint256",
          "name": "maxPricePerToken",
          "type": "uint256"
        },
        {
          "internalType": "bool",
          "name": "isActive",
          "type": "bool"
        }
      ],
      "stateMutability": "view",
      "type": "function"
    },
    {
      "inputs": [],
      "name": "nextModelId",
      "outputs": [
        {
          "internalType": "uint256",
          "name": "",
          "type": "uint256"
        }
      ],
      "stateMutability": "view",
      "type": "function"
    },
    {
      "inputs": [],
      "name": "nextProviderId",
      "outputs": [
        {
          "internalType": "uint256",
          "name": "",
          "type": "uint256"
        }
      ],
      "stateMutability": "view",
      "type": "function"
    },
    {
      "inputs": [],
      "name": "nextTaskId",
      "outputs": [
        {
          "internalType": "uint256",
          "name": "",
          "type": "uint256"
        }
      ],
      "stateMutability": "view",
      "type": "function"
    },
    {
      "inputs": [],
      "name": "pause",
      "outputs": [],
      "stateMutability": "nonpayable",
      "type": "function"
    },
    {
      "inputs": [],
      "name": "paused",
      "outputs": [
        {
          "internalType": "bool",
          "name": "",
          "type": "bool"
        }
      ],
      "stateMutability": "view",
      "type": "function"
    },
    {
      "inputs": [],
      "name": "pauser",
      "outputs": [
        {
          "internalType": "address",
          "name": "",
          "type": "address"
        }
      ],
      "stateMutability": "view",
      "type": "function"
    },
    {
      "inputs": [],
      "name": "platformFeeBps",
      "outputs": [
        {
          "internalType": "uint256",
          "name": "",
          "type": "uint256"
        }
      ],
      "stateMutability": "view",
      "type": "function"
    },
    {
      "inputs": [
        {
          "internalType": "uint256",
          "name": "",
          "type": "uint256"
        }
      ],
      "name": "providerPendingTasks",
      "outputs": [
        {
          "internalType": "uint256",
          "name": "",
          "type": "uint256"
        }
      ],
      "stateMutability": "view",
      "type": "function"
    },
    {
      "inputs": [
        {
          "internalType": "uint256",
          "name": "",
          "type": "uint256"
        }
      ],
      "name": "providers",
      "outputs": [
        {
          "internalType": "uint256",
          "name": "id",
          "type": "uint256"
        },
        {
          "internalType": "uint256",
          "name": "modelId",
          "type": "uint256"
        },
        {
          "internalType": "address",
          "name": "wallet",
          "type": "address"
        },
        {
          "internalType": "string",
          "name": "endpoint",
          "type": "string"
        },
        {
          "internalType": "uint256",
          "name": "pricePerToken",
          "type": "uint256"
        },
        {
          "internalType": "uint256",
          "name": "stakedAmount",
          "type": "uint256"
        },
        {
          "internalType": "uint256",
          "name": "totalTasksCompleted",
          "type": "uint256"
        },
        {
          "internalType": "uint256",
          "name": "totalTasksFailed",
          "type": "uint256"
        },
        {
          "internalType": "uint256",
          "name": "slashCount",
          "type": "uint256"
        },
        {
          "internalType": "bool",
          "name": "isActive",
          "type": "bool"
        }
      ],
      "stateMutability": "view",
      "type": "function"
    },
    {
      "inputs": [
        {
          "internalType": "string",
          "name": "name",
          "type": "string"
        },
        {
          "internalType": "string",
          "name": "niche",
          "type": "string"
        },
        {
          "internalType": "address",
          "name": "creatorWallet",
          "type": "address"
        },
        {
          "internalType": "uint256",
          "name": "royaltyBps",
          "type": "uint256"
        },
        {
          "internalType": "uint256",
          "name": "maxPricePerToken",
          "type": "uint256"
        }
      ],
      "name": "registerModel",
      "outputs": [
        {
          "internalType": "uint256",
          "name": "",
          "type": "uint256"
        }
      ],
      "stateMutability": "nonpayable",
      "type": "function"
    },
    {
      "inputs": [
        {
          "internalType": "uint256",
          "name": "modelId",
          "type": "uint256"
        },
        {
          "internalType": "string",
          "name": "endpoint",
          "type": "string"
        },
        {
          "internalType": "uint256",
          "name": "pricePerToken",
          "type": "uint256"
        },
        {
          "internalType": "uint256",
          "name": "initialStake",
          "type": "uint256"
        }
      ],
      "name": "registerProvider",
      "outputs": [
        {
          "internalType": "uint256",
          "name": "",
          "type": "uint256"
        }
      ],
      "stateMutability": "nonpayable",
      "type": "function"
    },
    {
      "inputs": [
        {
          "internalType": "uint256",
          "name": "taskId",
          "type": "uint256"
        },
        {
          "internalType": "uint256",
          "name": "finalAmount",
          "type": "uint256"
        },
        {
          "internalType": "bytes32",
          "name": "resultHash",
          "type": "bytes32"
        },
        {
          "internalType": "bytes",
          "name": "signature",
          "type": "bytes"
        }
      ],
      "name": "rejectTask",
      "outputs": [],
      "stateMutability": "nonpayable",
      "type": "function"
    },
    {
      "inputs": [
        {
          "internalType": "uint256",
          "name": "newFeeBps",
          "type": "uint256"
        }
      ],
      "name": "setPlatformFeeBps",
      "outputs": [],
      "stateMutability": "nonpayable",
      "type": "function"
    },
    {
      "inputs": [
        {
          "internalType": "uint256",
          "name": "taskId",
          "type": "uint256"
        },
        {
          "internalType": "uint256",
          "name": "finalAmount",
          "type": "uint256"
        },
        {
          "internalType": "bytes32",
          "name": "resultHash",
          "type": "bytes32"
        },
        {
          "internalType": "bytes",
          "name": "signature",
          "type": "bytes"
        }
      ],
      "name": "settleTask",
      "outputs": [],
      "stateMutability": "nonpayable",
      "type": "function"
    },
    {
      "inputs": [],
      "name": "slashTreasury",
      "outputs": [
        {
          "internalType": "address",
          "name": "",
          "type": "address"
        }
      ],
      "stateMutability": "view",
      "type": "function"
    },
    {
      "inputs": [
        {
          "internalType": "uint256",
          "name": "providerId",
          "type": "uint256"
        },
        {
          "internalType": "uint256",
          "name": "amount",
          "type": "uint256"
        }
      ],
      "name": "stakeForProvider",
      "outputs": [],
      "stateMutability": "nonpayable",
      "type": "function"
    },
    {
      "inputs": [
        {
          "internalType": "uint256",
          "name": "",
          "type": "uint256"
        }
      ],
      "name": "tasks",
      "outputs": [
        {
          "internalType": "address",
          "name": "client",
          "type": "address"
        },
        {
          "internalType": "address",
          "name": "orchestrator",
          "type": "address"
        },
        {
          "internalType": "uint256",
          "name": "providerId",
          "type": "uint256"
        },
        {
          "internalType": "uint256",
          "name": "maxBudget",
          "type": "uint256"
        },
        {
          "internalType": "uint256",
          "name": "finalAmount",
          "type": "uint256"
        },
        {
          "internalType": "bytes32",
          "name": "promptHash",
          "type": "bytes32"
        },
        {
          "internalType": "bytes32",
          "name": "resultHash",
          "type": "bytes32"
        },
        {
          "internalType": "enum HiveRegistry.TaskMode",
          "name": "mode",
          "type": "uint8"
        },
        {
          "internalType": "enum HiveRegistry.TaskStatus",
          "name": "status",
          "type": "uint8"
        },
        {
          "internalType": "uint256",
          "name": "createdAt",
          "type": "uint256"
        },
        {
          "internalType": "uint256",
          "name": "providerDeadline",
          "type": "uint256"
        },
        {
          "internalType": "uint256",
          "name": "userDeadline",
          "type": "uint256"
        }
      ],
      "stateMutability": "view",
      "type": "function"
    },
    {
      "inputs": [
        {
          "internalType": "address",
          "name": "newPauser",
          "type": "address"
        }
      ],
      "name": "transferPauser",
      "outputs": [],
      "stateMutability": "nonpayable",
      "type": "function"
    },
    {
      "inputs": [],
      "name": "unpause",
      "outputs": [],
      "stateMutability": "nonpayable",
      "type": "function"
    },
    {
      "inputs": [
        {
          "internalType": "uint256",
          "name": "providerId",
          "type": "uint256"
        }
      ],
      "name": "unstakeFromProvider",
      "outputs": [],
      "stateMutability": "nonpayable",
      "type": "function"
    },
    {
      "inputs": [
        {
          "internalType": "uint256",
          "name": "providerId",
          "type": "uint256"
        },
        {
          "internalType": "string",
          "name": "endpoint",
          "type": "string"
        },
        {
          "internalType": "uint256",
          "name": "pricePerToken",
          "type": "uint256"
        }
      ],
      "name": "updateProviderConfig",
      "outputs": [],
      "stateMutability": "nonpayable",
      "type": "function"
    },
    {
      "inputs": [],
      "name": "usdcToken",
      "outputs": [
        {
          "internalType": "contract IERC20",
          "name": "",
          "type": "address"
        }
      ],
      "stateMutability": "view",
      "type": "function"
    },
    {
      "inputs": [
        {
          "internalType": "uint256",
          "name": "taskId",
          "type": "uint256"
        },
        {
          "internalType": "uint256",
          "name": "finalAmount",
          "type": "uint256"
        },
        {
          "internalType": "bytes32",
          "name": "resultHash",
          "type": "bytes32"
        },
        {
          "internalType": "bytes",
          "name": "signature",
          "type": "bytes"
        }
      ],
      "name": "verifySignature",
      "outputs": [
        {
          "internalType": "bool",
          "name": "",
          "type": "bool"
        }
      ],
      "stateMutability": "view",
      "type": "function"
    }
  ],
  "bytecode": "0x60c06040526101f460015534801562000016575f80fd5b5060405162003db438038062003db483398101604081905262000039916200015b565b60017f9b779b17422d0df92223018b32b4d1fa46e071723d6817e2486d003becc55f00556001600160a01b038216620000b95760405162461bcd60e51b815260206004820152601560248201527f496e76616c696420746f6b656e2061646472657373000000000000000000000060448201526064015b60405180910390fd5b6001600160a01b038116620001115760405162461bcd60e51b815260206004820152601860248201527f496e76616c6964207472656173757279206164647265737300000000000000006044820152606401620000b0565b6001600160a01b039182166080521660a0525f8054610100600160a81b031916336101000217905562000191565b80516001600160a01b038116811462000156575f80fd5b919050565b5f80604083850312156200016d575f80fd5b62000178836200013f565b915062000188602084016200013f565b90509250929050565b60805160a051613b91620002235f395f8181610459015281816108a0015281816128b90152612ba601525f818161020d0152818161078f0152818161087301528181610975015281816112c10152818161199d0152818161201f015281816121f1015281816126f20152818161288c01528181612a9501528181612b7901528181612c7e0152612d620152613b915ff3fe608060405234801561000f575f80fd5b50600436106101e7575f3560e01c806370df368311610109578063b44965e61161009e578063e472ae8b1161006e578063e472ae8b146104e6578063ea288221146104ef578063fc9b073514610502578063fdc3d8d714610515575f80fd5b8063b44965e6146104a5578063c580c942146104b8578063c63c0fda146104cb578063cb8f4c4a146104de575f80fd5b80638d977672116100d95780638d977672146103be57806399580651146104545780639fd0506d1461047b578063a2d7854814610492575f80fd5b806370df36831461036457806378bbe6fa146103845780638456cb59146103a35780638720f732146103ab575f80fd5b80634be0fcbc1161017f5780635c975abb1161014f5780635c975abb1461030e57806362ecc47a14610318578063654ab4c61461032b5780636a030ca91461033e575f80fd5b80634be0fcbc146102b657806350f3fc81146102c957806351a8dbcf146102f2578063540d2748146102fb575f80fd5b806322dcd13e116101ba57806322dcd13e1461026f5780633179b6c6146102785780633f4ba83a1461029b5780634421ea21146102a3575f80fd5b806308dbbb03146101eb57806311eac8551461020857806317f423a8146102475780631ecf38d61461025c575b5f80fd5b6101f5620f424081565b6040519081526020015b60405180910390f35b61022f7f000000000000000000000000000000000000000000000000000000000000000081565b6040516001600160a01b0390911681526020016101ff565b61025a6102553660046130e5565b61051e565b005b61025a61026a3660046130e5565b610a67565b6101f560015481565b61028b6102863660046130e5565b610ca8565b60405190151581526020016101ff565b61025a610d62565b61025a6102b13660046131c7565b610d9a565b6101f56102c436600461322c565b610def565b6102dc6102d73660046132b9565b61104d565b6040516101ff9a99989796959493929190613313565b6101f560045481565b61025a6103093660046132b9565b611131565b5f5460ff1661028b565b61025a6103263660046132b9565b6111b0565b6101f561033936600461337d565b61139b565b61035161034c3660046132b9565b6113c6565b6040516101ff979695949392919061339d565b6103776103723660046132b9565b61151a565b6040516101ff91906133f9565b6101f56103923660046132b9565b60096020525f908152604090205481565b61025a611846565b6101f56103b93660046134dd565b61187c565b61043c6103cc3660046132b9565b600860208190525f918252604090912080546001820154600283015460038401546004850154600586015460068701546007880154988801546009890154600a909901546001600160a01b039889169a97909816989597949693959294919360ff8082169461010090920416928c565b6040516101ff9c9b9a9998979695949392919061355e565b61022f7f000000000000000000000000000000000000000000000000000000000000000081565b5f5461022f9061010090046001600160a01b031681565b61025a6104a03660046130e5565b611c32565b61025a6104b33660046132b9565b611f02565b61025a6104c63660046132b9565b6120ce565b61025a6104d936600461337d565b612142565b6101f5600581565b6101f560025481565b61025a6104fd3660046135e4565b6122f8565b6101f5610510366004613633565b6123a3565b6101f560075481565b6105266127d9565b61052e6127f4565b5f848152600860205260408120906007820154610100900460ff16600481111561055a5761055a613536565b146105805760405162461bcd60e51b815260040161057790613686565b60405180910390fd5b5f600782015460ff16600181111561059a5761059a613536565b146105e75760405162461bcd60e51b815260206004820152601c60248201527f43616e6e6f742072656a656374204155544f4d41544544207461736b000000006044820152606401610577565b60018101546001600160a01b031633148061060b575080546001600160a01b031633145b6106635760405162461bcd60e51b815260206004820152602360248201527f4f6e6c79206f7263686573747261746f722f636c69656e742063616e2072656a6044820152621958dd60ea1b6064820152608401610577565b80600301548411156106875760405162461bcd60e51b8152600401610577906136ab565b61069385858585610ca8565b6106af5760405162461bcd60e51b8152600401610577906136e2565b60078101805461ff001916610200179055600481018490556006810183905560028101545f9081526009602052604081208054600192906106f190849061372d565b9091555050600281015461070490612817565b5f612710610714866107d0613740565b61071e9190613757565b90505f612710610730876101f4613740565b61073a9190613757565b90505f8183856003015461074e919061372d565b610758919061372d565b60028501545f908152600560205260409020909150831561085657600281015460405163a9059cbb60e01b81526001600160a01b037f000000000000000000000000000000000000000000000000000000000000000081169263a9059cbb926107ca9291909116908890600401613776565b6020604051808303815f875af11580156107e6573d5f803e3d5ffd5b505050506040513d601f19601f8201168201806040525081019061080a919061378f565b6108565760405162461bcd60e51b815260206004820152601b60248201527f436f6d7075746520666565207472616e73666572206661696c656400000000006044820152606401610577565b82156109565760405163a9059cbb60e01b81526001600160a01b037f0000000000000000000000000000000000000000000000000000000000000000169063a9059cbb906108ca907f0000000000000000000000000000000000000000000000000000000000000000908790600401613776565b6020604051808303815f875af11580156108e6573d5f803e3d5ffd5b505050506040513d601f19601f8201168201806040525081019061090a919061378f565b6109565760405162461bcd60e51b815260206004820152601b60248201527f4469737075746520666565207472616e73666572206661696c656400000000006044820152606401610577565b8115610a0c57845460405163a9059cbb60e01b81526001600160a01b037f000000000000000000000000000000000000000000000000000000000000000081169263a9059cbb926109b09291909116908690600401613776565b6020604051808303815f875af11580156109cc573d5f803e3d5ffd5b505050506040513d601f19601f820116820180604052508101906109f0919061378f565b610a0c5760405162461bcd60e51b8152600401610577906137ae565b887f275ae23cda4ee67ab6630a18099fc72de52fb12f66144c43bc89fa6464d1568e89604051610a3e91815260200190565b60405180910390a25050505050610a6160015f80516020613b3c83398151915255565b50505050565b610a6f6127d9565b610a776127f4565b5f848152600860205260408120906007820154610100900460ff166004811115610aa357610aa3613536565b14610ac05760405162461bcd60e51b815260040161057790613686565b8060030154841115610ae45760405162461bcd60e51b8152600401610577906136ab565b610af085858585610ca8565b610b0c5760405162461bcd60e51b8152600401610577906136e2565b5f600782015460ff166001811115610b2657610b26613536565b03610bb15760018101546001600160a01b0316331480610b4f575080546001600160a01b031633145b610bb15760405162461bcd60e51b815260206004820152602d60248201527f4f6e6c79206f7263686573747261746f722f636c69656e742063616e2073657460448201526c746c652043484154207461736b60981b6064820152608401610577565b60078101805461ff001916610100179055600481018490556006810183905560028101545f908152600960205260408120805460019290610bf390849061372d565b909155505060028101545f908152600560205260408120600601805460019290610c1e9084906137de565b909155505060038101545f90610c3590869061372d565b60028301548354919250610c5591879084906001600160a01b03166129fc565b604080518681526020810186905287917f596c80d8829217ecd71bba7fdd9326afff6a6a1aacbb6d0c53c7e392469d0514910160405180910390a25050610a6160015f80516020613b3c83398151915255565b5f84815260086020908152604080832060028101548452600583528184208251938401899052918301879052606083018690529183906080016040516020818303038152906040528051906020012090505f610d30827f19457468657265756d205369676e6564204d6573736167653a0a3332000000005f908152601c91909152603c902090565b60028401549091506001600160a01b0316610d4b8288612e00565b6001600160a01b0316149998505050505050505050565b5f5461010090046001600160a01b03163314610d905760405162461bcd60e51b8152600401610577906137f1565b610d98612e2a565b565b5f5461010090046001600160a01b03163314610dc85760405162461bcd60e51b8152600401610577906137f1565b5f80546001600160a01b0390921661010002610100600160a81b0319909216919091179055565b5f805461010090046001600160a01b03163314610e1e5760405162461bcd60e51b8152600401610577906137f1565b6001600160a01b038416610e6d5760405162461bcd60e51b8152602060048201526016602482015275125b9d985b1a590818dc99585d1bdc881dd85b1b195d60521b6044820152606401610577565b610bb8831115610eb25760405162461bcd60e51b815260206004820152601060248201526f0a4def2c2d8e8f240e8dede40d0d2ced60831b6044820152606401610577565b600280545f9182610ec283613816565b9190505590506040518060e001604052808281526020018a8a8080601f0160208091040260200160405190810160405280939291908181526020018383808284375f92019190915250505090825250604080516020601f8b0181900481028201810190925289815291810191908a908a90819084018382808284375f9201829052509385525050506001600160a01b038816602080840191909152604080840189905260608401889052600160809094018490528583526003825290912083518155908301519091820190610f9790826138b1565b5060408201516002820190610fac90826138b1565b5060608201516003820180546001600160a01b0319166001600160a01b039092169190911790556080820151600482015560a0820151600582015560c0909101516006909101805460ff191691151591909117905560405181907f74c5ac8c4e5344f2162446f54788cb707d90e82ba699f9d2fd265d91f9d0d41090611039908c908c908a908a90613999565b60405180910390a298975050505050505050565b60056020525f90815260409020805460018201546002830154600384018054939492936001600160a01b0390921692916110869061382e565b80601f01602080910402602001604051908101604052809291908181526020018280546110b29061382e565b80156110fd5780601f106110d4576101008083540402835291602001916110fd565b820191905f5260205f20905b8154815290600101906020018083116110e057829003601f168201915b5050506004840154600585015460068601546007870154600888015460099098015496979396929550909350919060ff168a565b5f81815260056020526040902060028101546001600160a01b031633148061116757505f5461010090046001600160a01b031633145b6111a25760405162461bcd60e51b815260206004820152600c60248201526b155b985d5d1a1bdc9a5e995960a21b6044820152606401610577565b600901805460ff1916905550565b6111b86127d9565b6111c06127f4565b5f818152600860205260408120906007820154610100900460ff1660048111156111ec576111ec613536565b146112095760405162461bcd60e51b815260040161057790613686565b8060090154421161125c5760405162461bcd60e51b815260206004820152601c60248201527f50726f766964657220646561646c696e65206e6f7420706173736564000000006044820152606401610577565b60078101805461ff00191661030017905560028101545f90815260096020526040812080546001929061129090849061372d565b909155505060028101546112a390612817565b8054600382015460405163a9059cbb60e01b81526001600160a01b037f000000000000000000000000000000000000000000000000000000000000000081169363a9059cbb936112fb93919092169190600401613776565b6020604051808303815f875af1158015611317573d5f803e3d5ffd5b505050506040513d601f19601f8201168201806040525081019061133b919061378f565b6113575760405162461bcd60e51b8152600401610577906137ae565b60405182907f7c2ecd5e2b7188ac57f3a370681639cb447c9cbfbbbace0c070adea6c73eaa54905f90a25061139860015f80516020613b3c83398151915255565b50565b6006602052815f5260405f2081815481106113b4575f80fd5b905f5260205f20015f91509150505481565b60036020525f9081526040902080546001820180549192916113e79061382e565b80601f01602080910402602001604051908101604052809291908181526020018280546114139061382e565b801561145e5780601f106114355761010080835404028352916020019161145e565b820191905f5260205f20905b81548152906001019060200180831161144157829003601f168201915b5050505050908060020180546114739061382e565b80601f016020809104026020016040519081016040528092919081815260200182805461149f9061382e565b80156114ea5780601f106114c1576101008083540402835291602001916114ea565b820191905f5260205f20905b8154815290600101906020018083116114cd57829003601f168201915b5050505060038301546004840154600585015460069095015493946001600160a01b039092169390925060ff1687565b5f81815260066020908152604080832080548251818502810185019093528083526060949383018282801561156c57602002820191905f5260205f20905b815481526020019060010190808311611558575b505050505090505f805b82518110156115cf5760055f848381518110611594576115946139c8565b60209081029190910181015182528101919091526040015f206009015460ff16156115c757816115c381613816565b9250505b600101611576565b505f8167ffffffffffffffff8111156115ea576115ea6130d1565b60405190808252806020026020018201604052801561167357816020015b6116606040518061014001604052805f81526020015f81526020015f6001600160a01b03168152602001606081526020015f81526020015f81526020015f81526020015f81526020015f81526020015f151581525090565b8152602001906001900390816116085790505b5090505f805b845181101561183b5760055f868381518110611697576116976139c8565b60209081029190910181015182528101919091526040015f206009015460ff16156118335760055f8683815181106116d1576116d16139c8565b602002602001015181526020019081526020015f20604051806101400160405290815f820154815260200160018201548152602001600282015f9054906101000a90046001600160a01b03166001600160a01b03166001600160a01b031681526020016003820180546117439061382e565b80601f016020809104026020016040519081016040528092919081815260200182805461176f9061382e565b80156117ba5780601f10611791576101008083540402835291602001916117ba565b820191905f5260205f20905b81548152906001019060200180831161179d57829003601f168201915b505050918352505060048201546020820152600582015460408201526006820154606082015260078201546080820152600882015460a082015260099091015460ff16151560c0909101528351849084908110611819576118196139c8565b6020026020010181905250818061182f90613816565b9250505b600101611679565b509095945050505050565b5f5461010090046001600160a01b031633146118745760405162461bcd60e51b8152600401610577906137f1565b610d98612e7b565b5f6118856127d9565b61188d6127f4565b5f8681526003602052604090206006015460ff166118de5760405162461bcd60e51b815260206004820152600e60248201526d4d6f64656c20696e61637469766560901b6044820152606401610577565b5f868152600360205260409020600501548311156119325760405162461bcd60e51b81526020600482015260116024820152700507269636520657863656564732063617607c1b6044820152606401610577565b620f424082101561197b5760405162461bcd60e51b81526020600482015260136024820152725374616b652062656c6f77206d696e696d756d60681b6044820152606401610577565b6040516323b872dd60e01b8152336004820152306024820152604481018390527f00000000000000000000000000000000000000000000000000000000000000006001600160a01b0316906323b872dd906064016020604051808303815f875af11580156119eb573d5f803e3d5ffd5b505050506040513d601f19601f82011682018060405250810190611a0f919061378f565b611a2b5760405162461bcd60e51b8152600401610577906139dc565b600480545f9182611a3b83613816565b919050559050604051806101400160405280828152602001888152602001336001600160a01b0316815260200187878080601f0160208091040260200160405190810160405280939291908181526020018383808284375f9201829052509385525050506020808301889052604080840188905260608085018490526080850184905260a08501849052600160c09095018590528684526005835292819020855181559185015193820193909355918301516002830180546001600160a01b0319166001600160a01b039092169190911790558201516003820190611b2090826138b1565b506080820151600482015560a0820151600582015560c082015160068083019190915560e083015160078301556101008301516008830155610120909201516009909101805460ff19169115159190911790555f8881526020918252604080822080546001810182559083529290912090910182905551879082907f526f4f277a94b09231d2a19b5ad0935de82bb96a2e05463a4a3359b5190ead9e90611bce9033908b908b908b90613a0a565b60405180910390a3604080518481526020810185905282917ff3de9696cc92c479959092d3f1f34e399ad497f7d8cbbaddc43530e91a6225e9910160405180910390a29050611c2960015f80516020613b3c83398151915255565b95945050505050565b611c3a6127d9565b611c426127f4565b5f848152600860205260408120906007820154610100900460ff166004811115611c6e57611c6e613536565b14611c8b5760405162461bcd60e51b815260040161057790613686565b5f600782015460ff166001811115611ca557611ca5613536565b14611cf25760405162461bcd60e51b815260206004820181905260248201527f4f6e6c792043484154207461736b73206861766520666f72636520636c61696d6044820152606401610577565b80600a01544211611d455760405162461bcd60e51b815260206004820152601860248201527f5573657220646561646c696e65206e6f742070617373656400000000000000006044820152606401610577565b8060030154841115611d695760405162461bcd60e51b8152600401610577906136ab565b611d7585858585610ca8565b611d915760405162461bcd60e51b8152600401610577906136e2565b6002818101545f908152600560205260409020908101546001600160a01b03163314611e0b5760405162461bcd60e51b8152602060048201526024808201527f4f6e6c792070726f76696465722077616c6c65742063616e20666f72636520636044820152636c61696d60e01b6064820152608401610577565b60078201805461ff001916610400179055600482018590556006820184905560028201545f908152600960205260408120805460019290611e4d90849061372d565b909155505060028201545f908152600560205260408120600601805460019290611e789084906137de565b909155505060038201545f90611e8f90879061372d565b60028401548454919250611eaf91889084906001600160a01b03166129fc565b867fb32dc5e545a2669745426c67ec8ceb7d94cc82c88d1ac33650b0526c9077e87987604051611ee191815260200190565b60405180910390a2505050610a6160015f80516020613b3c83398151915255565b611f0a6127d9565b611f126127f4565b5f81815260056020526040902060028101546001600160a01b03163314611f4b5760405162461bcd60e51b815260040161057790613a3f565b600981015460ff161580611f6a57505f82815260096020526040902054155b611fb65760405162461bcd60e51b815260206004820181905260248201527f43616e6e6f7420756e7374616b6520696620616374697665206f7220627573796044820152606401610577565b600581015480611ffd5760405162461bcd60e51b81526020600482015260126024820152714e6f7468696e6720746f20756e7374616b6560701b6044820152606401610577565b5f6005830155600282015460405163a9059cbb60e01b81526001600160a01b037f000000000000000000000000000000000000000000000000000000000000000081169263a9059cbb9261205a9291909116908590600401613776565b6020604051808303815f875af1158015612076573d5f803e3d5ffd5b505050506040513d601f19601f8201168201806040525081019061209a919061378f565b6120b65760405162461bcd60e51b8152600401610577906139dc565b505061139860015f80516020613b3c83398151915255565b5f5461010090046001600160a01b031633146120fc5760405162461bcd60e51b8152600401610577906137f1565b6107d081111561213d5760405162461bcd60e51b815260206004820152600c60248201526b08ccaca40e8dede40d0d2ced60a31b6044820152606401610577565b600155565b61214a6127d9565b6121526127f4565b5f81116121965760405162461bcd60e51b81526020600482015260126024820152710416d6f756e74206d757374206265203e20360741b6044820152606401610577565b5f82815260056020526040902060028101546001600160a01b031633146121cf5760405162461bcd60e51b815260040161057790613a3f565b6040516323b872dd60e01b8152336004820152306024820152604481018390527f00000000000000000000000000000000000000000000000000000000000000006001600160a01b0316906323b872dd906064016020604051808303815f875af115801561223f573d5f803e3d5ffd5b505050506040513d601f19601f82011682018060405250810190612263919061378f565b61227f5760405162461bcd60e51b8152600401610577906139dc565b81816005015f82825461229291906137de565b9091555050600581015460405184917ff3de9696cc92c479959092d3f1f34e399ad497f7d8cbbaddc43530e91a6225e9916122d591868252602082015260400190565b60405180910390a2506122f460015f80516020613b3c83398151915255565b5050565b5f84815260056020526040902060028101546001600160a01b031633146123315760405162461bcd60e51b815260040161057790613a3f565b60018101545f9081526003602052604090206005015482111561238a5760405162461bcd60e51b81526020600482015260116024820152700507269636520657863656564732063617607c1b6044820152606401610577565b60038101612399848683613a6d565b5060040155505050565b5f6123ac6127d9565b6123b46127f4565b6001600160a01b0386166123fb5760405162461bcd60e51b815260206004820152600e60248201526d125b9d985b1a590818db1a595b9d60921b6044820152606401610577565b5f84116124405760405162461bcd60e51b8152602060048201526013602482015272109d5919d95d080f880c081c995c5d5a5c9959606a1b6044820152606401610577565b5f858152600560205260409020600981015460ff166124955760405162461bcd60e51b815260206004820152601160248201527050726f766964657220696e61637469766560781b6044820152606401610577565b620f4240816005015410156124e45760405162461bcd60e51b8152602060048201526015602482015274141c9bdd9a59195c881d5b99195c8b5cdd185ad959605a1b6044820152606401610577565b600780545f91826124f483613816565b9091555090505f612507426107086137de565b90505f8086600181111561251d5761251d613536565b14612528575f612535565b61253582620151806137de565b90506040518061018001604052808b6001600160a01b03168152602001336001600160a01b031681526020018a81526020018981526020015f81526020018881526020015f801b815260200187600181111561259357612593613536565b81526020015f815242602080830191909152604080830186905260609283018590525f87815260088352819020845181546001600160a01b039182166001600160a01b0319918216178355938601516001808401805492909316919095161790559084015160028201559183015160038301556080830151600483015560a0830151600583015560c0830151600683015560e08301516007830180549192909160ff191690838181111561264957612649613536565b0217905550610100828101516007830180549192909161ff0019169083600481111561267757612677613536565b02179055506101208201518160080155610140820151816009015561016082015181600a0155905050600160095f8b81526020019081526020015f205f8282546126c191906137de565b90915550506040516323b872dd60e01b81526001600160a01b038b81166004830152306024830152604482018a90527f000000000000000000000000000000000000000000000000000000000000000016906323b872dd906064016020604051808303815f875af1158015612738573d5f803e3d5ffd5b505050506040513d601f19601f8201168201806040525081019061275c919061378f565b6127785760405162461bcd60e51b8152600401610577906139dc565b888a6001600160a01b0316847fa4e088bd53f1a93ee40057b5712e06ba25a502ef94d3cdb958ef1581088309788b8a6040516127b5929190613b27565b60405180910390a4509092505050611c2960015f80516020613b3c83398151915255565b6127e1612eb7565b60025f80516020613b3c83398151915255565b5f5460ff1615610d985760405163d93c066560e01b815260040160405180910390fd5b5f818152600560205260408120600781018054919260019261283a9084906137de565b909155505060058101546207a12090811115612857575060058101545b80156129675780826005015f828254612870919061372d565b909155505060405163a9059cbb60e01b81526001600160a01b037f0000000000000000000000000000000000000000000000000000000000000000169063a9059cbb906128e3907f0000000000000000000000000000000000000000000000000000000000000000908590600401613776565b6020604051808303815f875af11580156128ff573d5f803e3d5ffd5b505050506040513d601f19601f82011682018060405250810190612923919061378f565b6129675760405162461bcd60e51b815260206004820152601560248201527414db185cda081d1c985b9cd9995c8819985a5b1959605a1b6044820152606401610577565b6001826008015f82825461297b91906137de565b90915550506008820154600583015460405185927f2a972d3739156f3b9c26f9124f039d07bb12905f2063b349d0aac60f247d86b9926129c392918252602082015260400190565b60405180910390a2600582600801541015806129e55750620f42408260050154105b156129f75760098201805460ff191690555b505050565b5f848152600560209081526040808320600181015484526003909252822060048101549192909161271090612a319088613740565b612a3b9190613757565b90505f61271060015488612a4f9190613740565b612a599190613757565b90505f81612a67848a61372d565b612a71919061372d565b90508215612b5c57600384015460405163a9059cbb60e01b81526001600160a01b037f000000000000000000000000000000000000000000000000000000000000000081169263a9059cbb92612ad09291909116908790600401613776565b6020604051808303815f875af1158015612aec573d5f803e3d5ffd5b505050506040513d601f19601f82011682018060405250810190612b10919061378f565b612b5c5760405162461bcd60e51b815260206004820152601760248201527f526f79616c7479207472616e73666572206661696c65640000000000000000006044820152606401610577565b8115612c5c5760405163a9059cbb60e01b81526001600160a01b037f0000000000000000000000000000000000000000000000000000000000000000169063a9059cbb90612bd0907f0000000000000000000000000000000000000000000000000000000000000000908690600401613776565b6020604051808303815f875af1158015612bec573d5f803e3d5ffd5b505050506040513d601f19601f82011682018060405250810190612c10919061378f565b612c5c5760405162461bcd60e51b815260206004820152601c60248201527f506c6174666f726d20666565207472616e73666572206661696c6564000000006044820152606401610577565b8015612d4557600285015460405163a9059cbb60e01b81526001600160a01b037f000000000000000000000000000000000000000000000000000000000000000081169263a9059cbb92612cb99291909116908590600401613776565b6020604051808303815f875af1158015612cd5573d5f803e3d5ffd5b505050506040513d601f19601f82011682018060405250810190612cf9919061378f565b612d455760405162461bcd60e51b815260206004820152601860248201527f50726f7669646572207472616e73666572206661696c656400000000000000006044820152606401610577565b8615612df55760405163a9059cbb60e01b81526001600160a01b037f0000000000000000000000000000000000000000000000000000000000000000169063a9059cbb90612d999089908b90600401613776565b6020604051808303815f875af1158015612db5573d5f803e3d5ffd5b505050506040513d601f19601f82011682018060405250810190612dd9919061378f565b612df55760405162461bcd60e51b8152600401610577906137ae565b505050505050505050565b5f805f80612e0e8686612ee6565b925092509250612e1e8282612f2f565b50909150505b92915050565b612e32612fe7565b5f805460ff191690557f5db9ee0a495bf2e6ff9c91a7834c1ba4fdd244a5e8aa4e537bd38aeae4b073aa335b6040516001600160a01b03909116815260200160405180910390a1565b612e836127f4565b5f805460ff191660011790557f62e78cea01bee320cd4e420270b5ea74000d11b0c9f74754ebdbfc544b05a258612e5e3390565b5f80516020613b3c83398151915254600203610d9857604051633ee5aeb560e01b815260040160405180910390fd5b5f805f8351604103612f1d576020840151604085015160608601515f1a612f0f88828585613009565b955095509550505050612f28565b505081515f91506002905b9250925092565b5f826003811115612f4257612f42613536565b03612f4b575050565b6001826003811115612f5f57612f5f613536565b03612f7d5760405163f645eedf60e01b815260040160405180910390fd5b6002826003811115612f9157612f91613536565b03612fb25760405163fce698f760e01b815260048101829052602401610577565b6003826003811115612fc657612fc6613536565b036122f4576040516335e2f38360e21b815260048101829052602401610577565b5f5460ff16610d9857604051638dfc202b60e01b815260040160405180910390fd5b5f80807f7fffffffffffffffffffffffffffffff5d576e7357a4501ddfe92f46681b20a084111561304257505f915060039050826130c7565b604080515f808252602082018084528a905260ff891692820192909252606081018790526080810186905260019060a0016020604051602081039080840390855afa158015613093573d5f803e3d5ffd5b5050604051601f1901519150506001600160a01b0381166130be57505f9250600191508290506130c7565b92505f91508190505b9450945094915050565b634e487b7160e01b5f52604160045260245ffd5b5f805f80608085870312156130f8575f80fd5b843593506020850135925060408501359150606085013567ffffffffffffffff80821115613124575f80fd5b818701915087601f830112613137575f80fd5b813581811115613149576131496130d1565b604051601f8201601f19908116603f01168101908382118183101715613171576131716130d1565b816040528281528a6020848701011115613189575f80fd5b826020860160208301375f60208483010152809550505050505092959194509250565b80356001600160a01b03811681146131c2575f80fd5b919050565b5f602082840312156131d7575f80fd5b6131e0826131ac565b9392505050565b5f8083601f8401126131f7575f80fd5b50813567ffffffffffffffff81111561320e575f80fd5b602083019150836020828501011115613225575f80fd5b9250929050565b5f805f805f805f60a0888a031215613242575f80fd5b873567ffffffffffffffff80821115613259575f80fd5b6132658b838c016131e7565b909950975060208a013591508082111561327d575f80fd5b5061328a8a828b016131e7565b909650945061329d9050604089016131ac565b9250606088013591506080880135905092959891949750929550565b5f602082840312156132c9575f80fd5b5035919050565b5f81518084525f5b818110156132f4576020818501810151868301820152016132d8565b505f602082860101526020601f19601f83011685010191505092915050565b8a8152602081018a90526001600160a01b0389166040820152610140606082018190525f906133448382018b6132d0565b6080840199909952505060a081019590955260c085019390935260e0840191909152610100830152151561012090910152949350505050565b5f806040838503121561338e575f80fd5b50508035926020909101359150565b87815260e060208201525f6133b560e08301896132d0565b82810360408401526133c781896132d0565b6001600160a01b039790971660608401525050608081019390935260a0830191909152151560c0909101529392505050565b5f60208083018184528085518083526040925060408601915060408160051b8701018488015f5b838110156134cf57888303603f190185528151805184528781015188850152868101516001600160a01b038116888601526101409050606080830151828288015261346d838801826132d0565b6080858101519089015260a0808601519089015260c0808601519089015260e08086015190890152610100808601519089015261012094850151801515868a01529490935091506134bb9050565b509588019593505090860190600101613420565b509098975050505050505050565b5f805f805f608086880312156134f1575f80fd5b85359450602086013567ffffffffffffffff81111561350e575f80fd5b61351a888289016131e7565b9699909850959660408101359660609091013595509350505050565b634e487b7160e01b5f52602160045260245ffd5b6002811061355a5761355a613536565b9052565b6001600160a01b038d811682528c166020820152604081018b9052606081018a90526080810189905260a0810188905260c0810187905261018081016135a760e083018861354a565b600586106135b7576135b7613536565b856101008301528461012083015283610140830152826101608301529d9c50505050505050505050505050565b5f805f80606085870312156135f7575f80fd5b84359350602085013567ffffffffffffffff811115613614575f80fd5b613620878288016131e7565b9598909750949560400135949350505050565b5f805f805f60a08688031215613647575f80fd5b613650866131ac565b9450602086013593506040860135925060608601359150608086013560028110613678575f80fd5b809150509295509295909350565b6020808252600b908201526a4e6f742070656e64696e6760a81b604082015260600190565b6020808252601b908201527f46696e616c20616d6f756e742065786365656473206275646765740000000000604082015260600190565b6020808252601a908201527f496e76616c69642070726f7669646572207369676e6174757265000000000000604082015260600190565b634e487b7160e01b5f52601160045260245ffd5b81810381811115612e2457612e24613719565b8082028115828204841417612e2457612e24613719565b5f8261377157634e487b7160e01b5f52601260045260245ffd5b500490565b6001600160a01b03929092168252602082015260400190565b5f6020828403121561379f575f80fd5b815180151581146131e0575f80fd5b6020808252601690820152751499599d5b99081d1c985b9cd9995c8819985a5b195960521b604082015260600190565b80820180821115612e2457612e24613719565b6020808252600b908201526a27b7363c903830bab9b2b960a91b604082015260600190565b5f6001820161382757613827613719565b5060010190565b600181811c9082168061384257607f821691505b60208210810361386057634e487b7160e01b5f52602260045260245ffd5b50919050565b601f8211156129f757805f5260205f20601f840160051c8101602085101561388b5750805b601f840160051c820191505b818110156138aa575f8155600101613897565b5050505050565b815167ffffffffffffffff8111156138cb576138cb6130d1565b6138df816138d9845461382e565b84613866565b602080601f831160018114613912575f84156138fb5750858301515b5f19600386901b1c1916600185901b178555613969565b5f85815260208120601f198616915b8281101561394057888601518255948401946001909101908401613921565b508582101561395d57878501515f19600388901b60f8161c191681555b505060018460011b0185555b505050505050565b81835281816020850137505f828201602090810191909152601f909101601f19169091010190565b606081525f6139ac606083018688613971565b6001600160a01b03949094166020830152506040015292915050565b634e487b7160e01b5f52603260045260245ffd5b6020808252601490820152731554d110c81d1c985b9cd9995c8819985a5b195960621b604082015260600190565b6001600160a01b03851681526060602082018190525f90613a2e9083018587613971565b905082604083015295945050505050565b60208082526014908201527313db9b1e481c1c9bdd9a59195c881dd85b1b195d60621b604082015260600190565b67ffffffffffffffff831115613a8557613a856130d1565b613a9983613a93835461382e565b83613866565b5f601f841160018114613aca575f8515613ab35750838201355b5f19600387901b1c1916600186901b1783556138aa565b5f83815260208120601f198716915b82811015613af95786850135825560209485019460019092019101613ad9565b5086821015613b15575f1960f88860031b161c19848701351681555b505060018560011b0183555050505050565b828152604081016131e0602083018461354a56fe9b779b17422d0df92223018b32b4d1fa46e071723d6817e2486d003becc55f00a2646970667358221220e8eb6ce979453e2b169d09d357124ecf1ecec15d998c04c87ee73d54a2dd482064736f6c63430008180033",
  "linkReferences": {},
  "deployedLinkReferences": {}
}